:020000040800F2
:1000000048070020651C0008290300082B0300088E
:100010002F03000833030008370300080000000026
:100020000000000000000000000000003B0300088A
:100030003D030008000000003F03000841030008E2
:100040007F1C00087F1C00087F1C00087F1C000824
:100050007F1C00087F1C0008A30A00087F1C000802
:100060007F1C00087F1C00087F1C00087F1C000804
:100070007F1C00087F1C00087F1C00087F1C0008F4
:100080007F1C00087F1C00087F1C00087F1C0008E4
:100090007F1C00087F1C00087F1C0008C90A00089C
:1000A0007F1C00087F1C00087F1C00087F1C0008C4
:1000B0007F1C00087F1C0008A10900087F1C0008A5
:1000C0007F1C00087F1C00087F1C00087F1C0008A4
:1000D0007F1C00087F1C0008050C00087F1C00081E
:1000E000E10A00087F1C00087F1C00087F1C000834
:1000F0007F1C00087F1C00087F1C00087F1C000874
:100100007F1C00087F1C0008611B00087F1C000882
:100110007F1C00087F1C0008330F00087F1C0008AC
:100120007F1C00087F1C00087F1C00087F1C000843
:1001300000F002F800F03AF80AA090E8000C8244BF
:100140008344AAF10107DA4501D100F02FF8AFF29C
:10015000090EBAE80F0013F0010F18BFFB1A43F0A5
:10016000010318475055000070550000103A24BF95
:1001700078C878C1FAD8520724BF30C830C144BF0C
:1001800004680C607047000000230024002500264E
:10019000103A28BF78C1FBD8520728BF30C148BFEA
:1001A0000B6070471FB51FBD10B510BD03F026FED4
:1001B0001146FFF7F7FF00F009F803F058FE03B40B
:1001C000FFF7F2FF03BC00F0ADF9000001F0E0FC26
:1001D00000F06FFB00F05AFD00F045FF00F05AFF01
:1001E00000F0C0FF91E04948006810286FD2DFE8B6
:1001F00000F008131E29343F4A50565C62686F7540
:100200007B814348006803F0C3FF84B2224601218A
:10021000022001F0D0F974E03E48006803F0B8FF16
:1002200084B222460121022001F0C5F969E03A4872
:10023000006803F0ADFF84B222460121022001F0E4
:10024000BAF95EE03548006803F0A2FF84B22246A6
:100250000121022001F0AFF953E03148006803F0BA
:1002600097FF84B222460121022001F0A4F948E060
:100270002C48006803F08CFF84B222460121022042
:1002800001F099F93DE007220121022001F093F9E4
:1002900037E008220121022001F08DF931E0092226
:1002A0000121022001F087F92BE00A22012102201E
:1002B00001F081F925E00B220121022001F07BF9F8
:1002C0001FE00C220121022001F075F919E017E06E
:1002D0000D220121022001F06EF912E00E2201210F
:1002E000022001F068F90CE00F220121022001F048
:1002F00062F906E010220121022001F05CF900E021
:1003000000BF00BF0A2001F080FC6CE73400002031
:100310009000002094000020980000209C00002005
:10032000A0000020A4000020704700BFFEE700BF2F
:10033000FEE700BFFEE700BFFEE77047704770476B
:10034000704700000CB50020019000906C480068D8
:1003500040F480306A49086000BF6948006800F4D2
:10036000003000900198401C0190009818B9019845
:10037000B0F5A06FF1D16248006800F4003010B110
:100380000120009001E0002000900098012843D156
:100390005C48006840F010005A4908600846006850
:1003A00020F0030008600846006840F00200086082
:1003B00053484068524948600846406848600846CB
:1003C000406840F4806048600846406820F47C1033
:1003D00048600846406840F4E810486008460068F5
:1003E00040F08070086000BF4548006800F0007071
:1003F0000028F9D04248406820F003004049486096
:100400000846406840F00200486000BF3C48406831
:1004100000F00C000828F9D10CBD10B5FFF792FFD1
:1004200010BD10B53648006840F00100344908603E
:100430000846406834490840314948600846006829
:10044000324908402E4908600846006820F48020A0
:1004500008600846406820F4FE0048604FF41F0022
:100460008860FFF7DAFF4FF000602949086010BD8F
:1004700010B5002100200022214B5B6803F00C0125
:1004800021B1042906D0082928D107E0214B224CAC
:10049000236027E01F4B204C236023E0184B5B6850
:1004A00003F47010164B5B6803F48032022303EBF5
:1004B000904022B9194B4343174C23600DE0104B79
:1004C0005B6803F4003323B1144B4343124C2360A5
:1004D00003E0104B4343104C236003E00D4B0E4CE4
:1004E000236000BF00BF064B5B68C3F303130C4CD3
:1004F000E15C094B1B68CB40074C236010BD00003A
:1005000000100240002002400000FFF8FFFFF6FE4E
:1005100008ED00E000127A000000002000093D0014
:1005200004000020014600BF704700BFEE4A128859
:1005300002F04002002AF9D0C2B2EB4B1B1D1A8018
:10054000704710B501F05CFD4FF4803001F078FD8C
:1005500001F0B5FD0446012C24D1102003F0B6F8BB
:10056000022003F09FF8002001F0EFFD002001F0D1
:10057000FEFDA00201F0F2FD4FF4E011200401F0B5
:10058000C7FD012001F0D0FD00BF392001F07BFD47
:100590000028FAD0022001F0CAFD00BF01F0D0FD12
:1005A0000828FBD110BD00B585B00121052001F060
:1005B00095FE0121880301F091FECB4801F0F2FE87
:1005C0004FF40070ADF8100018208DF813000320D0
:1005D0008DF8120004A9C54801F0C4FB4FF48060F7
:1005E000ADF8100004208DF8130004A9BF4801F0F5
:1005F000B9FB4FF4E13000900020ADF80400ADF8F5
:100600000600ADF80800ADF80C000C20ADF80A00AB
:100610006946B54801F009FF002240F22771B2484F
:1006200001F09BFF0121B04801F08BFF4021AE4853
:1006300002F06FF805B000BD00B585B001210420BF
:1006400001F04CFE0121480401F055FE0420ADF8F4
:10065000100003208DF8120018208DF8130004A953
:10066000A24801F07FFB0820ADF8100004208DF8AF
:10067000130004A99D4801F075FB4FF4165000903B
:100680000020ADF80400ADF80600ADF80800ADF8A4
:100690000C000C20ADF80A006946954801F0C5FE33
:1006A000012240F22551924801F057FF0121904864
:1006B00001F047FF05B000BD30B589B005460C46D6
:1006C0000121022001F017FE0121082001F006FEA1
:1006D0000320ADF820008DF8220018208DF82300AB
:1006E00008A9844801F03EFBADF81850ADF814405D
:1006F0000020ADF81A00ADF8160005A97E4802F0FA
:1007000097F96020ADF804000120ADF80600002044
:10071000ADF80A00ADF80C0001A9774802F054FAD0
:1007200001A9754802F09BFA0121734802F0E8FC28
:100730000821714802F01EFE08216F4802F023FED6
:1007400001216D4802F0D0FD01216B4802F0CCFC84
:1007500009B030BD0EB50121042001F0CCFD4720C9
:10076000ADF800000020ADF8020042F21070ADF8C4
:1007700004000020ADF806008DF8080069465F48C7
:1007800002F056F901215D4802F074FF0122114682
:100790005A4802F0C4FC0121584802F0A5FC0EBDE5
:1007A0000EB50121082001F0A6FD4720ADF800009C
:1007B0000020ADF8020042F21070ADF804000020F5
:1007C000ADF806008DF8080069464D4802F030F992
:1007D00001214B4802F04EFF01221146484802F029
:1007E0009EFC0121464802F07FFC0EBD0EB50121A2
:1007F000102001F080FD4720ADF800000020ADF88A
:10080000020042F21070ADF804000020ADF80600BE
:100810008DF8080069463B4802F00AF90121394881
:1008200002F028FF01221146364802F078FC01212F
:10083000344802F059FC0EBD08B54FF4A06001F039
:10084000B5FF26208DF8000000208DF801008DF8FE
:10085000020001208DF80300684601F0ACFF322051
:100860008DF8000001208DF801008DF802008DF850
:100870000300684601F09FFF1E208DF80000022053
:100880008DF801008DF8020001208DF80300684604
:1008900001F091FF36208DF8000002208DF8010054
:1008A00001208DF802008DF80300684601F083FFF7
:1008B00008BD10B5FFF745FEFFF7BEFFFFF773FE5B
:1008C000FFF7BAFE00F020F800F01EF900F080F803
:1008D000482144F61F60FFF7EFFEFFF73BFFFFF7ED
:1008E0005FFFFFF783FF10BD0038014000080140A3
:1008F00000440040000C014000040040000800409B
:10090000000C00400010004008B50121242001F037
:10091000E5FC4FF48070ADF8000010208DF8030066
:1009200003208DF802006946244801F01BFA4FF4B9
:100930008071224801F0C3FA0420ADF80000694636
:100940001F4801F00FFA04211D4801F0B8FA08BD54
:1009500010B51C48006810B101280AD104E0042138
:10096000174801F0ACFA05E00421154801F0A9FA96
:1009700000E000BF00BF1448006810B101280CD18E
:1009800005E04FF480710D4801F099FA06E04FF44C
:1009900080710A4801F095FA00E000BF00BF10BD69
:1009A00010B50121094802F068FE28B1FFF7D0FF19
:1009B0000121064802F072FE10BD0000000801404F
:1009C00000140140AC000020B000002000080040EE
:1009D0000EB50121084601F081FC00F095F80521D3
:1009E000022001F0D5FA2020019000208DF80800A7
:1009F0000C208DF8090001208DF80A0001A803F0F1
:100A00003DF90F21002001F0C3FA4FF4004001909E
:100A100000208DF808000C208DF8090001208DF8C9
:100A20000A0001A803F02AF90021084601F0B0FAF3
:100A30000120019000208DF8080008208DF80900A1
:100A400001208DF80A0001A803F018F906208DF89E
:100A5000000000208DF8010001208DF802008DF8C3
:100A60000300684601F0A7FE17208DF80000002063
:100A70008DF8010001208DF802008DF80300684612
:100A800001F099FE28208DF8000000208DF801006B
:100A900001208DF802008DF80300684601F08BFEFE
:100AA0000EBD10B50A2001F0B0F80121134801F085
:100AB000ECF9012804D112480068401C1049086074
:100AC000012003F052F910BD10B50A2001F09DF885
:100AD00020210C4801F0D9F9202003F046F910BD7F
:100AE00010B50A2001F091F84FF40041034801F0DD
:100AF000CCF94FF4004003F038F910BD0008014074
:100B0000A80000200010014008B50121142001F0C8
:100B1000E5FB0121374801F0F6F94FF40040ADF84C
:100B2000000048208DF803006946334801F01AF9A7
:100B30002020ADF8000048208DF8030069462F48BA
:100B400001F010F90120ADF8000028208DF8030015
:100B50006946294801F006F908BD10B5044614B1EC
:100B60000120274908702648007868B320212348CF
:100B700001F08BF958B14FF400411F4801F085F99D
:100B800028B101211C4801F080F901281CD10A205C
:100B900001F03BF800201A4908702021174801F0A5
:100BA00074F908B9012010BD4FF40041124801F05A
:100BB0006CF908B90220F6E701210F4801F065F948
:100BC000012815D10320EEE720210C4801F05DF942
:100BD00001280DD1C103084801F057F9012807D1B8
:100BE0000121054801F051F910B9012004490870AC
:100BF0000020D8E70002300000080140001001404A
:100C00001800002010B540F225511A4801F08AFD65
:100C100078B31849091D0988C8B21749097869B914
:100C200016490978FE2909D115490978FF2905D106
:100C30000121114A11700021124A11700E490978E0
:100C400001290FD110490F4A127888540D490978AB
:100C5000491C0C4A117011460978022902D1002161
:100C6000054A117005490978054A11700349087051
:100C700000BF10BD004400402E00002030000020C6
:100C8000310000202F0000202C00002008B5012199
:100C9000082001F023FB4FF47060ADF80000102035
:100CA0008DF8030003208DF802006946A74801F083
:100CB00059F84FF47040ADF8000028208DF803007B
:100CC00003208DF802006946A04801F04BF808BDEA
:100CD00010B59E480C3000684FF2FF02104040F4FF
:100CE00070619A4801F0F4F898480830006800F400
:100CF000704010B94FF0FF3010BD052000F085FFA7
:100D000092480830006800F4704010B94FF0FF308E
:100D1000F2E78E480C3000684FF2FF02104040F4BA
:100D200080718A4801F0D4F888480830006800F4DF
:100D30007040B0F5805F09D0B0F5005F08D0B0F525
:100D4000804F07D0B0F5004F08D105E0012405E041
:100D5000022403E0032401E0042400BF00BF00BF1D
:100D60007A480830006800F470400028F8D17748CD
:100D70000C3000684FF2FF02104040F400717348DD
:100D800001F0A6F871480830006800F47040B0F532
:100D9000805F09D0B0F5005F08D0B0F5804F07D074
:100DA000B0F5004F08D105E0052405E0062403E076
:100DB000072401E0082400BF00BF00BF63480830DB
:100DC000006800F470400028F8D160480C300068DA
:100DD0004FF2FF02104040F480615C4801F078F867
:100DE0005A480830006800F47040B0F5805F09D0C0
:100DF000B0F5005F08D0B0F5804F07D0B0F5004FD8
:100E000008D105E0092405E00A2403E00B2401E0F1
:100E10000C2400BF00BF00BF4C480830006800F43D
:100E200070400028F8D149480C3000684FF2FF02AA
:100E3000104040F40061454801F04AF8434808304A
:100E4000006800F47040B0F5805F09D0B0F5005F35
:100E500008D0B0F5804F07D0B0F5004F08D105E0BD
:100E60000D2405E00E2403E00F2401E0102400BF50
:100E700000BF00BF35480830006800F4704000280B
:100E8000F8D1204638E710B5FFF722FF3049086057
:100E90000846006811284AD2DFE800F049090D1120
:100EA00015191D2125292D3135393D41450029A030
:100EB00002F066FF3BE028A002F062FF37E027A0C7
:100EC00002F05EFF33E026A002F05AFF2FE025A0DB
:100ED00002F056FF2BE024A002F052FF27E023A0EF
:100EE00002F04EFF23E022A002F04AFF1FE021A003
:100EF00002F046FF1BE020A002F042FF17E01FA017
:100F000002F03EFF13E01EA002F03AFF0FE01DA02A
:100F100002F036FF0BE01CA002F032FF07E01BA03E
:100F200002F02EFF03E01AA002F02AFF00BF00BF6C
:100F300010BD10B50121174802F09FFB28B1FFF743
:100F4000A2FF0121134802F0A9FB10BD000C0140D3
:100F500034000020310A0000320A0000330A000089
:100F6000410A0000340A0000350A0000360A000079
:100F7000420A0000370A0000380A0000390A00005F
:100F8000430A00002A0A0000300A0000230A000079
:100F9000440A0000001000400120F8490860F849A8
:100FA000C1F884010020F549091F0860F449C1F81F
:100FB000880170470020F1490860F149C1F88401B7
:100FC0000120EE49091F0860ED49C1F8880170470A
:100FD0002DE9F04105462C46002716E02646002064
:100FE000E649086006F08006802E03D10120091F23
:100FF000086003E00020E149091F08606006040E54
:101000000120DE490860781CC7B2082FE6DB00200B
:10101000DA490860032000F0D4FD0120D849C1F866
:101020008801BDE8F08110B50446FFF7B5FF7820D0
:10103000FFF7CEFF0020FFF7CBFFE0B2FFF7C8FFBE
:10104000FFF7B8FF10BD10B50446FFF7A5FF7820E5
:10105000FFF7BEFF4020FFF7BBFFE0B2FFF7B8FF8E
:10106000FFF7A8FF10BDC748806940F01000C549D0
:101070008861C548006820F47F60C349086008465D
:10108000006840F44C7008600846C06840F00600F4
:10109000C860704710B50020B849091D08604FF4BA
:1010A000FA7000F0B2FD0120B549C1F88C01AE2004
:1010B000FFF7B9FFD520FFF7B6FF8020FFF7B3FF9A
:1010C000A820FFF7B0FF3F20FFF7ADFFD320FFF7C9
:1010D000AAFF0020FFF7A7FF4020FFF7A4FF8D2005
:1010E000FFF7A1FF1420FFF79EFF2020FFF79BFFD3
:1010F0000220FFF798FFC820FFF795FFA120FFF718
:1011000092FFDA20FFF78FFF1220FFF78CFF81207C
:10111000FFF789FFCF20FFF786FFD920FFF783FF76
:10112000F120FFF780FFDB20FFF77DFF4020FFF776
:101130007AFFAF20FFF777FF10BD70B505460C466C
:10114000601EC4B2681EC5B205F1B000FFF76BFFA8
:10115000102101EB1410FFF766FF04F00F00FFF7FA
:1011600062FF70BD70B500240FE0611CC8B20121A0
:10117000FFF7E3FF002504E00020FFF764FF681C91
:10118000C5B2802DF8DB601CC4B2082CEDDB70BD4D
:101190002DE9F04107460D46002410E0611CC8B25D
:1011A0000121FFF7CAFF002606E03846FFF74BFF94
:1011B0002846FFF748FF761C402EF6DB641C082CFF
:1011C000ECDBBDE8F08170B50446002510E0691C39
:1011D000C8B20121FFF7B1FF002605E02078FFF734
:1011E00032FF641C701C86B2802EF7DB681C85B24F
:1011F000082DECDB70BD2DE9F0410646884614460B
:10120000002510E07119C8B24146FFF796FF00278C
:1012100005E02078FFF717FF641C781C87B2802F49
:10122000F7DB681C85B2022DECDBBDE8F0812DE90F
:10123000F041064688461446002510E07119C8B2F0
:101240004146FFF77AFF002705E02078FFF7FBFE15
:10125000641C781CC7B2202FF7DB681CC5B2042DB4
:10126000ECDBBDE8F0812DE9F041064688461446E6
:10127000002510E07119C8B24146FFF75EFF002754
:1012800005E02078FFF7DFFE641C781CC7B2102F42
:10129000F7DB681CC5B2022DECDBBDE8F0812DE95F
:1012A000F041064688461446002510E07119C8B280
:1012B0004146FFF742FF002705E02088FFF7C3FE05
:1012C000A41C781CC7B2102FF7DB681CC5B2012D17
:1012D000ECDBBDE8F0812DE9F04106468846144676
:1012E000002510E07119C8B24146FFF726FF00271C
:1012F00005E02078FFF7A7FE641C781CC7B2802F9A
:10130000F7DB681CC5B2082DECDBBDE8F0812DE9E8
:10131000F041064688461446002510E07119C8B20F
:101320004146FFF70AFF002705E02078FFF78BFE14
:10133000641C781CC7B2082FF7DB681CC5B2022DED
:10134000ECDBBDE8F0812DE9F04780460E461546FE
:1013500000247B2E04DD012608F102001FFA80F82C
:1013600039E0285D202834DB285D7E2831DC285DCB
:1013700020381FFA80FA002723E00000880122426B
:10138000000022420010024000100140F1B208EBC0
:101390000702D0B2FFF7D1FE4FF000090CE0C249BE
:1013A00001EB0A11082202FB0792885CFFF74BFE53
:1013B00009F101001FFA80F9B9F1080FEFDB781C81
:1013C00087B2022FE2DB601C84B206F1080086B20D
:1013D00001E0601C84B2285D0028C2DCBDE8F08713
:1013E0002DE9F05F80460E4691461D46002441E0FF
:1013F000285D20283CDB285D7E2839DC285D2038EC
:101400001FFA80FAF1B208F0FF00FFF796FE0027FE
:1014100016E0B9F1010F08D10AEB8A00A34908448C
:10142000C05DC0431FFA80FB05E00AEB8A009F49BC
:10143000084410F807B05846FFF705FE781C87B23D
:10144000052FE6DBB9F1010F03D1FF20FFF7FBFD0C
:1014500002E00020FFF7F7FD601C84B2B01D86B2E9
:101460007B2E07DD012608F101001FFA80F801E05C
:10147000601C84B2285D0028BADCBDE8F09F2DE92D
:10148000F04707468946904600265CE000244FF06E
:10149000010A12E08648005D18F8061088420AD159
:1014A0008349601C095C701C18F80000814202D15D
:1014B0004FEA041A05E0A01CC4B27D48005D7E28F6
:1014C000E8DC00BFB9F1710F03DD4FF00009B81C73
:1014D000C7B2BAF1010F1CD0002515E07919C8B2C6
:1014E0004946FFF72AFE00240AE0724911F80A0073
:1014F000FFF7A9FD0AF101001FFA80FA601CC4B2CF
:10150000102CF2DB681CC5B2022DE7DBB01CC6B2A2
:1015100015E000250FE07919C8B24946FFF70DFE26
:10152000002404E00020FFF78EFD601CC4B2102CE4
:10153000F8DB681CC5B2022DEDDB701CC6B209F1E8
:10154000100000F0FF0918F8060000289ED1BDE841
:10155000F087F8B507460E461546002427E0285DBB
:101560007E2814DD285D8DF80000601C285C8DF855
:10157000010000208DF802006A4631463846FFF728
:101580007EFF06F11000C6B2A01CC4B20FE0285DB9
:101590008DF8000000208DF801006A46314638467B
:1015A000FFF7D1FE06F10800C6B2601CC4B2285D88
:1015B0000028D4D1F8BD2DE9F84381468846164667
:1015C000002400270025002000900A2096FBF0F15F
:1015D00000FB1160C0B28DF803000A2096FBF0F00A
:1015E0000A2190FBF1F201FB1200C0B28DF802005B
:1015F000642096FBF0F090FBF1F201FB1200C0B208
:101600008DF801004FF47A7096FBF0F090FBF1F248
:1016100001FB1200C0B28DF8000000BF3FE01DF8D2
:1016200004001030C0B20DF80400002716E00820B6
:1016300000FB0480C1B24846FFF77FFD002509E0AA
:101640001DF80410184A02EB0111485DFFF7FBFC7E
:10165000681CC5B2082DF3DB781CC7B2022FE6DB8D
:10166000002718E0082202FB0482D1B209F101022E
:10167000D0B2FFF762FD082509E01DF804100A4A00
:1016800002EB0111485DFFF7DEFC681CC5B2102DAE
:10169000F3DB781CC7B2022FE4DB601CC4B2042C5D
:1016A000BDDBBDE8F88300008A4500087A4B0008DE
:1016B000E6530008115400082DE9FE4F04460D467C
:1016C000F948FA4908600020F9490860F948FA49E0
:1016D00008600020F9490860F9490860F949086084
:1016E000F948067890F80180877890F803903046A2
:1016F00002F086FD8246214602F0D2FEF3490860E0
:1017000008460168F248006802F084FCF04908606D
:10171000F0480168ED48006802F0C2FEEE4908603A
:10172000EA480068EB490860EC49E948006802F0C3
:101730007BFE03D8E948E649086008E0E849E44848
:10174000006802F071FD02D8E548E1490860E2480E
:101750000168D948006802F09BFD0290DC480168EE
:10176000D348006802F094FD0190D8480168CF4842
:10177000006802F08DFD0090019902F04BFC834659
:10178000029902F047FC824602F0E6FCD549086067
:10179000384602F01DFDD449086008460168D34868
:1017A000006802F037FCD1490860D1480168CE4892
:1017B000006802F075FECF490860CB480068CC494C
:1017C0000860C649C948006802F02EFE03D8C34825
:1017D000C649086008E0C249C448006802F024FD18
:1017E00002D8BF48C1490860C2480168B5480068CE
:1017F00002F04EFD0290BD480168B148006802F059
:1018000047FD0190B8480168AC48006802F040FD0F
:101810000090019902F0FEFB8346029902F0FAFB68
:10182000824602F099FCB4490860AE48006800F2B4
:10183000FA5009680844B149086008460068B0F5E4
:10184000D26F03DB4FF4D260086008E0AB48006859
:1018500040F26451884202DC0846A849086040F220
:10186000FA50A64908600846008881B2A44801F0F1
:10187000D7FE404602F0C4FC8246294602F005FE2F
:10188000A0490860084601689F48006802F0C2FB52
:101890009D4908609D4801689A48006802F000FE72
:1018A0009B49086097480068984908608B499648AA
:1018B000006802F0B9FD03D888489349086008E041
:1018C00087499148006802F0AFFC02D884488E49ED
:1018D00008608F4801687848006802F0D9FC0290DF
:1018E000894801687248006802F0D2FC019085487E
:1018F00001686E48006802F0CBFC0090019902F08C
:1019000089FB8346029902F085FB824602F024FCA3
:1019100080490860484602F05BFC7F490860084641
:1019200001687E48006802F075FB7C4908607C48CD
:1019300001687948006802F0B3FD7A49086076488A
:1019400000687749086065497448006802F06CFDDA
:1019500003D862487149086008E061496F4800682F
:1019600002F062FC02D85E486C4908606D4801686C
:101970005448006802F08CFC0290684801685048A6
:10198000006802F085FC0190634801684B480068DC
:1019900002F07EFC0090019902F03CFB8346029924
:1019A00002F038FB824602F0D7FB5F4908605948D5
:1019B000006800F29650096808445C4908600846CF
:1019C000006840F22C61884203DB084657490860F2
:1019D00008E056480068B0F5A06F03DC4FF4A06043
:1019E000524908605148008881B2454801F01AFE0A
:1019F000BDE8FE8F2DE9F047DFF834A14D4D4E4C88
:101A0000DFF83881DFF838914E4805604E480460B1
:101A10002146006802F06CFB3BD13A48006802F0B6
:101A2000CDFA21F0004106460022484B02F036FA7A
:101A300027D22648006802F0C1FA21F0004106468C
:101A40000022424B02F02AFA1BD241480068401C97
:101A50003F49086008460068642805D300203D49D6
:101A6000086001203C49086039480068B0F5967F5D
:101A700012D30120394908604FF496703449086048
:101A80000AE00020334908603349086030490860A3
:101A900002E00020304908602B48016829480068AE
:101AA000FFF70AFEBDE8F0870000B040900000207C
:101AB000940000200000F041980000209C000020CD
:101AC000A0000020A40000202C00002038000020EE
:101AD0003C000020440000204000002000409C46C4
:101AE00000409CC678000020480000204C000020E8
:101AF00054000020500000207C00002080000020C6
:101B000000040040580000205C0000206400002019
:101B10006000002084000020680000206C0000208D
:101B20007400002070000020880000208C0000203D
:101B300000409C450000E84200004D430000E841A1
:101B40000000F242BC000020C00000200000244041
:101B5000C8000020AC000020B0000020CC00002015
:101B600010B50121084801F088FD60B10748006800
:101B7000012802D1FFF73EFF00E000BF00BF0121B6
:101B8000014801F08BFD10BD000C0040A8000020B2
:101B900010B56FF0040000F058FE2E4800682E4982
:101BA000B0FBF1F02D4908700846007800EB4001C9
:101BB000C1EBC0104FF6FF7101EAC0002849088050
:101BC00010BD0146254A12784A434FF0E0235A617E
:101BD00000229A611A46126942F001021A6100BF9E
:101BE0004FF0E022106900F001021AB100F48032D7
:101BF000002AF5D04FF0E022126922F001024FF0E6
:101C0000E0231A6100229A6170470146144A128843
:101C10004A434FF0E0235A6100229A611A46126942
:101C200042F001021A6100BF4FF0E022106900F09B
:101C300001021AB100F48032002AF5D04FF0E02200
:101C4000126922F001024FF0E0231A6100229A612A
:101C5000704700000000002000127A00D000002031
:101C6000D20000200948804709480047FEE7FEE708
:101C7000FEE7FEE7FEE7FEE7FEE7FEE7FEE7FEE73C
:101C800004480549054A064B704700002304000834
:101C900031010008480100204807002048030020C7
:101CA0004803002010B50446CC48844208D10121E5
:101CB000042000F02DFB0021042000F029FB46E069
:101CC000C748844208D10121082000F021FB0021EF
:101CD000082000F01DFB3AE0C248844208D10121EF
:101CE000102000F015FB0021102000F011FB2EE069
:101CF000BD48844208D10121202000F009FB0021C9
:101D0000202000F005FB22E0B848844208D10121E0
:101D1000402000F0FDFA0021402000F0F9FA16E022
:101D2000B348844208D10121802000F0F1FA00215B
:101D3000802000F0EDFA0AE0AE48844207D101218C
:101D4000801500F0E5FA0021A01500F0E1FA10BDC1
:101D500010B50121084600F0DBFA0021012000F057
:101D6000D7FA10BD2DE9F0410246002500260020DB
:101D700000230024002791F803C00CF00F0591F810
:101D800003C00CF0100CBCF1000F03D091F802C09E
:101D90004CEA050591F800C0BCF1000F31D0146881
:101DA00000202BE04FF0010C0CFA00F3B1F800C05A
:101DB0000CEA03069E4220D183004FF00F0C0CFA70
:101DC00003F7BC4305FA03FC4CEA040491F803C092
:101DD000BCF1280F06D14FF0010C0CFA00FCC2F840
:101DE00014C00AE091F803C0BCF1480F05D14FF0D0
:101DF000010C0CFA00FCC2F810C0401C0828D1D31A
:101E00001460B1F800C0BCF1FF0F34DD546800204D
:101E10002EE000F1080C4FF0010808FA0CF3B1F8BD
:101E200000C00CEA03069E4221D183004FF00F0C44
:101E30000CFA03F7BC4305FA03FC4CEA040491F8DE
:101E400003C0BCF1280F05D100F1080C08FA0CF80A
:101E5000C2F8148091F803C0BCF1480F07D100F11B
:101E6000080C4FF0010808FA0CF8C2F81080401C6A
:101E70000828CED35460BDE8F0814FF6FF71018091
:101E8000022181700421C1707047024600209368CE
:101E90000B400BB1012000E000207047014688682C
:101EA00080B2704702460020D3680B400BB101207E
:101EB00000E0002070470146C86880B270470161A9
:101EC0007047416170470AB1016100E041617047AC
:101ED000C16070474FF480320A4382618161826140
:101EE00082698269704702460020434B18684FF6AA
:101EF0008073184040EA021008433F4B1860704757
:101F00003E49C8617047F0B50A460023002400210D
:101F1000002500F00046B6F1004F02D1364EF169BF
:101F200001E0354E7168C0F3034583B200F44016FA
:101F3000B6F5401F08D121F070612F4E766826F06B
:101F400070662D4F7E6012E000F48016B6F5801F9B
:101F500006D1032606FA05F4A14341F0706106E0BC
:101F6000460D360103FA06F6B14341F0706122B125
:101F7000460D360103FA06F6314300F00046B6F18D
:101F8000004F02D11C4EF16101E01B4E7160F0BDAB
:101F900030B500228B071C0F0F2303FA04F2164BF7
:101FA00008338C1053F824309343134C08348D10AD
:101FB00044F8253023468C1053F824308C07240F26
:101FC00000FA04F423430C4C08348D1044F82530F7
:101FD00030BD0A49DC31086070470000000801404C
:101FE000000C0140001001400014014000180140A5
:101FF000001C014000200140000001400000204280
:10200000DF48006840F00100DD490860084640688C
:10201000DC490840DA49486008460068DA49084067
:10202000D74908600846006820F480200860084608
:10203000406820F4FE0048604FF41F00886070473D
:10204000CF49096821F48031CD4A116011460968F1
:1020500021F480211160B0F5803F03D0B0F5802FCE
:102060000ED106E0C649096841F48031C44A1160C6
:1020700007E0C349096841F4A021C14A116000E0AA
:1020800000BF00BF704710B50146002200230020AA
:102090004A11012A02D1BA4C236806E0022A02D171
:1020A000B74C236A01E0B64C636A01F01F020124B9
:1020B00094401C400CB1012000E0002010BD38B558
:1020C000002000900024002500BF3120FFF7DBFF37
:1020D00005460098401C00900098B0F5A06F01D014
:1020E000002DF2D03120FFF7CEFF08B1012400E02F
:1020F0000024204638BD01460020A14A106820F087
:10210000F80040EAC10010607047A04908607047BD
:10211000024600209A4B586820F47C1042EA0103E2
:102120001843974B586070479849086670470146B6
:102130000020934A506820F0030008435060704725
:102140008F48406800F00C007047014600208C4A20
:10215000506820F0F00008435060704701460020AE
:10216000874A506820F4E060084350607047014699
:102170000020834A506820F4605040EAC10050605B
:10218000704729B17E4A527A02437D4B5A7204E06D
:102190007B4A527A82437A4B5A7270477B49D831D4
:1021A0000860704701460020754A506820F440409E
:1021B0000843506070470021714A20321170704A04
:1021C00082F82010012802D004280AD104E001215D
:1021D0006B4A2032117005E00521694A20321170E6
:1021E00000E000BF00BF704769490860704764495C
:1021F000096A0143624A11627047654944390860BF
:10220000704730B500210022002400235C4D6D682A
:1022100005F00C0121B1042905D0082923D105E0DE
:102220005C4D056022E05B4D05601FE0544D6D681C
:1022300005F47012524D6D6805F48034022505EBEB
:1022400092421CB9544D554305600BE04C4D6D68EE
:1022500005F400351DB1504D5543056002E04D4D6C
:102260005543056002E04B4D056000BF00BF444D83
:102270006D6805F0F0010909484D6B5C0568DD40AB
:1022800045603F4D6D6805F4E061090A434D6B5CA4
:102290004568DD4085603A4D6D6805F46051C90AB6
:1022A0003E4D6B5C4568DD40C560354D6D6805F49D
:1022B0004041890B3A4D6B5CC568B5FBF3F5056190
:1022C00030BD29B12E4A526902432D4B5A6104E0B8
:1022D0002B4A526982432A4B5A61704729B1284AD6
:1022E00092690243264B9A6104E0254A926982432F
:1022F000234B9A61704729B1214AD2690243204B8E
:10230000DA6104E01E4AD26982431D4BDA617047EC
:1023100029B11B4AD2680243194BDA6004E0184A1B
:10232000D2688243164BDA60704729B1144A1269A9
:102330000243134B1A6104E0114A12698243104BA5
:102340001A61704712494039086070470F49C864E4
:1023500070470B49C87170470948406A40F0807067
:1023600007494862704701460020054A92680A40C2
:102370000AB1012000E000207047014988727047CF
:10238000001002400000FFF8FFFFF6FE000042428E
:102390008004424200127A0000093D00D40000206F
:1023A000E400002010B50446FB48844209D1012115
:1023B0008803FFF7ADFF00214FF48040FFF7A8FF2F
:1023C00032E0F648844209D101214804FFF7ADFF0D
:1023D00000214FF40030FFF7A8FF25E0F0488442C9
:1023E00009D101218804FFF7A0FF00214FF48020CC
:1023F000FFF79BFF18E0EB48844209D10121C80494
:10240000FFF793FF00214FF40020FFF78EFF0BE052
:10241000E548844208D101210805FFF786FF002125
:102420004FF48010FFF781FF10BD2DE9F04786B013
:1024300005460E460024A24600BFA1460027B089EB
:1024400000B100BF2F462C8A4CF6FF700440F08884
:1024500004432C82AC894EF6F3100440B0883189D5
:102460000843718908430443AC81AC8A4FF6FF40AE
:102470000440B0890443AC8201A8FFF7C2FEC648FD
:10248000874202D1DDF810A001E0DDF80CA0A88998
:1024900000F4004040B10AEBCA0000EB0A103168BA
:1024A0004900B0FBF1F807E00AEBCA0000EB0A10A4
:1024B00031688900B0FBF1F86420B8FBF0F004014A
:1024C0002009642101FB1089A88900F4004040B173
:1024D000322000EBC900B0FBF1F000F0070004432C
:1024E00008E0322000EB09106421B0FBF1F000F0AD
:1024F0000F0004432C8106B0BDE8F0874FF416515D
:10250000016000218180C18001810C214181002175
:102510008181704710B502460020108A4FF2FF03F8
:1025200018400B884C8823438C882343CC88234352
:102530001843108210BD0021018041808180C1803C
:10254000704721B1828942F40052828104E082897D
:102550004DF6FF731A4082817047F0B503460024A0
:1025600000260025002040F66A17B94200D100BFBE
:102570001846C1F3421401F01F06012707FA06F5B9
:10258000012C01D10C3004E0022C01D1103000E00C
:1025900014301AB107682F43076002E00768AF43A1
:1025A0000760F0BD1AB1838A0B43838202E0838AFD
:1025B0008B4383827047028A4FF6F0731A4002827F
:1025C000028A0A430282704782894FF2FF731A40DF
:1025D000828182890A438281704721B1828942F0D7
:1025E0000202828104E082894FF6FD731A408281E3
:1025F0007047028A4FF6DF731A400282028A0A434A
:102600000282704721B1028A42F48042028204E0D1
:10261000028A4BF6FF731A4002827047C1F3080228
:102620008280704701468888C0F30800704781891E
:1026300041F0010181817047028BD2B20283028B8B
:1026400042EA012202837047028B02F47F42028336
:10265000028B0A430283704721B1828A42F0200232
:10266000828204E0828A4FF6DF731A4082827047CA
:1026700021B1828A42F01002828204E0828A4FF6FF
:10268000EF731A408282704721B1828A42F00802B9
:10269000828204E0828A4FF6F7731A408282704782
:1026A00021B1828942F40042828103E08289C2F32F
:1026B0000E028281704721B1828A42F400628282D6
:1026C00004E0828A4FF2FF731A4082827047828A46
:1026D0004FF6FB731A408282828A0A4382827047D5
:1026E00021B1828A42F00202828204E0828A4FF69D
:1026F000FD731A408282704702460020B1F5007FC8
:1027000000D100BF13880B400BB1012000E0002076
:10271000704701F40072B2F5007F00D100BFCA43D8
:102720000280704770B50246002400230025002077
:1027300040F66A16B14200D100BFC1F3421501F064
:102740001F03012606FA03F3012D02D196893340B7
:1027500006E0022D02D1168A334001E0968A33400A
:102760000C12012606FA04F41688344013B10CB199
:10277000012000E0002070BD10B50022002340F6CB
:102780006A14A14200D100BF0A1201249440A3B2EE
:10279000DC43048010BD00000038014000440040CC
:1027A00000480040004C00400050004031490143C7
:1027B000314A1160704770B5002100230F22C478A0
:1027C00004B32D4C246804F4E064C4F5E064210AE9
:1027D000C1F10403CA40447804FA03F18478144038
:1027E00021430901254C0678A155047804F01F0502
:1027F0000124AC4005786D11AD0005F1E025C5F868
:10280000004109E0047804F01F050124AC401C4D90
:102810000678761145F8264070BD1A4A0A400243F0
:10282000154B1B1F1A60704739B1134A121D1268ED
:102830000243114B1B1D1A6006E00F4A121D12685D
:1028400082430D4B1B1D1A607047042808D14FF0BE
:10285000E021096941F004014FF0E022116107E035
:102860004FF0E021096921F004014FF0E0221161ED
:10287000704700000000FA050CED00E000E400E005
:1028800080E100E080FFFF1F10B50446FE4884424F
:1028900008D10121C014FFF73BFD0021E014FFF730
:1028A00037FDC4E0B4F1804F08D101210846FFF79D
:1028B0003CFD00210120FFF738FDB8E0F3488442D9
:1028C00008D101210220FFF730FD00210220FFF78F
:1028D0002CFDACE0EE48844208D101210420FFF732
:1028E00024FD00210420FFF720FDA0E0E9488442F8
:1028F00008D101210820FFF718FD00210820FFF76B
:1029000014FD94E0E448844208D101211020FFF72F
:102910000CFD00211020FFF708FD88E0DF4884420D
:1029200008D101212020FFF700FD00212020FFF722
:10293000FCFC7CE0DA48844208D101214014FFF716
:10294000E7FC00216014FFF7E3FC70E0D548844207
:1029500009D10121C804FFF7DBFC00214FF400205E
:10296000FFF7D6FC63E0D048844209D10121080575
:10297000FFF7CEFC00214FF48010FFF7C9FC56E0B2
:10298000CA48844209D101214805FFF7C1FC002152
:102990004FF40010FFF7BCFC49E0C548844208D161
:1029A00001214020FFF7C1FC00214020FFF7BDFCC2
:1029B0003DE0C048844208D101218020FFF7B5FCEA
:1029C00000218020FFF7B1FC31E0BB48844208D1F0
:1029D00001218015FFF7A9FC0021A015FFF7A5FC38
:1029E00025E0B648844209D101210804FFF790FC94
:1029F00000214FF48030FFF78BFC18E0B048844290
:102A000009D101214804FFF783FC00214FF4003075
:102A1000FFF77EFC0BE0AB48844208D1012188041B
:102A2000FFF776FC00214FF48020FFF771FC10BD0A
:102A300000220288944B98420ED0994B98420BD0BA
:102A4000B0F1804F08D0914B984205D0904B9842FE
:102A500002D0904B984204D14FF68F731A404B88A6
:102A60001A438D4B984207D08C4B984204D04FF6B6
:102A7000FF431A40CB881A4302808B8883850B88DA
:102A80000385814B98420BD0854B984208D08B4BE5
:102A9000984205D08A4B984202D08A4B984201D185
:102AA0000B7A038601238382704770B500240022CD
:102AB0000023058C4FF6FE7635400584028C838812
:102AC000048B4FF68F752C40B51E2C400D882C437F
:102AD000751E2A400D892A434D882A436A4DA84213
:102AE0000BD06F4DA84208D0744DA84205D0744D4C
:102AF000A84202D0734DA84213D14FF6F7752A4071
:102B00004D892A434FF6FB752A408D882A434FF69C
:102B1000FF652B404FF6FF552B408D892B43CD8908
:102B20002B4383800483CD888586028470BD70B575
:102B3000002400220023058C4FF6EF7635400584F3
:102B4000028C8388048B48F6FF752C404FF6FF45B6
:102B50002C400D884FF6FF7606EA05252C434FF6EC
:102B6000DF752A400D8906EA05152A434D8806EAD5
:102B700005152A43444DA84202D0494DA8421DD113
:102B80004FF67F752A404D894FF6FF7606EA051508
:102B90002A434FF6BF752A408D8806EA05152A4359
:102BA0004FF6FF352B404FF2FF752B408D8906EA1B
:102BB00085052B43CD8906EA85052B438380048355
:102BC000CD880587028470BD70B5002400220023E3
:102BD000058C4FF6FF6635400584028C8388848B14
:102BE0004FF68F752C404FF6FC752C400D882C430A
:102BF0004FF6FF552A400D894FF6FF7606EA052568
:102C00002A434D8806EA05252A431F4DA84202D0D3
:102C1000234DA8421DD14FF2FF752A404D894FF632
:102C2000FF7606EA05252A434FF6FF352A408D88B0
:102C300006EA05252A434EF6FF752B404DF6FF7533
:102C40002B408D8906EA05152B43CD8906EA05152B
:102C50002B4383808483CD888587028470BD70B5C3
:102C6000002200230024058C4EF6FF7635400584B3
:102C7000038C8488828B48F6FF752A404FF6FF4507
:102C80002A400D8820E00000002C01400004004094
:102C900000080040000C00400010004000140040FC
:102CA00000340140004C01400050014000540140FC
:102CB00000180040001C004000200040004001407F
:102CC00000440140004801404FF6FF7606EA052522
:102CD0002A434DF6FF752B400D8906EA05352B4337
:102CE0004D8806EA05352B43FA4DA84202D0FA4D2D
:102CF000A84208D14BF6FF752C408D894FF6FF7620
:102D000006EA85152C4384808283CD88A0F8405044
:102D1000038470BD828B4FF2FF331A408283828B13
:102D20004FF6FF7303EA01231A4382837047F0B51D
:102D30000C461546002200210026078C4EF6FF7C2B
:102D400007EA0C070784828B018C4FF6FF7707EAAE
:102D5000043640F6FF473A404FF6FF7707EA05276B
:102D60003A434FF6FF7707EA03373A43D94FB84261
:102D70000ED0D94FB8420BD0B0F1804F08D0D74F0A
:102D8000B84205D0D64FB84202D0D64FB84206D18D
:102D90004DF6FF77394046F48057394305E047F652
:102DA000FF57394044F48057394382830184F0BD92
:102DB000828B4FF6F3731A408283828B0A4382839D
:102DC0007047F0B50C461546002200210026078CFE
:102DD0004FF6FF6C07EA0C070784828B018C4FF6D5
:102DE000FF7707EA04264FF60C773A404FF6FF7755
:102DF00007EA03172F433A43B64FB8420ED0B64FF7
:102E0000B8420BD0B0F1804F08D0B44FB84205D0D3
:102E1000B34FB84202D0B34FB84206D14FF6FF5776
:102E2000394046F48077394305E04FF2FF57394087
:102E300044F48077394382830184F0BD028B4FF2E2
:102E4000FF331A400283028B4FF6FF7303EA01231C
:102E50001A4302837047F0B50C4615460022002144
:102E60000026078C4FF6EF7C07EA0C070784028BDD
:102E7000018C4FF6FF7707EA041640F6FF473A4009
:102E80004FF6FF7707EA03373A434FF6FF7707EA33
:102E900005273A438F4FB8420ED08F4FB8420BD020
:102EA000B0F1804F08D08D4FB84205D08C4FB8425A
:102EB00002D08C4FB84206D14FF6DF77394046F04A
:102EC0001007394305E04FF65F77394044F01007AB
:102ED000394302830184F0BD028B4FF6F3731A402D
:102EE0000283028B0A4302837047F0B50C461546F5
:102EF00000220021068C4FF6FE773E400684028BAE
:102F0000018C4FF60C7632407E1C06EA03162E43E7
:102F10003243704EB0420ED06F4EB0420BD0B0F183
:102F2000804F08D06D4EB04205D06D4EB04202D0F9
:102F30006C4EB04206D14FF6FD76314044F00106AA
:102F4000314305E04FF6F576314044F00106314358
:102F500002830184F0BD70B505460C465D4885428C
:102F60000ED05D4885420BD0B5F1804F08D05B484C
:102F7000854205D05A48854202D05A48854200D140
:102F800000E000BF208850B92389A28861882846C4
:102F9000FFF7ABFFE1882846FFF79EFF25E020887A
:102FA00004280AD12389A28861882846FFF753FFA5
:102FB000E1882846FFF742FF17E0208808280AD159
:102FC0002389A28861882846FFF7FBFEE18828460E
:102FD000FFF7EEFE09E02389A28861882846FFF703
:102FE000A6FEE1882846FFF795FE70BD2DE9F04169
:102FF00005460C4600260127608808B9022600E035
:103000000026A088012801D1022700E0012720889E
:10301000A0B92389A28861882846FFF766FFE18866
:103020002846FFF759FF23893A4631462846FFF7DD
:1030300012FFE1882846FFF701FF13E02389A288E9
:1030400061882846FFF707FFE1882846FFF7F6FE6C
:1030500023893A4631462846FFF747FFE18828464C
:10306000FFF73AFFBDE8F0810A884B881A438B8846
:103070001A43CB881A430B891A434B891A438B890D
:103080001A43A0F8442070474FF6FF718180002159
:103090000180C18041800172704700210180418020
:1030A0008180C180018141818181C181704700217E
:1030B00001804180012181800021C1800181704710
:1030C0000021018041808180C18001814181818115
:1030D00070470000002C0140003401400004004013
:1030E00000080040000C004021B1028842F00102BB
:1030F000028004E002884FF6FE731A400280704797
:1031000031B1B0F8442042F40042A0F8442005E078
:10311000B0F84420C2F30E02A0F8442070471AB160
:1031200083890B43838102E083898B4383817047CA
:103130008182704741EA0203A0F8483070471AB113
:1031400083890B43838102E083898B4383817047AA
:1031500001894FF6F8721140018170470A4600213B
:1031600001894FF68F73194011430181704730B5C3
:1031700004460D4629462046FFF7F0FF208940F01F
:103180000700208130BD2DE9F04104460D4616466A
:103190001F46602D06D13B46012231462046FFF7EF
:1031A0005AFE05E03B46012231462046FFF79DFED0
:1031B00029462046FFF7D2FF208940F007002081F2
:1031C000BDE8F08130B50C4600210189C9B24FF647
:1031D000FF7505EA0325154325432943018130BDC9
:1031E0002DE9F04105460E46174698460024434611
:1031F0003A4631462846FFF7E5FF2C894FF6F8702E
:10320000044044F007044FF68F70044044F070040B
:103210002C81BDE8F081F0B504460D4616461F46E8
:103220003B46324629462046FFF7CCFF208940F432
:1032300080402081F0BD0185828270470A460021CE
:1032400001884FF68F731940114301807047F0B524
:103250000C4615461E460021002200230189028BE0
:10326000038C4FF6F877394021434FF6FC473A403C
:1032700040F201173A434FF6DD773B404FF6FF77B8
:1032800007EA06172F433B43018102830384F0BD05
:103290000A460021018B4FF68F73194011430183B9
:1032A00070470A460021018B48F6FF7319404FF61C
:1032B000FF7303EA02231943018370470A46002182
:1032C000818B4FF68F7319401143818370470A46F3
:1032D0000021818B48F6FF7319404FF6FF7303EA14
:1032E000022319438183704721B1028842F0800292
:1032F000028004E002884FF67F731A400280704714
:1033000021B1828842F00402828004E082884FF674
:10331000FB731A408280704721B1828842F0080214
:10332000828004E082884FF6F7731A4082807047EB
:1033300021B1828842F00102828004E082884FF647
:10334000FE731A40828070470A460021018B4FF6B7
:10335000F77319401143018370470A460021018B1E
:103360004FF2FF7319404FF6FF7303EA022319432C
:10337000018370470A460021818B4FF6F77319408D
:103380001143818370470A460021818B4FF2FF73FE
:1033900019404FF6FF7303EA0223194381837047F4
:1033A0000A460021018B4FF6FB731940114301833C
:1033B00070470A460021018B4FF6FF3319404FF644
:1033C000FF7303EA02231943018370470A46002171
:1033D000818B4FF6FB7319401143818370470A4676
:1033E0000021818B4FF6FF3319404FF6FF7303EA3C
:1033F00002231943818370470A460021018B4FF64F
:103400007F7319401143018370470A460021018BE5
:10341000C1F30E014FF6FF7303EA02231943018340
:1034200070470A460021818B4FF67F731940114384
:10343000818370470A460021818BC1F30E014FF64C
:10344000FF7303EA02231943818370470A46002170
:10345000018C4FF6FD7319401143018470470A46F1
:103460000021018C4FF6F773194011430184704716
:103470000A460021018C4FF6DF7319404FF6FF73A7
:1034800003EA02131943018470470A460021018CA4
:103490004FF67F7319404FF6FF7303EA0213194387
:1034A000018470470A460021018C4FF6FF531940F2
:1034B0004FF6FF7303EA02231943018470470A465B
:1034C0000021018C4FF2FF7319404FF6FF7303EA9E
:1034D00002231943018470470A460021018C4DF6EE
:1034E000FF7319404FF6FF7303EA02331943018457
:1034F000704730B5002301248C40A3B2048C9C4358
:103500000484048C02FA01F5ADB22C43048430BD6E
:1035100030B5002304248C40A3B2048C9C43048463
:10352000048C02FA01F5ADB22C43048430BD70B5B1
:103530000346002000241846183001258D40ACB207
:103540001D8CA5431D8409B1082909D100EB610038
:10355000056825F0700505600568154305600EE0F7
:103560000D1FC5F34E052844056825F4E0450560A8
:1035700005684FF6FF7606EA02263543056070BD02
:1035800021B1028842F00202028004E002884FF674
:10359000FD731A400280704721B1028842F0040294
:1035A000028004E002884FF6FB731A4002807047E5
:1035B00021B1828842F08002828004E082884FF646
:1035C0007F731A408280704702884FF6F7731A4063
:1035D000028002880A430280704782884FF68F7308
:1035E0001A40828082880A438280704702894FF69F
:1035F000F8731A40028102890A43028170470289E6
:103600004FF67F731A40028102890A430281704794
:103610008184704781857047818670470187704734
:1036200081877047A0F84010704702884FF6FF432B
:103630001A40028002880A43028070470146888E41
:1036400070470146088F70470146888F70470146D2
:10365000B1F8400070470146888C70470146088DDC
:10366000704702460020138A0B400BB1012000E096
:1036700000207047CA430282704730B502460020DE
:1036800000230024158A05EA0103958905EA01044F
:1036900013B10CB1012000E0002030BDCA4302820A
:1036A0007047000001460020FE4A106800F0380014
:1036B000084310607047FB49096821F00801F94A86
:1036C000116011460968014311607047F5490968A6
:1036D00021F01001F34A116011460968014311609D
:1036E0007047F148EF494860F04848607047EE483D
:1036F000EC494860ED4848607047EA48006940F08E
:103700008000E84908617047E648006940F08000A1
:10371000E449086170470420E249C96801F00101E9
:1037200009B101200EE0DF49C96801F0040109B1C7
:10373000022007E0DB49C96801F0100109B103204C
:1037400000E00420704700B502460423FFF7E3FFC2
:10375000034603E0FFF7DFFF0346521E012B01D1B2
:10376000002AF7D102B90523184600BD30B504463A
:1037700004254FF43020FFF7E6FF0546042D17D14E
:10378000C848006940F00200C64908610846446123
:10379000006940F0400008614FF43020FFF7D3FF8C
:1037A0000546C048006941F6FD710840BD49086101
:1037B000284630BD10B504244FF43020FFF7C3FF76
:1037C0000446042C16D1B748006940F00400B549FE
:1037D00008610846006940F0400008614FF430205D
:1037E000FFF7B1FF0446AF48006941F6FB7108409E
:1037F000AC490861204610BD00B502460423FFF71E
:103800008AFF034603E0FFF786FF0346521E012BA3
:1038100001D1002AF7D102B90523184600BD10B521
:1038200004244FF43020FFF7E7FF0446042C16D1A0
:103830009C48006940F004009A4908610846006904
:1038400040F0400008614FF43020FFF7D5FF0446F8
:103850009448006941F6FB7108409249086120468E
:1038600010BD00208F49C96901F0020109B1012092
:1038700000E00020704730B5A5250424FFF7F1FFD4
:1038800000B100254FF43020FFF75DFF0446042C03
:103890003AD1854883498860844888600846006931
:1038A00040F0200008610846006940F040000861CF
:1038B0004FF43020FFF747FF0446042C1BD1794812
:1038C000006941F6DF7108407649086108460069E1
:1038D00040F01000086176480580E002FFF733FFF2
:1038E0000446052C10D06F48006941F6EF7108407E
:1038F0006C49086108E0052C06D06A48006941F669
:10390000EF71084067490861204630BD78B506462A
:103910000C46042500200090E802FFF714FF05463E
:10392000042D24D15F48006940F001005D49086121
:103930003480E802FFF707FF0546042D10D1B01CC4
:103940000090200C00990880E802FFF7FCFE054675
:103950005448006941F6FE7108405249086106E08A
:103960005048006941F6FE7108404E4908612846FA
:1039700078BD70B504460D460426F002FFF7E3FE5D
:103980000646042E11D14748006940F00100454920
:1039900008612580F002FFF7D6FE0646414800691F
:1039A00041F6FE7108403F490861304670BD70B570
:1039B00005460E460424E002FFF7C5FE0446042C2B
:1039C00017D1394837498860384888600846006907
:1039D00040F0100008612E80E002FFF7B4FE0446BC
:1039E000052C06D02F48006941F6EF7108402D499B
:1039F0000861204670BD2DE9F04304464FF6FF767E
:103A00003746B046B1460425E443E6B2C4F307277F
:103A1000C4F307484FEA1469E802FFF794FE05462D
:103A2000042D49D120481F498860204888600846F5
:103A3000006940F010000861FF2E06D01C480830D5
:103A40000680E802FFF77FFE0546042D08D1FF2F10
:103A500006D017480A300780E802FFF774FE0546D3
:103A6000042D0AD1B8F1FF0F07D011480C30A0F88F
:103A70000080E802FFF767FE0546042D0AD1B9F180
:103A8000FF0F07D00A480E30A0F80090E802FFF7B9
:103A90005AFE0546052D0FD00248006941F6EF7128
:103AA000084007E00020024023016745AB89EFCDC5
:103AB00000F8FF1F664908612846BDE8F08330B56D
:103AC000054604244FF43020FFF73DFE0446042C45
:103AD00041D160485E4988605F4888600846006957
:103AE00040F0200008610846006940F0400008618D
:103AF0004FF43020FFF727FE0446042C22D154480F
:103B0000006941F6DF7108405149086108460069C3
:103B100040F0100008611DB100205049088002E00B
:103B2000A5204E4908804FF43020FFF70CFE0446D4
:103B3000052C10D04648006941F6EF710840444911
:103B4000086108E0052C06D04148006941F6DF71A4
:103B500008403F490861204630BDF0B505460E4695
:103B6000174604243B483A4988603B488860E00295
:103B7000FFF7E9FD0446042C19D13548006940F0EF
:103B800010003349086147F0F800304328433349B7
:103B9000891C0880E002FFF7D6FD0446052C06D0FC
:103BA0002B48006941F6EF71084029490861204619
:103BB000F0BD2748C069800870472548006A7047F3
:103BC00000202349096801F0200109B1012000E02B
:103BD0000020704729B11E4A126902431C4B1A612A
:103BE00004E01B4A12698243194B1A61704701466F
:103BF0000020012908D1164AD26902F001020AB157
:103C0000012008E0002006E0114AD2680A400AB10B
:103C1000012000E0002070470D49C8607047042073
:103C20000B49C96801F0010109B101200EE0084902
:103C3000C96801F0040109B1022007E00449C9681C
:103C400001F0100109B1032000E0042070470000DA
:103C50000020024023016745AB89EFCD00F8FF1F2C
:103C6000002044490860091D0860091D0860091DFD
:103C7000086041483F4914310860704700213D49C0
:103C80008279002A3AD00A46126803689A430B46A2
:103C90001A600A1D126803689A430B1D1A600279A4
:103CA00011440A6803681A430A60324A08321268EB
:103CB00003689A432F4B08331A601A1D1268036871
:103CC0009A432C4B0C331A604279102A0ED11A1FDA
:103CD000126803681A43274B08331A601A1D1268CA
:103CE00003681A43234B0C331A600DE021494279D3
:103CF00011440A6803681A430A6005E00279114416
:103D00000A6803689A430A607047002101600171E4
:103D10000C214171002181717047164910310968E9
:103D20000143144A10321160704701460020114AC5
:103D3000143212680A400AB1012000E000207047E6
:103D40000C49143108607047014600200022094BDD
:103D50001B6803EA0102074B14331B680B4013B1C5
:103D60000AB1012000E000207047024914310860C8
:103D70007047000000040140FFFF0F007047000083
:103D80000FB4044910B503AA029800F009F810BC5A
:103D90005DF814FB140000207047704770477047AF
:103DA000074B70B50D467B4400F011F804462846D9
:103DB00000F020F810B14FF0FF3070BD204670BD0C
:103DC00081C7FFFF01694A1C02610878704700B58E
:103DD0008FB0CDE901310021059105497944CDE944
:103DE00003101146684600F02EF80FB000BD000029
:103DF000E5FFFFFF007B00F080007047754600F094
:103E00003DF8AE4605006946534620F0070085465A
:103E100018B020B5FDF734FFBDE820404FF0000694
:103E20004FF000074FF000084FF0000B21F00701A2
:103E3000AC46ACE8C009ACE8C009ACE8C009ACE8E5
:103E4000C0098D4670472DE9F04106460024D6E9A9
:103E50000170F5688046304603E04146B847641C6F
:103E60003046A8470028F8D12046BDE8F081044636
:103E7000AFF300802046FCF7A2F90000004870472D
:103E8000E8000020491058BFC1F140415B1058BF05
:103E9000C3F140438B42EFF30080704751EA030CBB
:103EA00017D41CF5801F58BFBCF5801F00F1068099
:103EB000994218BF704708BF9042704707D711F565
:103EC000801F58BF13F5801F19D49942704789424B
:103ED00070471CF5801F08D5BCF5801FF7D58B42B5
:103EE00018BF704708BF824270474FF4001C1CEB9C
:103EF000410F38BF1CEB430F01D28B42704770B5A6
:103F000000F008F8922449004FF000514FF0805320
:103F1000FFF7B8BF0EF1020E2EF0030E5EF8046B31
:103F2000364205D4012A43EB030515F5001F12D8CC
:103F3000012841EB010C1CF5001F0CD80ED14FEAF3
:103F4000D17C15F5001F0CEB4C0C0CF1020C08BFDA
:103F50004CEBD37C04E04FF0080C01E04FEAD37C3B
:103F60000CEB4C0526FA05F606F00706B6F1040C34
:103F700006D20EEB860CBDE870404CF0010C604799
:103F8000DFE80CF0090B02024FF000414FF0000097
:103F9000A1F5002170BD19461046012851EB01041E
:103FA00018BFD4F5001484BF002001F0004170BD9B
:103FB0000808A0F500114FEA3101704743004FEAAD
:103FC000D30C4FEA3C0C43401FBF40070CF160513B
:103FD00013F0FE4F70471CF0006F03D100200CF06F
:103FE000004170470CF0004343EA507010B540EABE
:103FF000CC0000F0CEF900BF000000924FEA0001B3
:10400000FFF7D6BF4FF000414FF00000A1F50021AF
:104010007047000090EA010F48BF81F0004100F1B5
:104020004682421A3CBF801A89184FEAD0524FF09C
:104030007F4C1CEA410FA2EBD15318BF9CEA026FE0
:1040400000F03B804FF0004C4CEA00204CEA01218C
:1040500021FA03FC10EB0C0C1ED202F1FF325FEAD6
:104060001C2040EBC25038BF70471CF07F0F4FEA56
:10407000400C18BFBCF17F4F38BF7047C3F120031D
:10408000994008BF20F00100BCF17F4F38BF704756
:10409000A0F1C04000F0C3B94FEA3C00000A40EB79
:1040A000C25028BF1CF0FF0F4FEA400CE6D018BFEB
:1040B000BCF17F4F38BF7047EAE79CEA026F05D03A
:1040C00010EA5C0F08BF00F00040704710B500F028
:1040D00060F900BF64FBBE3E401058BFC0F14040D5
:1040E000491058BFC1F140418142EFF30080704751
:1040F00050EA010C00F113801CF5000F58BFBCF50D
:10410000000F01D48842704707D710F5000F58BF41
:1041100011F5000F15D488427047894270471CF58D
:10412000000F04D5BCF5000FF7D5814270474FF062
:10413000807C1CEB400F38BF1CEB410F01D2814249
:10414000704710B500F025F9922449004FF0005057
:104150004FF08051FFF7C0BF41000B0ED3F19E021C
:1041600008D950F400034FEA032323FA02F048BFB2
:104170004042704710B500F00CF900BF499224800E
:10418000002070476FF0004282EA20007047000074
:10419000C10DD1F19E0206DB4FEA002343F000433C
:1041A00023FA02F07047004207D54FEA4001B1F10F
:1041B000FE4F02D24FF00000704710B500F0E9F852
:1041C00049922480002070476FEA20007047000069
:1041D00010F0004148BF4042B0FA80F310FA03F2F9
:1041E000C3F19D030BD051EAC35101EB12205306DA
:1041F00038BF704700F1010008BF20F00100704790
:10420000B0FA80F310FA03F2C3F19D030AD0D90586
:1042100001EB1220530638BF704700F1010008BFC0
:1042200020F001007047000050EA010C00F11380FB
:104230001CF5000F58BFBCF5000F01D48842704731
:1042400007D710F5000F58BF11F5000F15D488429D
:104250007047894270471CF5000F04D5BCF5000F6C
:10426000F7D5814270474FF0807C1CEB400F38BF80
:104270001CEB410F01D28142704710B500F089F864
:10428000922449004FF000504FF08051FFF724BFB7
:104290004FF47F0C1CEAD0121EBF1CEAD11392EA25
:1042A0000C0F93EA0C0F00F0478090EA010F48BF13
:1042B00042F480724FF0004C4CEA00204CEA01219D
:1042C00002EB0302A0FB0113A2F50002002918BFB4
:1042D00043F001035B0028BF4FEA330342EB224265
:1042E0005FEA132C4CEBC2502EBFBCEB436FB2F510
:1042F0007C0F70474FEA036CBCF1004F08BF20F001
:104300000100B2F57C0F38BF70470BD582F0FF0279
:1043100012F5803FC8BF704700F1C040D8BF00F021
:104320000040704700F5000C5FEA4C0C48BF704736
:10433000B0F1C04000F073B890EA010F0CEAD1135D
:1043400048BF42F48072624538BF634504D280EAB8
:10435000010000F00040704710B500F01AF800BFEF
:104360008900013E00F007B800F009B85FEA410C8F
:104370005FEA1C6C08D080EA010000F050B85FEAE8
:10438000400C5FEA1C6CF6D14FF00040A0F58000B5
:1043900070470EF1020E2EF0030E5EF8044B24421D
:1043A00004D44FEA4102B2F17F4F11D84FEA4003E3
:1043B000B3F17F4F0CD80ED14FEAD07CB2F17F4FD2
:1043C0000CEB4C0C0CF1020C08BF4CEBD17C04E064
:1043D0004FF0080C01E04FEAD17C0CEB4C0324FABF
:1043E00003F404F00704B4F1040C06D20EEB840CC1
:1043F000BDE810404CF0010C6047DFE80CF0070806
:1044000002024FF00040A0F5800010BD08464200B7
:1044100018BFD2F1807288BF00F0004010BDFF21AC
:1044200041EAD050C005704751EA000C00F11380FA
:104430001CF5000F58BFBCF5000F01D48142704736
:1044400007D711F5000F58BF10F5000F15D48142A2
:104450007047894270471CF5000F04D5BCF5000F6A
:10446000F7D5884270474FF0807C1CEB410F38BF76
:104470001CEB400F01D28842704780EA010081EABC
:10448000000180EA0100FFF7F8BE80F0004090EAEA
:10449000010F7FF5C6AD81F0004100F008B80000C3
:1044A00090EA010F48BF81F000413FF5BAAD421AD2
:1044B00004D882F00042A0EB020011444FEAD0522F
:1044C0004FF07F4C1CEA410FA2EBD15318BF9CEA7E
:1044D000026F4AD04FF0004C4CEA00204CEA012118
:1044E00021FA03FCB0EB0C0C0FD412F0FE0F36D007
:1044F0005FEA4C001DD5001240EBC25038BF704738
:104500001CF03F0F18BF70470BE0A2F101025FEAF9
:104510001C2040EBC25038BF70471CF07F0F18BF03
:104520007047C3F12003994014BF401E20F00100E2
:10453000704780084FEA122308BF7047B0FA80FC2A
:10454000A2EB0C02CCF1280C60FA0CF093EA122FCB
:1045500004BF00EBC25070474FEAC3707047130AA4
:104560005FEADC1008BF7047F6E79CEA026F04D0F0
:1045700010EA5C0F08BF0020704710B5FFF709FF75
:1045800040DFF63E81F00040704700000000000070
:1045900000000000000000000000000038FCFC38B3
:1045A00000000000000D0D000000000E1E00001EA7
:1045B0000E00000000000000000020F8F820F8F8CD
:1045C0002000020F0F020F0F0200387C444747CC37
:1045D0009800060C0838380F070030300080C060A3
:1045E00030000C060301000C0C0080D87CE4BCD821
:1045F0004000070F0808070F080000101E0E0000FB
:10460000000000000000000000000000F0F80C04B2
:104610000000000003070C0800000000040CF8F084
:1046200000000000080C0703000080A0E0C0C0E00C
:10463000A0800002030101030200008080E0E0800E
:1046400080000000000303000000000000000000E4
:1046500000000000101E0E0000008080808080801E
:1046600080000000000000000000000000000000CA
:1046700000000000000C0C00000000000080C06082
:1046800030000C06030100000000F8F80CC40CF820
:10469000F00003070C080C070300001018FCFC00D6
:1046A00000000008080F0F080800080C84C4643CD0
:1046B00018000E0F0908080C0C00080C444444FCB8
:1046C000B800040C0808080F0700C0E0B098FCFC14
:1046D0008000000000080F0F08007C7C444444C4A4
:1046E0008400040C0808080F0700F0F84C4444C08C
:1046F0008000070F0808080F07000C0C0484C47C16
:104700003C0000000F0F00000000B8FC444444FCD3
:10471000B800070F0808080F0700387C444444FC21
:10472000F800000808080C07030000000030300003
:10473000000000000006060000000000003030000D
:1047400000000000080E060000000080C060301865
:10475000080000000103060C080000202020202093
:10476000200000010101010101000008183060C0B3
:10477000800000080C0603010000181C04C4E43C7F
:1047800018000000000D0D000000F0F008C8C8F887
:10479000F000070F080B0B0B0100E0F0988C98F06D
:1047A000E0000F0F0000000F0F0004FCFC4444FC6D
:1047B000B800080F0F08080F0700F0F80C04040CED
:1047C000180003070C08080C060004FCFC040CF895
:1047D000F000080F0F080C07030004FCFC44E40C75
:1047E0001C00080F0F08080C0E0004FCFC44E40C2D
:1047F0001C00080F0F0800000000F0F80C84848CE7
:10480000980003070C0808070F00FCFC404040FC20
:10481000FC000F0F0000000F0F00000004FCFC0460
:1048200000000000080F0F08000000000004FCFC5E
:104830000400070F08080F07000004FCFCC0E03C60
:104840001C00080F0F00010F0E0004FCFC04000008
:104850000000080F0F08080C0E00FCFC387038FC34
:10486000FC000F0F0000000F0F00FCFC3870E0FC94
:10487000FC000F0F0000000F0F00F8FC040404FC04
:10488000F800070F0808080F070004FCFC44447CEC
:104890003800080F0F0800000000F8FC040404FCB6
:1048A000F800070F080E3C3F270004FCFC44C4FC42
:1048B0003800080F0F00000F0F00183C6444C49C20
:1048C0001800060E0808080F0700001C0CFCFC0C62
:1048D0001C000000080F0F080000FCFC000000FC9A
:1048E000FC00070F0808080F0700FCFC000000FC94
:1048F000FC000103060C06030100FCFC000000FCA8
:10490000FC00070F0E030E0F07000C3CF0E0F03C1C
:104910000C000C0F0301030F0C00000C7CC0C07CCA
:104920003C000000080F0F0800001C0C84C4643C0D
:104930001C000E0F0908080C0E000000FCFC04040B
:10494000000000000F0F080800003870E0C0800071
:1049500000000000000103070E0000000404FCFC3E
:104960000000000008080F0F0000080C0603060CEA
:10497000080000000000000000000000000000002F
:104980000000202020202020202000000307040019
:104990000000000000000000000000A0A0A0E0C097
:1049A0000000070F0808070F080004FCFC2060C087
:1049B0008000000F0F08080F0700C0E020202060D3
:1049C0004000070F0808080C040080C06024FCFCAD
:1049D0000000070F0808070F0800C0E0A0A0A0E033
:1049E000C000070F0808080C040040F8FC440C182D
:1049F0000000080F0F0800000000C0E02020C0E009
:104A00002000276F48487F3F000004FCFC4020E066
:104A1000C000080F0F00000F0F00000020ECEC009A
:104A200000000000080F0F0800000000000020EC4C
:104A3000EC0000307040407F3F0004FCFC80C06010
:104A40002000080F0F01030E0C00000004FCFC0006
:104A500000000000080F0F080000E0E060C060E008
:104A6000C0000F0F0007000F0F0020E0C02020E063
:104A7000C000000F0F00000F0F00C0E0202020E05A
:104A8000C000070F0808080F070020E0C02020E042
:104A9000C000407F7F48080F0700C0E02020C0E032
:104AA0002000070F08487F7F400020E0C06020E022
:104AB000C000080F0F080000000040E0A0202060A8
:104AC0004000040C09090B0E04002020F8FC2020F3
:104AD00000000000070F080C0400E0E00000E0E028
:104AE0000000070F0808070F080000E0E00000E0E2
:104AF000E0000003070C0C070300E0E0008000E08A
:104B0000E000070F0C070C0F07002060C080C0609A
:104B10002000080C0703070C0800E0E0000000E09C
:104B2000E000474F4848683F1F00606020A0E060F9
:104B300020000C0E0B09080C0C00004040F8BC04CF
:104B40000400000000070F080800000000BCBC00C3
:104B500000000000000F0F000000000404BCF8403B
:104B600040000008080F07000000080C040C080CA7
:104B70000400000000000000000000000000000031
:104B8000004F00000007000700147F147F14242A40
:104B90007F2A122313086462364955225000050704
:104BA0000000001C2241000041221C0014083E08A5
:104BB0001408083E080800503000000808080808DB
:104BC000006060000020100804023E5149453E008C
:104BD000427F400042615149462141454B31181402
:104BE000127F1027454545393C4A49493001710932
:104BF00005033649494936064949291E003636001B
:104C00000000563600000814224100141414141435
:104C100000412214080201510906324979413E7EC1
:104C20001111117E7F494949363E414141227F4160
:104C300041221C7F494949417F090909013E4149F7
:104C4000497A7F0808087F00417F41002040413FAA
:104C5000017F081422417F404040407F020C027FC8
:104C60007F0408107F3E4141413E7F090909063E0D
:104C70004151215E7F0919294646494949310101BF
:104C80007F01013F4040403F1F2040201F3F4038F0
:104C9000403F6314081463070870080761514945D1
:104CA00043007F41410002040810200041417F0081
:104CB0000402010204404040404001020400002080
:104CC000545454787F484848303844444444304829
:104CD00048487F385454545800087E0902485454B8
:104CE000543C7F0808087000007A00002040403DD6
:104CF000007F2028440000417F40007C0438047C71
:104D00007C0804047838444444387C14141408089B
:104D10001414147C7C0804040848545454240404D7
:104D20003F44243C4040403C1C2040201C3C403040
:104D3000403C442810284404483008044464544C3F
:104D40004408364141000000770000004141360828
:104D50000402020201000000000000000000000048
:104D60000000000000000000000000000000000043
:104D70000000000000000000000000000000000033
:104D80000000000000000000000000000000000023
:104D90000000000000000000000000000000000013
:104DA0000000000000000000000000000000000003
:104DB00000000000000000000000000000000000F3
:104DC00000000000000000000000000000000000E3
:104DD00000000000000000000000000000000000D3
:104DE00000000000000000000000000000000000C3
:104DF00000808000000000000000000000000000B3
:104E000000807008000000000000000000080000A2
:104E100080080000100000001000000010000000DA
:104E200010000000100000001000001C1E1E1E1CC0
:104E3000000010000000080008008088804404047E
:104E40000000000000000000000000000000000062
:104E50000000000000000000000000000000000052
:104E600000000000000000008000000000000008BA
:104E70000908000000000000C04000002020203091
:104E80000C030000000808C0004040202030101033
:104E900002252720202020200020002000002000C4
:104EA0000210D05038303028202444420040000006
:104EB00000000008000010002000400080808000FA
:104EC00000000000000000000000000000000000E2
:104ED00000000000000000000000000000000000D2
:104EE00000000000000006030100000000000000B8
:104EF00000E0180C06030609312020204000400085
:104F00000000000000004080070C080808000000B6
:104F10008000000000000000000000000000000011
:104F2000807900C0000000000000000000000000C8
:104F300000000006708000000000000000008041BA
:104F40001100000000000000000000000000000050
:104F50000000000000000000000000000000000051
:104F6000000000000000000006E8800000000000D3
:104F70000000010100010000000000000000001816
:104F80001010200020003011363858505808569123
:104F90009890808080800009030A0A080084868136
:104FA00002040409080800000000000000000000DE
:104FB00008180000000708080808040400010000A1
:104FC00000000000000000000000000000000000E1
:104FD00000000000000000000000000000000000D1
:104FE00000000000000000000000010101000000BE
:104FF00000000000000000000000000000000000B1
:105000000000000406000000000000000000000096
:105010000000000000040008000008000008000074
:105020000901010901090109000804070000000045
:105030000000000000000000000000000000000070
:105040000000000000000000000000000000000060
:105050000000000000000000000000000000000050
:105060000000000000000000000000000000000040
:105070000000000000000000000000000000000030
:105080000000000000000000000000000000000020
:105090000000000000000000000000000000000010
:1050A0000000000000000000000000000000000000
:1050B00000000000000000000000000000000000F0
:1050C00000000000000000000000000000000000E0
:1050D00000000000000000000000000000000000D0
:1050E00000000000000000000000000000000000C0
:1050F00000000000000000000000000000000000B0
:10510000000000000000000000000000000000009F
:10511000000000000000000000000000000000008F
:10512000000000000000000000000000000000007F
:10513000000000000000000000000000000000006F
:10514000000000000000000000000000000000005F
:105150000000000000000000000080C0404040400F
:105160008080C00000004040C0C040404040C0803F
:10517000800000000000E0FC0E03000000000000C2
:105180000001030C00000000FFFF00000000000011
:10519000010FFEF000001FFFE00000000000000013
:1051A0000000806000000000FFFF00000000000021
:1051B00000E07F1F00000000010302040404040457
:1051C00002030100000004040707040404040602AB
:1051D000030100000000000040404040C0C04040CB
:1051E00040400000000000000080804040404080BF
:1051F000800000000000000000000000FFFF000031
:10520000000000000000F0FC0F01000000000000A2
:10521000010FFCF00000000000000000FFFF000094
:105220000000000000001F7FE00000000000000000
:1052300000C07F1F000000000404040407070404EA
:10524000040400000000000001030204040404023E
:1052500003010000000000000000C000000000008A
:10526000000000041C787000000000000000000036
:105270008080000000000000080E0F818181010580
:10528000197971010101FDFD090101010101090700
:1052900003010100000000002020202020232F2EE9
:1052A00020202020A0F8BF23202020202020201014
:1052B000181810000000000040404040202030102E
:1052C000180C0C0703010001010306060C1C3C78B6
:1052D000200000000000000000206020202020208E
:1052E00020202020202020202020202020E0F0202E
:1052F00000000000000000000000000000000002AC
:10530000040C1878700000000000000000FFFF008F
:10531000000000000000000080808080C0C0C060ED
:1053200020301010080804040202020000FFFF00F1
:105330000000000000000000000103010100000067
:10534000000000000000040808081838381F070093
:10535000000000000000000000000000000000004D
:10536000000000000000000000000000000000003D
:10537000000000000000000000000000000000002D
:10538000000000000000000000000000000000001D
:10539000000000000000000000000000000000000D
:1053A00000000000000000000000000000000000FD
:1053B00000000000000000000000000000000000ED
:1053C00000000000000000000000000000000000DD
:1053D0000000000000302E39364F4C4544D2BABE92
:1053E000A7C4A3BFE900D7AACBD9B5E7C1F7B7B423
:1053F000C0A1B8F8C9E8B6A8B0B4BCFCCFD4CABE46
:10540000CBB5C3F7BCD3BCF5C8B7B6A8B7ADD2B35C
:1054100000C8B88FE88888404848E85F4848484056
:1054200000081808FF040400020B1222D20A06002A
:1054300000404042CC0004F49494FF9494F404009F
:10544000000040201F20484442415F414244484000
:10545000000000F888888888FF88888888F800001D
:105460000000001F080808087F888888889F80F04F
:10547000001060028C004464544D46445464C404DB
:105480000004047E0180403E0000FE00007E80E0BB
:10549000000000FC2424E42424222222A362000031
:1054A0000040308F80404023140814224140808007
:1054B0000040308F082818405C54547F54545C409E
:1054C0000000007F201008809F41211D21419F0086
:1054D000002030AC63102050484443444850202002
:1054E00000226722121200FE4242424242FE0000A7
:1054F00000404042CC0040A09E8282829EA020209C
:10550000000000003F908840432C102846418080D6
:1055100000100C4444444445C64444444444140CE0
:10552000008040201E2040407F444444444440408A
:1055300000101010FF9020988888E98E8888A8981D
:10554000000242817F000080844B281028478000A1
:10555000004030EF242480E49C105454FF547C100D
:105560000001017F21512618274445455F454544E8
:1055700000000000FE92929292929292FE00000031
:105580000040424458407F4040407F4050484640A1
:105590000040404242424242C242424242424040B5
:1055A00000201008060040807F0000000204083040
:1055B00000404042CC0000F11610101814F3000017
:1055C000000000003F9048211907013F4141407011
:1055D0000000FC444444FC0000FE22222222FE0083
:1055E00000000F0404048F40300F020242827F004B
:1055F00000101010FF1010F00000F8080808F80064
:10560000008040300F40807F00007F2020207F00FE
:105610000000020CC000F80848484808FF08098A42
:105620000002027F80403F001E925E20173846F144
:10563000000484E45C44C42010E82724E4342CE013
:105640000002017F10103F80601F09093F49897FD8
:1056500000100C4444444445C64444444444140C9F
:10566000008040201E2040407F4444444444404049
:1056700000965A327E3159951222FE001222FE0007
:105680000000FF497F49FF0044827F0442817F0080
:1056900000000202F2121A16D2121212F2020200D4
:1056A000000080804F402018070810204F80000025
:1056B00000000000D456000800000020E8000000B0
:1056C0006C010008BC570008E800002060060000DC
:1056D0008801000800A24A04000000000000000049
:1056E0000102030406070809000000000100000091
:1056F00000000000000000000000000000000000AA
:105700000000000000000000000000000000000099
:105710000000000000000000000000000000000089
:105720000000000000000000000000000000000079
:105730000000000000000000000000000000000069
:105740000000000000000000000000000000000059
:105750000000000000000000000000000000000049
:105760000000000000000000000000000000000039
:105770000000000000000000000000000000000029
:105780000000000000000000000000000000000019
:105790000000000000000000000000000000000009
:1057A00000000000000000000000000001020304EF
:0C57B000010203040607080902040608B1
:0400000508000131BD
:00000001FF
