:020000040800F2
:10000000A00700201D200008790200087B020008DC
:100010007F02000883020008870200080000000039
:100020000000000000000000000000008B0200083B
:100030008D020008000000008F02000891020008F5
:100040003720000837200008372000083720000834
:1000500037200008372000084B0B00083720000825
:100060003720000837200008372000083720000814
:100070003720000837200008372000083720000804
:1000800037200008372000083720000837200008F4
:10009000372000083720000837200008710B0008BF
:1000A00037200008372000083720000837200008D4
:1000B0003720000837200008F5080008372000081E
:1000C00037200008372000083720000837200008B4
:1000D0003720000837200008AD0C00083720000842
:1000E000890B000837200008372000083720000857
:1000F0003720000837200008372000083720000884
:100100003720000837200008F71E000837200008B5
:100110003720000837200008BF10000837200008EB
:100120003720000837200008372000083720000853
:1001300000F002F800F03AF80AA090E8000C8244BF
:100140008344AAF10107DA4501D100F02FF8AFF29C
:10015000090EBAE80F0013F0010F18BFFB1A43F0A5
:1001600001031847B4690000D4690000103A24BFA5
:1001700078C878C1FAD8520724BF30C830C144BF0C
:1001800004680C607047000000230024002500264E
:10019000103A28BF78C1FBD8520728BF30C148BFEA
:1001A0000B6070471FB51FBD10B510BD04F016F8E9
:1001B0001146FFF7F7FF00F009F804F048F803B420
:1001C000FFF7F2FF03BC00F055F9000001F0BCFEA0
:1001D00000F018FB00F0C0FD01F0CDF801F0E2F8EE
:1001E00001F048F93BE01E48006805F08FF984B241
:1001F00022460221012001F066FB1A48006805F042
:1002000085F984B222463221012001F05CFB1648B8
:10021000006805F07BF984B222465A21012001F0E2
:1002200052FB1248006805F071F984B2224602219F
:10023000032001F048FB0E48006805F067F984B21E
:1002400022463221032001F03EFB0A48006805F0F7
:100250005DF984B222465A21032001F034FBC2E743
:100260003C00002040000020440000204800002006
:100270004C00002050000020704700BFFEE700BF88
:10028000FEE700BFFEE700BFFEE77047704770471C
:10029000704700000CB50020019000906C48006889
:1002A00040F480306A49086000BF6948006800F483
:1002B000003000900198401C0190009818B90198F6
:1002C000B0F5A06FF1D16248006800F4003010B1C1
:1002D0000120009001E0002000900098012843D107
:1002E0005C48006840F010005A4908600846006801
:1002F00020F0030008600846006840F00200086033
:10030000534840685249486008464068486008467B
:10031000406840F4806048600846406820F47C10E3
:1003200048600846406840F4E810486008460068A5
:1003300040F08070086000BF4548006800F0007021
:100340000028F9D04248406820F003004049486046
:100350000846406840F00200486000BF3C484068E2
:1003600000F00C000828F9D10CBD10B5FFF792FF82
:1003700010BD10B53648006840F0010034490860EF
:1003800008464068344908403149486008460068DA
:10039000324908402E4908600846006820F4802051
:1003A00008600846406820F4FE0048604FF41F00D3
:1003B0008860FFF7DAFF4FF000602949086010BD40
:1003C00010B5002100200022214B5B6803F00C01D6
:1003D00021B1042906D0082928D107E0214B224C5D
:1003E000236027E01F4B204C236023E0184B5B6801
:1003F00003F47010164B5B6803F48032022303EBA6
:10040000904022B9194B4343174C23600DE0104B29
:100410005B6803F4003323B1144B4343124C236055
:1004200003E0104B4343104C236003E00D4B0E4C94
:10043000236000BF00BF064B5B68C3F303130C4C83
:10044000E15C094B1B68CB40074C236010BD0000EA
:1004500000100240002002400000FFF8FFFFF6FEFF
:1004600008ED00E000127A000000002000093D00C5
:1004700004000020014600BF704700BFEF4A128809
:1004800002F04002002AF9D0C2B2EC4B1B1D1A80C8
:10049000704710B501F090FF4FF4803001F0ACFFD1
:1004A00001F0E9FF0446012C24D1102003F0EAFA00
:1004B000022003F0D3FA002002F023F8002002F01B
:1004C00032F8A00202F026F84FF4E011200401F007
:1004D000FBFF012002F004F800BF392001F0AFFF5C
:1004E0000028FAD0022001F0FEFF00BF02F004F85D
:1004F0000828FBD110BD00B585B00121052002F010
:10050000C9F80121880302F0C5F8CC4802F026F9A9
:100510004FF40070ADF8100018208DF81300032080
:100520008DF8120004A9C64801F0F8FD4FF4806070
:10053000ADF8100004208DF8130004A9C04801F0A4
:10054000EDFD4FF4E13000900020ADF80400ADF86F
:100550000600ADF80800ADF80C000C20ADF80A005C
:100560006946B64802F03DF9002240F22771B348CF
:1005700002F0CFF90121B14802F0BFF94021AF48A4
:1005800002F0A3FA05B000BD00B585B0012104203A
:1005900002F080F80121480402F089F80420ADF847
:1005A000100003208DF8120018208DF8130004A904
:1005B000A34801F0B3FD0820ADF8100004208DF829
:1005C000130004A99E4801F0A9FD4FF416500090B5
:1005D0000020ADF80400ADF80600ADF80800ADF855
:1005E0000C000C20ADF80A006946964802F0F9F8B4
:1005F000012240F22551934802F08BF901219148E4
:1006000002F07BF905B000BD30B589B005460C4657
:100610000121022002F04BF80121082002F03AF8F3
:100620000320ADF820008DF8220018208DF823005B
:1006300008A9854801F072FDADF81850ADF81440D6
:100640000020ADF81A00ADF8160005A97F4802F0A9
:10065000CBFB6020ADF804000120ADF806000020BF
:10066000ADF80A00ADF80C0001A9784802F088FC4A
:1006700001A9764802F0CFFC0121744802F01CFF6A
:100680000821724803F052F80821704803F057F827
:1006900001216E4803F004F801216C4802F000FFCC
:1006A00009B030BD0EB50121042002F000F847204A
:1006B000ADF800000020ADF8020042F21070ADF875
:1006C00004000020ADF806008DF808006946604877
:1006D00002F08AFB01215E4803F0A8F901221146CD
:1006E0005B4802F0F8FE0121594802F0D9FE0EBD28
:1006F0000EB50121082001F0DAFF4FF43470ADF897
:1007000000000020ADF8020042F21070ADF80400C5
:100710000020ADF806008DF8080069464D4802F04B
:1007200063FB01214B4803F081F90122114649483E
:1007300002F0D1FE0121474802F0B2FE0EBD0EB517
:100740000121102001F0B3FF4720ADF80000002088
:10075000ADF8020042F21070ADF804000020ADF8D0
:1007600006008DF8080069463B4802F03DFB012178
:10077000394803F05BF901221146374802F0ABFE1D
:100780000121354802F08CFE0EBD08B54FF4A06083
:1007900002F0E8F926208DF8000000208DF8010015
:1007A0008DF8020001208DF80300684602F0DFF9A1
:1007B00032208DF8000001208DF801008DF8020034
:1007C0008DF80300684602F0D2F91E208DF8000073
:1007D00002208DF801008DF8020001208DF8030041
:1007E000684602F0C4F936208DF8000002208DF82A
:1007F000010001208DF802008DF80300684602F028
:10080000B6F908BD10B5FFF744FEFFF7BEFFFFF7CE
:1008100072FEFFF7B9FE00F021F800F0C9F900F010
:100820002BF9482144F61F60FFF7EEFEFFF73AFF71
:10083000FFF75EFFFFF783FF10BD000000380140A7
:100840000008014000440040000C0140000400404A
:1008500000080040000C00400010004008B50121D5
:10086000242001F017FF4FF48070ADF80000102035
:100870008DF8030003208DF802006946244801F03A
:100880004DFC4FF48071224801F0F5FC0420ADF8D6
:10089000000069461F4801F041FC04211D4801F099
:1008A000EAFC08BD10B51C48006810B101280AD147
:1008B00004E00421174801F0DEFC05E0042115489E
:1008C00001F0DBFC00E000BF00BF1448006810B17D
:1008D00001280CD105E04FF480710D4801F0CBFCEC
:1008E00006E04FF480710A4801F0C7FC00E000BF49
:1008F00000BF10BD10B50121094803F09AF828B1D6
:10090000FFF7D0FF0121064803F0A4F810BD000056
:100910000008014000140140D4000020D80000204D
:100920000008004030B503461C788C545D78541C98
:100930000D559D78941C0D55DD78D41C0D5530BD9A
:1009400013B50C460A2C00DC04B91CBD0B2C43D299
:10095000DFE804F042060C12181E242A30363C0050
:10096000012244496846FFF7DDFF35E00522414991
:100970006846FFF7D7FF2FE009223E496846FFF798
:10098000D1FF29E00D223B496846FFF7CBFF23E06A
:10099000112238496846FFF7C5FF1DE01522354989
:1009A0006846FFF7BFFF17E0192232496846FFF794
:1009B000B9FF11E01D222F496846FFF7B3FF0BE096
:1009C00021222C496846FFF7ADFF05E02522294981
:1009D0006846FFF7A7FF00BF00BF00BFB5E70146AD
:1009E0000A2900DC09B9002070472420214A107030
:1009F0000B293CD2DFE801F03B060B10151A1F242F
:100A0000292F350005201B4A50710620ECE70920EC
:100A1000184A50720A20E7E70D20164A50730E203C
:100A2000E2E71120134A50741220DDE71520114A25
:100A300050751620D8E719200E4A50761A20D3E7B1
:100A40001D200C4A50771E20CEE72120094A82F84B
:100A500021002220C8E72520064A82F8250026200A
:100A6000C2E72920034A82F829002A20BCE7002097
:100A7000BAE70000100100200EB50121084601F080
:100A800009FE00F095F80521022001F05DFC202010
:100A9000019000208DF808000C208DF8090001203D
:100AA0008DF80A0001A803F0C5FA0F21002001F01B
:100AB0004BFC4FF40040019000208DF808000C2002
:100AC0008DF8090001208DF80A0001A803F0B2FAA0
:100AD0000021084601F038FC0120019000208DF82B
:100AE000080008208DF8090001208DF80A0001A8EF
:100AF00003F0A0FA06208DF8000000208DF8010018
:100B000001208DF802008DF80300684602F02FF8EE
:100B100017208DF8000002208DF8010001208DF8CB
:100B200002008DF80300684602F021F828208DF8B5
:100B3000000002208DF8010001208DF802008DF8E0
:100B40000300684602F013F80EBD10B50A2001F04C
:100B500038FA0121134801F074FB012804D112482E
:100B60000068401C10490860012003F0DAFA10BD4B
:100B700010B50A2001F025FA20210C4801F061FB94
:100B8000202003F0CEFA10BD10B50A2001F019FAAA
:100B90004FF40041034801F054FB4FF4004003F0D0
:100BA000C0FA10BD00080140D00000200010014034
:100BB00008B50121142001F06DFD0121374801F035
:100BC0007EFB4FF40040ADF8000048208DF8030094
:100BD0006946334801F0A2FA2020ADF80000482011
:100BE0008DF8030069462F4801F098FA0120ADF80E
:100BF000000028208DF803006946294801F08EFA8C
:100C000008BD10B5044614B10120274908702648D4
:100C1000007868B32021234801F013FB58B14FF44A
:100C200000411F4801F00DFB28B101211C4801F0D3
:100C300008FB01281CD10A2001F0C3F900201A4941
:100C400008702021174801F0FCFA08B9012010BDF6
:100C50004FF40041124801F0F4FA08B90220F6E717
:100C600001210F4801F0EDFA012815D10320EEE72C
:100C700020210C4801F0E5FA01280DD1C1030848F4
:100C800001F0DFFA012807D10121054801F0D9FA66
:100C900010B90120044908700020D8E70002300094
:100CA00000080140001001401800002010B540F27B
:100CB0002551214801F012FF00283CD01E49091D92
:100CC00008881E49097869B91D490978FE2909D1A2
:100CD0001C490978FF2905D10121184A117000210A
:100CE000194A11701549097801290FD1174A164B75
:100CF0001B78D05414490978491C134A11701146C5
:100D00000978042902D100210C4A11700C49097894
:100D10000C4A11700A4A10700C4909780B4A527833
:100D200011440B4A116009498978084AD278114464
:100D3000084A116000BF10BD004400403000002090
:100D40003200002033000020310000202C00002061
:100D50001C0000202400002008B50121082001F01B
:100D600099FC4FF47060ADF8000010208DF803007E
:100D700003208DF802006946FD4801F0CFF94FF4D9
:100D80007040ADF8000028208DF8030003208DF896
:100D900002006946F64801F0C1F908BD10B5F448F3
:100DA0000C3000684FF2FF02104040F47061F048D0
:100DB00001F06AFAEE480830006800F4704010B99B
:100DC0004FF0FF3010BD052001F0FBF8E848083077
:100DD000006800F4704010B94FF0FF30F2E7E448CB
:100DE0000C3000684FF2FF02104040F48071E04880
:100DF00001F04AFADE480830006800F47040B0F5AF
:100E0000805F09D0B0F5005F08D0B0F5804F07D003
:100E1000B0F5004F08D105E0012405E0022403E00D
:100E2000032401E0042400BF00BF00BFD048083005
:100E3000006800F470400028F8D1CD480C300068FC
:100E40004FF2FF02104040F40071C94801F01CFA53
:100E5000C7480830006800F47040B0F5805F09D0E2
:100E6000B0F5005F08D0B0F5804F07D0B0F5004F67
:100E700008D105E0052405E0062403E0072401E08D
:100E8000082400BF00BF00BFB9480830006800F464
:100E900070400028F8D1B6480C3000684FF2FF02CD
:100EA000104040F48061B24801F0EEF9B0480830DB
:100EB000006800F47040B0F5805F09D0B0F5005FC5
:100EC00008D0B0F5804F07D0B0F5004F08D105E04D
:100ED000092405E00A2403E00B2401E00C2400BFF0
:100EE00000BF00BFA2480830006800F4704000282E
:100EF000F8D19F480C3000684FF2FF02104040F4D8
:100F000000619B4801F0C0F999480830006800F47E
:100F10007040B0F5805F09D0B0F5005F08D0B0F543
:100F2000804F07D0B0F5004F08D105E00D2405E053
:100F30000E2403E00F2401E0102400BF00BF00BF17
:100F40008B480830006800F470400028F8D1204633
:100F500038E710B5FFF722FF8649086008460068A9
:100F6000112815D2DFE800F0A90915212D394551C6
:100F70005D6975818D999DA1A5007FA003F0DCF8C6
:100F80007E4801687E48006804F0B2FB7C49086036
:100F900093E07CA003F0D0F87848016878480068B6
:100FA00004F012FA7649086087E077A003F0C4F8ED
:100FB000764801687648006804F09AFB7449086036
:100FC0007BE074A003F0B8F87048016870480068CE
:100FD00004F0FAF96E4908606FE06FA003F0ACF816
:100FE0006E4801686E48006804F082FB6C49086036
:100FF00063E06CA003F0A0F86848016868480068E6
:1010000004F0E2F96649086057E067A003F094F83D
:10101000664801686648006804F06AFB6449086035
:101020004BE064A003F088F86048016860480068FD
:1010300004F05EFB5E4908603FE05FA003F07CF8CF
:101040005E4801685E48006804F052FB5C49086035
:1010500033E05CA003F070F8584801685848006815
:1010600004F0B2F95649086027E057A003F064F88D
:10107000564801685648006804F03AFB5449086035
:101080001BE054A003F058F850480168504800682D
:1010900004F09AF94E4908600FE04FA003F04CF8B5
:1010A0000BE04EA003F048F807E04DA003F044F831
:1010B00003E04CA003F040F800BF00BF10BD2DE9D5
:1010C000F0410121484802F0B4FC00284FD0FFF75E
:1010D00040FF4648006804F04BF90646444A454B39
:1010E00003F072FC044603F03DFC404908600846EA
:1010F000006804F03DF904463F4A404B04F00CF808
:1011000002D83F48394908603848006804F030F98F
:10111000054603F0D7FB074603F024FC04460121F3
:10112000FFF70EFC3748006804F010FA044603216C
:10113000FFF706FC3448006804F008FA044604216E
:10114000FFF7FEFB052131480068FFF7F9FB304847
:10115000006804F0FBF904460621FFF7F1FB0721C4
:101160002C480068FFF7ECFB2B48006856E08AE04B
:10117000000C01406C000020310A000054000020E7
:101180003C000020320A0000330A0000600000200A
:1011900048000020410A0000340A000058000020E6
:1011A00040000020350A0000360A000064000020DC
:1011B0004C000020420A0000370A00005C000020BA
:1011C00044000020380A0000390A000068000020AE
:1011D00050000020430A00002A0A0000300A0000E4
:1011E000230A0000440A00000010004038000020DC
:1011F0009A9999999999B93F1F85EB51B81E094061
:10120000C3F548C01C00002024000020700000200E
:10121000B800002090000020C400002004F096F9DF
:1012200004460821FFF78CFB092118480068FFF7E6
:1012300087FB0A211648FFF783FB0A20FFF7CFFB45
:101240001449087000201449087012E000BF1348C8
:10125000008800F040000028F9D011480E490978B4
:10126000405C0E49091D08800B480078401C0A4963
:10127000087009480078074909788842E6DB0121AF
:10128000084802F0E7FBBDE8F0810000780000208C
:101290000000A04035000020340000200044004041
:1012A00010010020001000400120F8490860F849B2
:1012B000C1F884010020F549091F0860F449C1F80C
:1012C000880170470020F1490860F149C1F88401A4
:1012D0000120EE49091F0860ED49C1F888017047F7
:1012E0002DE9F04105462C46002716E02646002051
:1012F000E649086006F08006802E03D10120091F10
:10130000086003E00020E149091F08606006040E40
:101310000120DE490860781CC7B2082FE6DB0020F8
:10132000DA490860032000F028FE0120D849C1F8FE
:101330008801BDE8F08110B50446FFF7B5FF7820BD
:10134000FFF7CEFF0020FFF7CBFFE0B2FFF7C8FFAB
:10135000FFF7B8FF10BD10B50446FFF7A5FF7820D2
:10136000FFF7BEFF4020FFF7BBFFE0B2FFF7B8FF7B
:10137000FFF7A8FF10BDC748806940F01000C549BD
:101380008861C548006820F47F60C349086008464A
:10139000006840F44C7008600846C06840F00600E1
:1013A000C860704710B50020B849091D08604FF4A7
:1013B000FA7000F006FE0120B549C1F88C01AE209C
:1013C000FFF7B9FFD520FFF7B6FF8020FFF7B3FF87
:1013D000A820FFF7B0FF3F20FFF7ADFFD320FFF7B6
:1013E000AAFF0020FFF7A7FF4020FFF7A4FF8D20F2
:1013F000FFF7A1FF1420FFF79EFF2020FFF79BFFC0
:101400000220FFF798FFC820FFF795FFA120FFF704
:1014100092FFDA20FFF78FFF1220FFF78CFF812069
:10142000FFF789FFCF20FFF786FFD920FFF783FF63
:10143000F120FFF780FFDB20FFF77DFF4020FFF763
:101440007AFFAF20FFF777FF10BD70B505460C4659
:10145000601EC4B2681EC5B205F1B000FFF76BFF95
:10146000102101EB1410FFF766FF04F00F00FFF7E7
:1014700062FF70BD70B500240FE0611CC8B201218D
:10148000FFF7E3FF002504E00020FFF764FF681C7E
:10149000C5B2802DF8DB601CC4B2082CEDDB70BD3A
:1014A0002DE9F04107460D46002410E0611CC8B24A
:1014B0000121FFF7CAFF002606E03846FFF74BFF81
:1014C0002846FFF748FF761C402EF6DB641C082CEC
:1014D000ECDBBDE8F08170B50446002510E0691C26
:1014E000C8B20121FFF7B1FF002605E02078FFF721
:1014F00032FF641C701C86B2802EF7DB681C85B23C
:10150000082DECDB70BD2DE9F041064688461446F7
:10151000002510E07119C8B24146FFF796FF002779
:1015200005E02078FFF717FF641C781C87B2802F36
:10153000F7DB681C85B2022DECDBBDE8F0812DE9FC
:10154000F041064688461446002510E07119C8B2DD
:101550004146FFF77AFF002705E02078FFF7FBFE02
:10156000641C781CC7B2202FF7DB681CC5B2042DA1
:10157000ECDBBDE8F0812DE9F041064688461446D3
:10158000002510E07119C8B24146FFF75EFF002741
:1015900005E02078FFF7DFFE641C781CC7B2102F2F
:1015A000F7DB681CC5B2022DECDBBDE8F0812DE94C
:1015B000F041064688461446002510E07119C8B26D
:1015C0004146FFF742FF002705E02088FFF7C3FEF2
:1015D000A41C781CC7B2102FF7DB681CC5B2012D04
:1015E000ECDBBDE8F0812DE9F04106468846144663
:1015F000002510E07119C8B24146FFF726FF002709
:1016000005E02078FFF7A7FE641C781CC7B2802F86
:10161000F7DB681CC5B2082DECDBBDE8F0812DE9D5
:10162000F041064688461446002510E07119C8B2FC
:101630004146FFF70AFF002705E02078FFF78BFE01
:10164000641C781CC7B2082FF7DB681CC5B2022DDA
:10165000ECDBBDE8F0812DE9F04780460E461546EB
:1016600000247B2E04DD012608F102001FFA80F819
:1016700039E0285D202834DB285D7E2831DC285DB8
:1016800020381FFA80FA002723E000008801224258
:10169000000022420010024000100140F1B208EBAD
:1016A0000702D0B2FFF7D1FE4FF000090CE0C249AB
:1016B00001EB0A11082202FB0792885CFFF74BFE40
:1016C00009F101001FFA80F9B9F1080FEFDB781C6E
:1016D00087B2022FE2DB601C84B206F1080086B2FA
:1016E00001E0601C84B2285D0028C2DCBDE8F08700
:1016F0002DE9F05F80460E4691461D46002441E0EC
:10170000285D20283CDB285D7E2839DC285D2038D8
:101710001FFA80FAF1B208F0FF00FFF796FE0027EB
:1017200016E0B9F1010F08D10AEB8A00A349084479
:10173000C05DC0431FFA80FB05E00AEB8A009F49A9
:10174000084410F807B05846FFF705FE781C87B22A
:10175000052FE6DBB9F1010F03D1FF20FFF7FBFDF9
:1017600002E00020FFF7F7FD601C84B2B01D86B2D6
:101770007B2E07DD012608F101001FFA80F801E049
:10178000601C84B2285D0028BADCBDE8F09F2DE91A
:10179000F04707468946904600265CE000244FF05B
:1017A000010A12E08648005D18F8061088420AD146
:1017B0008349601C095C701C18F80000814202D14A
:1017C0004FEA041A05E0A01CC4B27D48005D7E28E3
:1017D000E8DC00BFB9F1710F03DD4FF00009B81C60
:1017E000C7B2BAF1010F1CD0002515E07919C8B2B3
:1017F0004946FFF72AFE00240AE0724911F80A0060
:10180000FFF7A9FD0AF101001FFA80FA601CC4B2BB
:10181000102CF2DB681CC5B2022DE7DBB01CC6B28F
:1018200015E000250FE07919C8B24946FFF70DFE13
:10183000002404E00020FFF78EFD601CC4B2102CD1
:10184000F8DB681CC5B2022DEDDB701CC6B209F1D5
:10185000100000F0FF0918F8060000289ED1BDE82E
:10186000F087F8B507460E461546002427E0285DA8
:101870007E2814DD285D8DF80000601C285C8DF842
:10188000010000208DF802006A4631463846FFF715
:101890007EFF06F11000C6B2A01CC4B20FE0285DA6
:1018A0008DF8000000208DF801006A463146384668
:1018B000FFF7D1FE06F10800C6B2601CC4B2285D75
:1018C0000028D4D1F8BD2DE9F84381468846164654
:1018D000002400270025002000900A2096FBF0F14C
:1018E00000FB1160C0B28DF803000A2096FBF0F0F7
:1018F0000A2190FBF1F201FB1200C0B28DF8020048
:10190000642096FBF0F090FBF1F201FB1200C0B2F4
:101910008DF801004FF47A7096FBF0F090FBF1F235
:1019200001FB1200C0B28DF8000000BF3FE01DF8BF
:1019300004001030C0B20DF80400002716E00820A3
:1019400000FB0480C1B24846FFF77FFD002509E097
:101950001DF80410184A02EB0111485DFFF7FBFC6B
:10196000681CC5B2082DF3DB781CC7B2022FE6DB7A
:10197000002718E0082202FB0482D1B209F101021B
:10198000D0B2FFF762FD082509E01DF804100A4AED
:1019900002EB0111485DFFF7DEFC681CC5B2102D9B
:1019A000F3DB781CC7B2022FE4DB601CC4B2042C4A
:1019B000BDDBBDE8F8830000CA580008BA5E000825
:1019C00026670008516700082DE9F04F87B082466E
:1019D0008B46FE48006803F0B9FD0446514603F00B
:1019E00087FEFB49086008460168FA48006803F072
:1019F000EBFCF8490860F8480168F548006803F016
:101A000077FEF6490860F2480068F3490860F44937
:101A1000F048006803F031FE03D8F148ED49086052
:101A200008E0F049EB48006803F0A8FD02D8ED4853
:101A3000E8490860EC49E948006803F01EFE03D855
:101A4000E948EA49086016E04FF08041E348006841
:101A500003F013FE04D84FF08040E44908600AE028
:101A60004FF07E51DD48006803F007FE03D84FF0C9
:101A70008040DE490860D948006803F079FC0446DC
:101A80000022DB4B03F04AFACDE90201D14800689D
:101A900003F06EFC06460022134603F03FFA0446AC
:101AA0000D46CB48006803F063FC06460022D14B8C
:101AB00003F034FA804622462B4602F085FFCDE93A
:101AC0000001DDE9022302F07FFFCDE9040103F00C
:101AD0008FF9C9490860C9490968084603F036FD0D
:101AE000C749086008460168C648006803F06CFCF6
:101AF000C4490860C4480168C148006803F0F8FDA3
:101B0000C2490860BE480068BF490860B449BD4882
:101B1000006803F0B2FD03D8B148BA49086008E094
:101B2000B049B848006803F029FD02D8AD48B5496E
:101B30000860B648006803F01BFC06460022134606
:101B400003F0ECF9CDE90401AE48006803F010FCA5
:101B500000221346CDE9000103F0E0F906460F46E6
:101B6000A748006803F004FC00221346CDE90001F9
:101B700003F0D4F9804632463B4602F025FFCDE91A
:101B80000201DDE9042302F01FFF044603F030F9EF
:101B90009F4908609848006800F2FA5009680844B4
:101BA0009C49086008460068B0F5D26F03DB4FF42B
:101BB000D260086008E09748006840F264518842AB
:101BC00002DC0846934908609248008881B2924836
:101BD00001F002FF9148006803F0B8FC0446594642
:101BE00003F07CFD8E490860084601688D48006856
:101BF00003F0EAFB8B4908608B480168884800685D
:101C000003F076FD894908608548006886490860C8
:101C100073498448006803F030FD03D87048814957
:101C2000086008E06F497F48006803F0A7FC02D80D
:101C30006C487C4908607D48006803F099FB0646C3
:101C400000226B4B03F06AF904460D4675480068A4
:101C500003F08EFB06460022134603F05FF9804630
:101C600089466F48006803F083FB06460022614BFB
:101C700003F054F942464B46CDE9000102F0A4FEC0
:101C800022462B46CDE9020102F09EFECDE9040179
:101C900003F0AEF86649086066490968084603F033
:101CA00055FC65490860084601686448006803F00F
:101CB0008BFB62490860624801685F48006803F076
:101CC00017FD604908605C4800685D490860444948
:101CD0005A48006803F0D1FC03D8414857490860CE
:101CE00008E040495548006803F048FC02D83D48E8
:101CF000524908605348006803F03AFB044600224A
:101D0000134603F00BF9CDE902014C48006803F0DB
:101D10002FFB06460022134603F000F98046894651
:101D20004548006803F024FB06460022134603F0F2
:101D3000F5F8044642464B4602F046FECDE9000166
:101D4000DDE9022302F040FECDE9040103F050F882
:101D50003D4908603648006800F29650096808441A
:101D60003A4908600846006840F22C61884203DB6B
:101D700008463649086008E034480068B0F5A06FAE
:101D800003DC4FF4A060314908603048008881B21C
:101D9000214801F023FE07B0BDE8F08F2DE9F047A0
:101DA000DFF8ACA02B4D2C4CDFF8B080DFF8B09002
:101DB0002C4805602C4804602146006803F072FB43
:101DC0007ED11748006803F0D3FA4FE01C000020D2
:101DD00070000020740000207C00002078000020AB
:101DE00000409C4600409CC60000A040B00000207F
:101DF000000004400000E83FB80000202000002060
:101E000080000020840000208C000020880000203A
:101E1000BC000020C000002000040040240000207E
:101E200090000020940000209C00002098000020DA
:101E3000C400002028000020A0000020A4000020F2
:101E4000AC000020A8000020C8000020CC0000202A
:101E500000409C4500006043000061430000E841F1
:101E60000000F242E4000020E800002021F00041E0
:101E7000064600222A4B03F015F829D229480068AB
:101E800003F076FA21F0004106460022244B03F0CD
:101E900009F81DD224480068401C23490860084600
:101EA0000068642805D300202049086001202049EB
:101EB00008601D480068B0F5967F14D3012000E04B
:101EC0000EE01C4908604FF49670174908600AE05C
:101ED000002016490860164908601349086002E0AE
:101EE0000020134908601448016814480068FFF78F
:101EF0006BFDBDE8F08710B50121114801F099FD97
:101F000060B110480068012802D1FFF747FF00E0E8
:101F100000BF00BF01210A4801F09CFD10BD000078
:101F20000000244070000020F0000020D4000020B9
:101F3000D8000020F4000020E8000020E400002089
:101F4000000C0040D000002010B56FF0040000F03D
:101F500058FE2E4800682E49B0FBF1F02D4908705C
:101F60000846007800EB4001C1EBC0104FF6FF714E
:101F700001EAC0002849088010BD0146254A1278B0
:101F80004A434FF0E0235A6100229A611A461269CF
:101F900042F001021A6100BF4FF0E022106900F028
:101FA00001021AB100F48032002AF5D04FF0E0228D
:101FB000126922F001024FF0E0231A6100229A61B7
:101FC00070470146144A12884A434FF0E0235A6191
:101FD00000229A611A46126942F001021A6100BF9A
:101FE0004FF0E022106900F001021AB100F48032D3
:101FF000002AF5D04FF0E022126922F001024FF0E2
:10200000E0231A6100229A6170470000000000205E
:1020100000127A00F8000020FA00002009488047EA
:1020200009480047FEE7FEE7FEE7FEE7FEE7FEE7BA
:10203000FEE7FEE7FEE7FEE704480549054A064BD2
:10204000704700007303000831010008A001002060
:10205000A0070020A0030020A003002010B5044624
:10206000CC48844208D10121042000F02DFB00213E
:10207000042000F029FB46E0C748844208D1012132
:10208000082000F021FB0021082000F01DFB3AE0B1
:10209000C248844208D10121102000F015FB002124
:1020A000102000F011FB2EE0BD48844208D1012130
:1020B000202000F009FB0021202000F005FB22E099
:1020C000B848844208D10121402000F0FDFA0021E7
:1020D000402000F0F9FA16E0B348844208D101210B
:1020E000802000F0F1FA0021802000F0EDFA0AE0F3
:1020F000AE48844207D10121801500F0E5FA0021A5
:10210000A01500F0E1FA10BD10B50121084600F05D
:10211000DBFA0021012000F0D7FA10BD2DE9F041D3
:10212000024600250026002000230024002791F805
:1021300003C00CF00F0591F803C00CF0100CBCF1BB
:10214000000F03D091F802C04CEA050591F800C0D9
:10215000BCF1000F31D0146800202BE04FF0010CCF
:102160000CFA00F3B1F800C00CEA03069E4220D13D
:1021700083004FF00F0C0CFA03F7BC4305FA03FC85
:102180004CEA040491F803C0BCF1280F06D14FF0CB
:10219000010C0CFA00FCC2F814C00AE091F803C06C
:1021A000BCF1480F05D14FF0010C0CFA00FCC2F84D
:1021B00010C0401C0828D1D31460B1F800C0BCF195
:1021C000FF0F34DD546800202EE000F1080C4FF0C2
:1021D000010808FA0CF3B1F800C00CEA03069E42AD
:1021E00021D183004FF00F0C0CFA03F7BC4305FA22
:1021F00003FC4CEA040491F803C0BCF1280F05D19C
:1022000000F1080C08FA0CF8C2F8148091F803C029
:10221000BCF1480F07D100F1080C4FF0010808FA93
:102220000CF8C2F81080401C0828CED35460BDE8DA
:10223000F0814FF6FF710180022181700421C1708D
:1022400070470246002093680B400BB1012000E06C
:10225000002070470146886880B27047024600201F
:10226000D3680B400BB1012000E00020704701460D
:10227000C86880B2704701617047416170470AB118
:10228000016100E041617047C16070474FF48032E6
:102290000A43826181618261826982697047024674
:1022A0000020434B18684FF68073184040EA021034
:1022B00008433F4B186070473E49C8617047F0B50E
:1022C0000A46002300240021002500F00046B6F154
:1022D000004F02D1364EF16901E0354E7168C0F30E
:1022E000034583B200F44016B6F5401F08D121F033
:1022F00070612F4E766826F070662D4F7E6012E07A
:1023000000F48016B6F5801F06D1032606FA05F400
:10231000A14341F0706106E0460D360103FA06F66E
:10232000B14341F0706122B1460D360103FA06F661
:10233000314300F00046B6F1004F02D11C4EF1616E
:1023400001E01B4E7160F0BD30B500228B071C0F01
:102350000F2303FA04F2164B08338C1053F8243081
:102360009343134C08348D1044F8253023468C10C9
:1023700053F824308C07240F00FA04F423430C4C48
:1023800008348D1044F8253030BD0A49DC3108602E
:102390007047000000080140000C0140001001409F
:1023A0000014014000180140001C014000200140C1
:1023B0000000014000002042DF48006840F00100BA
:1023C000DD49086008464068DC490840DA49486051
:1023D00008460068DA490840D7490860084600689E
:1023E00020F4802008600846406820F4FE00486021
:1023F0004FF41F0088607047CF49096821F480318D
:10240000CD4A11601146096821F480211160B0F5B0
:10241000803F03D0B0F5802F0ED106E0C649096891
:1024200041F48031C44A116007E0C349096841F4AE
:10243000A021C14A116000E000BF00BF704710B585
:1024400001460022002300204A11012A02D1BA4C81
:10245000236806E0022A02D1B74C236A01E0B64C99
:10246000636A01F01F02012494401C400CB101205A
:1024700000E0002010BD38B50020009000240025A9
:1024800000BF3120FFF7DBFF05460098401C00909D
:102490000098B0F5A06F01D0002DF2D03120FFF7E9
:1024A000CEFF08B1012400E00024204638BD0146DB
:1024B0000020A14A106820F0F80040EAC100106036
:1024C0007047A04908607047024600209A4B586840
:1024D00020F47C1042EA01031843974B5860704780
:1024E00098490866704701460020934A506820F0DA
:1024F00003000843506070478F48406800F00C00AC
:102500007047014600208C4A506820F0F0000843D4
:102510005060704701460020874A506820F4E06010
:1025200008435060704701460020834A506820F4F9
:10253000605040EAC1005060704729B17E4A527A2B
:1025400002437D4B5A7204E07B4A527A82437A4BB3
:102550005A7270477B49D8310860704701460020A5
:10256000754A506820F4404008435060704700218D
:10257000714A20321170704A82F82010012802D06E
:1025800004280AD104E001216B4A2032117005E0D1
:102590000521694A2032117000E000BF00BF70477A
:1025A0006949086070476449096A0143624A1162D7
:1025B0007047654944390860704730B500210022F2
:1025C000002400235C4D6D6805F00C0121B1042945
:1025D00005D0082923D105E05C4D056022E05B4D64
:1025E00005601FE0544D6D6805F47012524D6D6822
:1025F00005F48034022505EB92421CB9544D554335
:1026000005600BE04C4D6D6805F400351DB1504D73
:102610005543056002E04D4D5543056002E04B4DCA
:10262000056000BF00BF444D6D6805F0F001090969
:10263000484D6B5C0568DD4045603F4D6D6805F4B5
:10264000E061090A434D6B5C4568DD4085603A4DA9
:102650006D6805F46051C90A3E4D6B5C4568DD400C
:10266000C560354D6D6805F44041890B3A4D6B5C92
:10267000C568B5FBF3F5056130BD29B12E4A526935
:1026800002432D4B5A6104E02B4A526982432A4B84
:102690005A61704729B1284A92690243264B9A61D0
:1026A00004E0254A92698243234B9A61704729B11D
:1026B000214AD2690243204BDA6104E01E4AD26902
:1026C00082431D4BDA61704729B11B4AD26802432D
:1026D000194BDA6004E0184AD2688243164BDA607C
:1026E000704729B1144A12690243134B1A6104E07E
:1026F000114A12698243104B1A61704712494039DE
:10270000086070470F49C86470470B49C87170472B
:102710000948406A40F080700749486270470146A6
:102720000020054A92680A400AB1012000E000201A
:102730007047014988727047001002400000FFF89E
:10274000FFFFF6FE000042428004424200127A007F
:1027500000093D00FC0000200C01002010B50446DB
:10276000FB48844209D101218803FFF7ADFF002116
:102770004FF48040FFF7A8FF32E0F648844209D1C9
:1027800001214804FFF7ADFF00214FF40030FFF7AF
:10279000A8FF25E0F048844209D101218804FFF711
:1027A000A0FF00214FF48020FFF79BFF18E0EB48CB
:1027B000844209D10121C804FFF793FF00214FF49F
:1027C0000020FFF78EFF0BE0E548844208D101218D
:1027D0000805FFF786FF00214FF48010FFF781FF07
:1027E00010BD2DE9F04786B005460E460024A246EE
:1027F00000BFA1460027B08900B100BF2F462C8A38
:102800004CF6FF700440F08804432C82AC894EF6ED
:10281000F3100440B08831890843718908430443A8
:10282000AC81AC8A4FF6FF400440B0890443AC82CF
:1028300001A8FFF7C2FEC648874202D1DDF810A00A
:1028400001E0DDF80CA0A88900F4004040B10AEBDB
:10285000CA0000EB0A1031684900B0FBF1F807E04C
:102860000AEBCA0000EB0A1031688900B0FBF1F8EE
:102870006420B8FBF0F004012009642101FB1089F9
:10288000A88900F4004040B1322000EBC900B0FB41
:10289000F1F000F00700044308E0322000EB0910DB
:1028A0006421B0FBF1F000F00F0004432C8106B06E
:1028B000BDE8F0874FF41651016000218180C1808E
:1028C00001810C21418100218181704710B50246B0
:1028D0000020108A4FF2FF0318400B884C882343D6
:1028E0008C882343CC8823431843108210BD0021D9
:1028F000018041808180C180704721B1828942F48A
:102900000052828104E082894DF6FF731A40828171
:102910007047F0B50346002400260025002040F64D
:102920006A17B94200D100BF1846C1F3421401F042
:102930001F06012707FA06F5012C01D10C3004E02F
:10294000022C01D1103000E014301AB107682F4377
:10295000076002E00768AF430760F0BD1AB1838AE1
:102960000B43838202E0838A8B4383827047028A0F
:102970004FF6F0731A400282028A0A4302827047BD
:1029800082894FF2FF731A40828182890A438281D1
:10299000704721B1828942F00202828104E082897B
:1029A0004FF6FD731A4082817047028A4FF6DF733B
:1029B0001A400282028A0A430282704721B1028AC7
:1029C00042F48042028204E0028A4BF6FF731A400E
:1029D00002827047C1F308028280704701468888EE
:1029E000C0F308007047818941F00101818170477F
:1029F000028BD2B20283028B42EA01220283704729
:102A0000028B02F47F420283028B0A4302837047E7
:102A100021B1828A42F02002828204E0828A4FF64B
:102A2000DF731A408282704721B1828A42F010021D
:102A3000828204E0828A4FF6EF731A4082827047E6
:102A400021B1828A42F00802828204E0828A4FF633
:102A5000F7731A408282704721B1828942F40042A2
:102A6000828103E08289C2F30E028281704721B124
:102A7000828A42F40062828204E0828A4FF2FF730B
:102A80001A4082827047828A4FF6FB731A40828214
:102A9000828A0A438282704721B1828A42F002020E
:102AA000828204E0828A4FF6FD731A408282704768
:102AB00002460020B1F5007F00D100BF13880B4013
:102AC0000BB1012000E00020704701F40072B2F564
:102AD000007F00D100BFCA430280704770B5024634
:102AE000002400230025002040F66A16B14200D1E0
:102AF00000BFC1F3421501F01F03012606FA03F3DC
:102B0000012D02D19689334006E0022D02D1168AAA
:102B1000334001E0968A33400C12012606FA04F491
:102B20001688344013B10CB1012000E0002070BDC4
:102B300010B50022002340F66A14A14200D100BF64
:102B40000A1201249440A3B2DC43048010BD0000AB
:102B5000003801400044004000480040004C004064
:102B60000050004031490143314A1160704770B54F
:102B7000002100230F22C47804B32D4C246804F4F0
:102B8000E064C4F5E064210AC1F10403CA4044785A
:102B900004FA03F18478144021430901254C067896
:102BA000A155047804F01F050124AC4005786D118F
:102BB000AD0005F1E025C5F8004109E0047804F016
:102BC0001F050124AC401C4D0678761145F82640BF
:102BD00070BD1A4A0A400243154B1B1F1A6070470A
:102BE00039B1134A121D12680243114B1B1D1A60A2
:102BF00006E00F4A121D126882430D4B1B1D1A601E
:102C00007047042808D14FF0E021096941F0040120
:102C10004FF0E022116107E04FF0E021096921F057
:102C200004014FF0E0221161704700000000FA0536
:102C30000CED00E000E400E080E100E080FFFF1F19
:102C400010B50446FE48844208D10121C014FFF7A4
:102C50003BFD0021E014FFF737FDC4E0B4F1804FE5
:102C600008D101210846FFF73CFD00210120FFF7B4
:102C700038FDB8E0F348844208D101210220FFF773
:102C800030FD00210220FFF72CFDACE0EE4884422D
:102C900008D101210420FFF724FD00210420FFF7C3
:102CA00020FDA0E0E948844208D101210820FFF777
:102CB00018FD00210820FFF714FD94E0E448844249
:102CC00008D101211020FFF70CFD00211020FFF793
:102CD00008FD88E0DF48844208D101212020FFF769
:102CE00000FD00212020FFF7FCFC7CE0DA48844254
:102CF00008D101214014FFF7E7FC00216014FFF721
:102D0000E3FC70E0D548844209D10121C804FFF7F3
:102D1000DBFC00214FF40020FFF7D6FC63E0D04835
:102D2000844209D101210805FFF7CEFC00214FF4B0
:102D30008010FFF7C9FC56E0CA48844209D101213E
:102D40004805FFF7C1FC00214FF40010FFF7BCFC61
:102D500049E0C548844208D101214020FFF7C1FC69
:102D600000214020FFF7BDFC3DE0C048844208D16F
:102D700001218020FFF7B5FC00218020FFF7B1FC86
:102D800031E0BB48844208D101218015FFF7A9FC3E
:102D90000021A015FFF7A5FC25E0B648844209D123
:102DA00001210804FFF790FC00214FF48030FFF769
:102DB0008BFC18E0B048844209D101214804FFF798
:102DC00083FC00214FF40030FFF77EFC0BE0AB48A2
:102DD000844208D101218804FFF776FC00214FF4DA
:102DE0008020FFF771FC10BD00220288944B9842AE
:102DF0000ED0994B98420BD0B0F1804F08D0914B38
:102E0000984205D0904B984202D0904B984204D102
:102E10004FF68F731A404B881A438D4B984207D058
:102E20008C4B984204D04FF6FF431A40CB881A438C
:102E300002808B8883850B880385814B98420BD059
:102E4000854B984208D08B4B984205D08A4B9842CC
:102E500002D08A4B984201D10B7A038601238382E8
:102E6000704770B5002400220023058C4FF6FE76D3
:102E700035400584028C8388048B4FF68F752C4077
:102E8000B51E2C400D882C43751E2A400D892A43FF
:102E90004D882A436A4DA8420BD06F4DA84208D0F6
:102EA000744DA84205D0744DA84202D0734DA8427B
:102EB00013D14FF6F7752A404D892A434FF6FB751B
:102EC0002A408D882A434FF6FF652B404FF6FF5569
:102ED0002B408D892B43CD892B4383800483CD8860
:102EE0008586028470BD70B5002400220023058C05
:102EF0004FF6EF7635400584028C8388048B48F6C4
:102F0000FF752C404FF6FF452C400D884FF6FF769D
:102F100006EA05252C434FF6DF752A400D8906EA9F
:102F200005152A434D8806EA05152A43444DA84253
:102F300002D0494DA8421DD14FF67F752A404D89D8
:102F40004FF6FF7606EA05152A434FF6BF752A406D
:102F50008D8806EA05152A434FF6FF352B404FF2C0
:102F6000FF752B408D8906EA85052B43CD8906EA3E
:102F700085052B4383800483CD880587028470BD3B
:102F800070B5002400220023058C4FF6FF66354003
:102F90000584028C8388848B4FF68F752C404FF606
:102FA000FC752C400D882C434FF6FF552A400D89A7
:102FB0004FF6FF7606EA05252A434D8806EA0525E1
:102FC0002A431F4DA84202D0234DA8421DD14FF2E3
:102FD000FF752A404D894FF6FF7606EA05252A43FC
:102FE0004FF6FF352A408D8806EA05252A434EF61E
:102FF000FF752B404DF6FF752B408D8906EA0515B0
:103000002B43CD8906EA05152B4383808483CD8825
:103010008587028470BD70B5002200230024058CD2
:103020004EF6FF7635400584038C8488828B48F603
:10303000FF752A404FF6FF452A400D8820E000002A
:10304000002C01400004004000080040000C00403B
:10305000001000400014004000340140004C0140CA
:10306000005001400054014000180040001C004086
:103070000020004000400140004401400048014061
:103080004FF6FF7606EA05252A434DF6FF752B40DD
:103090000D8906EA05352B434D8806EA05352B4395
:1030A000FA4DA84202D0FA4DA84208D14BF6FF755E
:1030B0002C408D894FF6FF7606EA85152C438480D7
:1030C0008283CD88A0F84050038470BD828B4FF27C
:1030D000FF331A408283828B4FF6FF7303EA01238A
:1030E0001A4382837047F0B50C4615460022002132
:1030F0000026078C4EF6FF7C07EA0C070784828BBC
:10310000018C4FF6FF7707EA043640F6FF473A4056
:103110004FF6FF7707EA05273A434FF6FF7707EAAE
:1031200003373A43D94FB8420ED0D94FB8420BD0EB
:10313000B0F1804F08D0D74FB84205D0D64FB84233
:1031400002D0D64FB84206D14DF6FF77394046F44B
:103150008057394305E047F6FF57394044F480571C
:10316000394382830184F0BD828B4FF6F3731A409A
:103170008283828B0A4382837047F0B50C461546E2
:10318000002200210026078C4FF6FF6C07EA0C078F
:103190000784828B018C4FF6FF7707EA04264FF6EF
:1031A0000C773A404FF6FF7707EA03172F433A436D
:1031B000B64FB8420ED0B64FB8420BD0B0F1804FE8
:1031C00008D0B44FB84205D0B34FB84202D0B34F85
:1031D000B84206D14FF6FF57394046F4807739435D
:1031E00005E04FF2FF57394044F48077394382833A
:1031F0000184F0BD028B4FF2FF331A400283028B31
:103200004FF6FF7303EA01231A4302837047F0B5B8
:103210000C461546002200210026078C4FF6EF7C55
:1032200007EA0C070784028B018C4FF6FF7707EA49
:10323000041640F6FF473A404FF6FF7707EA033798
:103240003A434FF6FF7707EA05273A438F4FB842D4
:103250000ED08F4FB8420BD0B0F1804F08D08D4FB9
:10326000B84205D08C4FB84202D08C4FB84206D13C
:103270004FF6DF77394046F01007394305E04FF647
:103280005F77394044F01007394302830184F0BD71
:10329000028B4FF6F3731A400283028B0A430283B8
:1032A0007047F0B50C46154600220021068C4FF6FB
:1032B000FE773E400684028B018C4FF60C7632403E
:1032C0007E1C06EA03162E433243704EB0420ED0E7
:1032D0006F4EB0420BD0B0F1804F08D06D4EB0426F
:1032E00005D06D4EB04202D06C4EB04206D14FF6C2
:1032F000FD76314044F00106314305E04FF6F576A6
:10330000314044F00106314302830184F0BD70B5C1
:1033100005460C465D4885420ED05D4885420BD07F
:10332000B5F1804F08D05B48854205D05A488542A8
:1033300002D05A48854200D100E000BF208850B931
:103340002389A28861882846FFF7ABFFE1882846D9
:10335000FFF79EFF25E0208804280AD12389A28850
:1033600061882846FFF753FFE1882846FFF742FFB0
:1033700017E0208808280AD12389A2886188284676
:10338000FFF7FBFEE1882846FFF7EEFE09E0238900
:10339000A28861882846FFF7A6FEE1882846FFF745
:1033A00095FE70BD2DE9F04105460C46002601272B
:1033B000608808B9022600E00026A088012801D113
:1033C000022700E001272088A0B92389A28861880C
:1033D0002846FFF766FFE1882846FFF759FF238953
:1033E0003A4631462846FFF712FFE1882846FFF7A4
:1033F00001FF13E02389A28861882846FFF707FFB1
:10340000E1882846FFF7F6FE23893A4631462846EA
:10341000FFF747FFE1882846FFF73AFFBDE8F08154
:103420000A884B881A438B881A43CB881A430B8926
:103430001A434B891A438B891A43A0F844207047DA
:103440004FF6FF71818000210180C18041800172AF
:1034500070470021018041808180C18001814181CC
:103460008181C181704700210180418001218180DB
:103470000021C1800181704700210180418081804D
:10348000C18001814181818170470000002C014091
:10349000003401400004004000080040000C0040DF
:1034A00021B1028842F00102028004E002884FF656
:1034B000FE731A400280704731B1B0F8442042F4E4
:1034C0000042A0F8442005E0B0F84420C2F30E0208
:1034D000A0F8442070471AB183890B43838102E02E
:1034E00083898B43838170478182704741EA02035D
:1034F000A0F8483070471AB183890B43838102E0FA
:1035000083898B438381704701894FF6F87211409C
:10351000018170470A46002101894FF68F731940D7
:1035200011430181704730B504460D4629462046B7
:10353000FFF7F0FF208940F00700208130BD2DE922
:10354000F04104460D4616461F46602D06D13B4607
:10355000012231462046FFF75AFE05E03B46012294
:1035600031462046FFF79DFE29462046FFF7D2FF51
:10357000208940F007002081BDE8F08130B50C467D
:1035800000210189C9B24FF6FF7505EA03251543ED
:1035900025432943018130BD2DE9F04105460E4602
:1035A00017469846002443463A4631462846FFF7D8
:1035B000E5FF2C894FF6F870044044F007044FF6FD
:1035C0008F70044044F070042C81BDE8F081F0B5A8
:1035D00004460D4616461F463B46324629462046BF
:1035E000FFF7CCFF208940F480402081F0BD0185A9
:1035F000828270470A46002101884FF68F73194076
:10360000114301807047F0B50C4615461E46002157
:10361000002200230189028B038C4FF6F877394092
:1036200021434FF6FC473A4040F201173A434FF628
:10363000DD773B404FF6FF7707EA06172F433B4302
:10364000018102830384F0BD0A460021018B4FF6FD
:103650008F7319401143018370470A460021018B83
:1036600048F6FF7319404FF6FF7303EA022319432C
:10367000018370470A460021818B4FF68F731940F2
:103680001143818370470A460021818B48F6FF73FE
:1036900019404FF6FF7303EA0223194381837047F1
:1036A00021B1028842F08002028004E002884FF6D5
:1036B0007F731A400280704721B1828842F0040271
:1036C000828004E082884FF6FB731A408280704744
:1036D00021B1828842F00802828004E082884FF69D
:1036E000F7731A408280704721B1828842F001024C
:1036F000828004E082884FF6FE731A408280704711
:103700000A460021018B4FF6F773194011430183DC
:1037100070470A460021018B4FF2FF7319404FF6A4
:10372000FF7303EA02231943018370470A4600210D
:10373000818B4FF6F77319401143818370470A4616
:103740000021818B4FF2FF7319404FF6FF7303EA9C
:1037500002231943818370470A460021018B4FF6EB
:10376000FB7319401143018370470A460021018B06
:103770004FF6FF3319404FF6FF7303EA0223194354
:10378000018370470A460021818B4FF6FB73194075
:103790001143818370470A460021818B4FF6FF3326
:1037A00019404FF6FF7303EA0223194381837047E0
:1037B0000A460021018B4FF67F73194011430183A4
:1037C00070470A460021018BC1F30E014FF6FF73CB
:1037D00003EA02231943018370470A460021818BC3
:1037E0004FF67F7319401143818370470A460021C9
:1037F000818BC1F30E014FF6FF7303EA02231943D5
:10380000818370470A460021018C4FF6FD731940F1
:103810001143018470470A460021018C4FF6F7736B
:1038200019401143018470470A460021018C4FF66C
:10383000DF7319404FF6FF7303EA02131943018443
:1038400070470A460021018C4FF67F7319404FF6EE
:10385000FF7303EA02131943018470470A460021EB
:10386000018C4FF6FF5319404FF6FF7303EA022312
:103870001943018470470A460021018C4FF2FF73FF
:1038800019404FF6FF7303EA02231943018470477E
:103890000A460021018C4DF6FF7319404FF6FF7365
:1038A00003EA023319430184704730B50023012431
:1038B0008C40A3B2048C9C430484048C02FA01F56E
:1038C000ADB22C43048430BD30B5002304248C40B9
:1038D000A3B2048C9C430484048C02FA01F5ADB2BB
:1038E0002C43048430BD70B50346002000241846E4
:1038F000183001258D40ACB21D8CA5431D8409B143
:10390000082909D100EB6100056825F07005056004
:103910000568154305600EE00D1FC5F34E052844EC
:10392000056825F4E045056005684FF6FF7606EA70
:1039300002263543056070BD21B1028842F00202C3
:10394000028004E002884FF6FD731A40028070473F
:1039500021B1028842F00402028004E002884FF69E
:10396000FB731A400280704721B1828842F08002C6
:10397000828004E082884FF67F731A40828070470D
:1039800002884FF6F7731A40028002880A430280C9
:10399000704782884FF68F731A40828082880A436C
:1039A0008280704702894FF6F8731A4002810289BB
:1039B0000A430281704702894FF67F731A400281E1
:1039C00002890A430281704781847047818570476C
:1039D000818670470187704781877047A0F8401043
:1039E000704702884FF6FF431A40028002880A435C
:1039F000028070470146888E70470146088F7047E5
:103A00000146888F70470146B1F840007047014673
:103A1000888C70470146088D704702460020138A43
:103A20000B400BB1012000E000207047CA43028226
:103A3000704730B50246002000230024158A05EAAD
:103A40000103958905EA010413B10CB1012000E0DE
:103A5000002030BDCA4302827047000001460020AA
:103A6000FE4A106800F03800084310607047FB49B8
:103A7000096821F00801F94A1160114609680143FB
:103A800011607047F549096821F01001F34A11608F
:103A900011460968014311607047F148EF494860D9
:103AA000F04848607047EE48EC494860ED4848608F
:103AB0007047EA48006940F08000E84908617047B3
:103AC000E648006940F08000E4490861704704203E
:103AD000E249C96801F0010109B101200EE0DF49A6
:103AE000C96801F0040109B1022007E0DB49C96897
:103AF00001F0100109B1032000E00420704700B577
:103B000002460423FFF7E3FF034603E0FFF7DFFF6E
:103B10000346521E012B01D1002AF7D102B9052319
:103B2000184600BD30B5044604254FF43020FFF799
:103B3000E6FF0546042D17D1C848006940F0020091
:103B4000C649086108464461006940F040000861C8
:103B50004FF43020FFF7D3FF0546C048006941F617
:103B6000FD710840BD490861284630BD10B50424E8
:103B70004FF43020FFF7C3FF0446042C16D1B7489A
:103B8000006940F00400B54908610846006940F04A
:103B9000400008614FF43020FFF7B1FF0446AF4802
:103BA000006941F6FB710840AC490861204610BD30
:103BB00000B502460423FFF78AFF034603E0FFF740
:103BC00086FF0346521E012B01D1002AF7D102B90C
:103BD0000523184600BD10B504244FF43020FFF72C
:103BE000E7FF0446042C16D19C48006940F004000D
:103BF0009A4908610846006940F0400008614FF4A6
:103C00003020FFF7D5FF04469448006941F6FB7168
:103C1000084092490861204610BD00208F49C969BB
:103C200001F0020109B1012000E00020704730B529
:103C3000A5250424FFF7F1FF00B100254FF4302043
:103C4000FFF75DFF0446042C3AD18548834988601C
:103C5000844888600846006940F0200008610846F2
:103C6000006940F0400008614FF43020FFF747FF43
:103C70000446042C1BD17948006941F6DF710840E5
:103C8000764908610846006940F0100008617648EE
:103C90000580E002FFF733FF0446052C10D06F4883
:103CA000006941F6EF7108406C49086108E0052C95
:103CB00006D06A48006941F6EF710840674908611B
:103CC000204630BD78B506460C46042500200090FD
:103CD000E802FFF714FF0546042D24D15F48006970
:103CE00040F001005D4908613480E802FFF707FFFA
:103CF0000546042D10D1B01C0090200C00990880BE
:103D0000E802FFF7FCFE05465448006941F6FE71E3
:103D100008405249086106E05048006941F6FE71CA
:103D200008404E490861284678BD70B504460D46E6
:103D30000426F002FFF7E3FE0646042E11D14748A1
:103D4000006940F00100454908612580F002FFF755
:103D5000D6FE06464148006941F6FE7108403F49DB
:103D60000861304670BD70B505460E460424E00279
:103D7000FFF7C5FE0446042C17D13948374988603F
:103D8000384888600846006940F0100008612E80BD
:103D9000E002FFF7B4FE0446052C06D02F48006968
:103DA00041F6EF7108402D490861204670BD2DE9AC
:103DB000F04304464FF6FF763746B046B146042539
:103DC000E443E6B2C4F30727C4F307484FEA146993
:103DD000E802FFF794FE0546042D49D120481F490B
:103DE0008860204888600846006940F0100008613B
:103DF000FF2E06D01C4808300680E802FFF77FFE41
:103E00000546042D08D1FF2F06D017480A30078039
:103E1000E802FFF774FE0546042D0AD1B8F1FF0F42
:103E200007D011480C30A0F80080E802FFF767FEC9
:103E30000546042D0AD1B9F1FF0F07D00A480E300C
:103E4000A0F80090E802FFF75AFE0546052D0FD0B6
:103E50000248006941F6EF71084007E00020024087
:103E600023016745AB89EFCD00F8FF1F6649086164
:103E70002846BDE8F08330B5054604244FF43020D1
:103E8000FFF73DFE0446042C41D160485E4988603E
:103E90005F4888600846006940F0200008610846D5
:103EA000006940F0400008614FF43020FFF727FE22
:103EB0000446042C22D15448006941F6DF710840C1
:103EC000514908610846006940F0100008611DB1C1
:103ED00000205049088002E0A5204E4908804FF498
:103EE0003020FFF70CFE0446052C10D04648006930
:103EF00041F6EF7108404449086108E0052C06D0FE
:103F00004148006941F6DF7108403F490861204699
:103F100030BDF0B505460E46174604243B483A49E5
:103F200088603B488860E002FFF7E9FD0446042C06
:103F300019D13548006940F010003349086147F055
:103F4000F800304328433349891C0880E002FFF71A
:103F5000D6FD0446052C06D02B48006941F6EF71CA
:103F60000840294908612046F0BD2748C0698008FB
:103F700070472548006A704700202349096801F00E
:103F8000200109B1012000E00020704729B11E4A3C
:103F9000126902431C4B1A6104E01B4A12698243F6
:103FA000194B1A61704701460020012908D1164AB1
:103FB000D26902F001020AB1012008E0002006E007
:103FC000114AD2680A400AB1012000E0002070477F
:103FD0000D49C860704704200B49C96801F0010110
:103FE00009B101200EE00849C96801F0040109B1D6
:103FF000022007E00449C96801F0100109B103205B
:1040000000E00420704700000020024023016745C3
:10401000AB89EFCD00F8FF1F002044490860091D5F
:104020000860091D0860091D086041483F491431B6
:104030000860704700213D498279002A3AD00A463B
:10404000126803689A430B461A600A1D12680368D7
:104050009A430B1D1A60027911440A6803681A43D7
:104060000A60324A0832126803689A432F4B0833B9
:104070001A601A1D126803689A432C4B0C331A609D
:104080004279102A0ED11A1F126803681A43274B6F
:1040900008331A601A1D126803681A43234B0C3345
:1040A0001A600DE02149427911440A6803681A43F5
:1040B0000A6005E0027911440A6803689A430A60BD
:1040C00070470021016001710C2141710021817153
:1040D00070471649103109680143144A10321160C3
:1040E000704701460020114A143212680A400AB192
:1040F000012000E0002070470C491431086070472F
:10410000014600200022094B1B6803EA0102074B0D
:1041100014331B680B4013B10AB1012000E00020EA
:1041200070470249143108607047000000040140E4
:10413000FFFF0F00704700000FB4044910B503AA39
:10414000029800F015F810BC5DF814FB1400002074
:10415000704770477047704710B500F01BF8006853
:1041600010BD10B5044600F015F8046010BD000045
:10417000074B70B50D467B4400F015F80446284601
:1041800000F024F810B14FF0FF3070BD204670BD34
:1041900001C3FFFF004870473C01002001694A1C31
:1041A00002610878704700B58FB0CDE90131002178
:1041B000059105497944CDE903101146684600F0A0
:1041C00032F80FB000BD0000E5FFFFFF007B00F0FC
:1041D00080007047004870473C0100207546FFF79B
:1041E000F9FFAE4605006946534620F007008546B4
:1041F00018B020B5FDF720FFBDE820404FF00006C5
:104200004FF000074FF000084FF0000B21F00701BE
:10421000AC46ACE8C009ACE8C009ACE8C009ACE801
:10422000C0098D4670472DE9F04106460024D6E9C5
:104230000170F5688046304603E04146B847641C8B
:104240003046A8470028F8D12046BDE8F081044652
:10425000AFF300802046FBF7B2FF490050EAC120CF
:1042600018BF04204A0D18BF40F0010040F2FF7251
:10427000B2EB515F08BF40F00200012808BF0520E3
:10428000704700002DE9F74F144694B00021C4E9AF
:1042900002111599079121F00045C9498D4206DCAC
:1042A0001599C4E9000117B00020BDE8F08FC54999
:1042B000DFF814A3A9423CDD0799C44E0029C44F7E
:1042C000C44A1599534619DD00F068FF554506D0DC
:1042D000C14AC24B00F062FFC4E900010AE04FF09E
:1042E000D352BE4B00F05AFF32463B4600F056FF19
:1042F000C4E9000117B00120BDE8F08F00F064FBB5
:10430000554506D0B44AB54B00F05EFBC4E9000148
:104310000AE04FF0D352B14B00F056FB32463B4619
:1043200000F052FBC4E9000117B04FF0FF30BDE8C8
:10433000F08FAB49A942159978DB21F00041834603
:104340008846A84AA84B00F0E9FD0022A74B00F0E0
:104350003BFB00F04DFD099000F079FD06460F464D
:104360009C4A534600F0DAFD43465A4600F00AFFE5
:1043700080468A46984A994B3046394600F0CEFD31
:104380002A0D01250B924246534600F0FBFE032DF9
:10439000C4E9000139D00B98C1F30A51401A05EB6A
:1043A00045111139814230DA9148C346784400EB17
:1043B0000510CDF80CA00C90D0E90023304639460A
:1043C00000F0ACFD02460B46049106905846039956
:1043D00000F0E4FE80468A4602460B4658460399A2
:1043E00000F0DCFE049B069A00F0D8FE83460C9891
:1043F00003913946D0E90223304600F08FFD5A463A
:10440000039B00F0CBFE6D1CBDE707980028A2BF00
:10441000099817B0BDE8F08F616881F000416160D4
:10442000099817B04042BDE8F08FFFE78446159821
:10443000C1F31301C0F30A50A0F2F5304FEA60183F
:1044400000F01F06C6F12000139000200690079090
:1044500041F4801E05206D4676B1664A08EB0001E6
:104460007A4452F8213002EB8101B3404A68139933
:1044700022FA01F1194305E05F4908EB0002794493
:1044800051F82210A1FB0E27A1FB0C131A449A42EB
:1044900034BF0123002303EB070A05EB8003D3E9B4
:1044A00001B70F448F4234BF0121002193448B4454
:1044B00011B1934502D903E0934501D2012100E0F7
:1044C0000021C3E901B7514445F82010011EA0F1B5
:1044D0000100C1DC0298059F00F10050800F12908E
:1044E0000298DDE90356800000F0B1FC83462846BF
:1044F0000D9100F0C3FC6FF01D0201F0A0F9CDE9B1
:104500000E01304600F0BAFC6FF03D0201F097F961
:1045100080468A46384600F0B1FC6FF05D0201F03B
:104520008EF9074642465346119100F04DFADDE9F7
:104530000E2300F049FA5A460D9B00F045FA00257B
:104540000E465A4628460D9B00F028FEDDE90E2354
:1045500000F024FE4246534600F020FE3A46119BEE
:1045600000F010FEDFF898A0244A534600F0D6FC75
:1045700007468846234A244B3146284600F0CEFCA5
:104580003A46434600F020FA074688464FF0A842D4
:1045900053463146284600F0C1FC3A46434600F0F7
:1045A00013FA159A12F0004F04D0129A81F00041CC
:1045B00052421292C4E90001129817B0BDE8F08F80
:1045C000FB21E93F7CD90240FB21F93F7370032EA8
:1045D0008A19A33B000040543163621A61B4D03D94
:1045E000FB21394183C8C96D305FE43F0000E03FE3
:1045F00078260000F4250000D6250000182D44542C
:10460000FB21F93D3326A611460B113C2DE9FF4D48
:1046100021F0004807460C46B8F1795F08DA00F04F
:10462000E7FB002801BF0020324904B0BDE8F08D4F
:104630003A4623461046194600F070FC05460246ED
:104640002D480E460B460621784400F05DF82A46B8
:10465000334600F063FCDDE9022382468B46384690
:10466000214600F05BFC04460F4652465B46284656
:10467000314600F053FC22463B4600F08FFD0746D2
:104680008A464FF0FF322846314601F0D8F81B4ADF
:1046900090450ADA3A46534600F080FD04B0002205
:1046A000BDE8F04D134B00F06DBD154A4245A8BF63
:1046B000A8F500154FF00004B8BF124D22462B4656
:1046C00000F06CFD0646884622462B46002009492C
:1046D00000F064FD04460D463A46534630464146D6
:1046E00000F05CFD04B022462B46BDE8F04D00F022
:1046F00049BD00000000F03FAC2300003333D33F3E
:104700000000E93F0000D23F2DE9F0414F1E00EBD1
:10471000C7010446D1E9000115461E4637F00602DE
:104720000DD02A46334600F0F9FB7F1E04EBC70389
:10473000D3E9002300F048F937F00602F1D1022F47
:1047400025D0042F13D0062F18BFBDE8F0812A46CC
:10475000334600F0E3FBD4E90A2300F035F92A469A
:10476000334600F0DBFBD4E9082300F02DF92A469C
:10477000334600F0D3FBD4E9062300F025F92A469E
:10478000334600F0CBFBD4E9042300F01DF92A46A0
:10479000334600F0C3FBD4E9022300F015F92A46A2
:1047A000334600F0BBFBD4E90023BDE8F04100F044
:1047B0000BB900002DE9FF4D054621F0004084B003
:1047C0000C46B0F1795F0BDA2846FFF746FD042866
:1047D00008BF00F06FF8284608B02146BDE8F08D0C
:1047E0002A460B46104600F099FB06460F462A461D
:1047F000234600F093FB804626488A4632463B46D5
:1048000005217844FFF780FF83461098029160B33A
:10481000214A224B4046514600F080FBCDE9000181
:104820005A4640465146029B00F078FB8246884635
:10483000DDE906014FF0FF3201F001F85246434630
:1048400000F0ACFC32463B4600F068FBDDE9062395
:1048500000F0A4FCDDE9002300F0A0FC08B02A462B
:104860002346BDE8F04D00F08DBC0B465A4630465D
:10487000394600F053FB084A084B00F0A5F84246C1
:10488000534600F04BFB08B02A462346BDE8F04DE6
:1048900000F09AB8EA220000495555555555C5BF54
:1048A000012200F0CCBF002213461046114600F052
:1048B00047B90000024A0020110700F0C0BF000005
:1048C00001FDFFFF00B5254B21F0004287B09A4261
:1048D00003DC0022134600922BE0214B9A4208D1C0
:1048E00040B94FF00100FFF73CFCFFF7DCFF07B0D9
:1048F00000BD03DBFFF7D4FF07B000BD02AAFFF73E
:10490000C1FC10F003014FF001000DD0012914D0BB
:1049100002291AD00DF1080C9CE80F00FFF776FE73
:1049200007B081F0004100BD0DF1080C00909CE83B
:104930000F00FFF73FFF07B000BD0DF1080C9CE82A
:104940000F00FFF763FE07B000BD0DF1080C0090EB
:104950009CE80F00FFF72EFFE2E70000FB21E93F94
:104960000000F07F21F00042A2F16052B2F5801FFA
:1049700001F0004328BFD2F17F6C0BD95FEA001C25
:1049800043EAC20242EB507018BF704728BF20F0C4
:1049900001007047B2F5801FBCBF184670474FEA50
:1049A000410C1CF5001F02D2084600F061BE70B534
:1049B00000F05EFB00000089FFF7F6BF4FF00040FB
:1049C000A0F580007047000010B591EA030F48BFC2
:1049D00083F0004300F1EA83841A71EB030C05D2E3
:1049E000121943EB0C03001B61EB0C01DFF824E10F
:1049F0004FEA1154A4EB135C1EEA430F18BF9EEA62
:104A0000445F73D023EA0E03DCF1200E21EA045147
:104A100043F4801332D322FA0CFE10EB0E0023FA7B
:104A20000CFE41EB0E01CCF1200E03FA0EFE10EB52
:104A30000E0051F10001B1F5801FCCF1200E32D2F1
:104A400001EB045112FA0EF2BDE8104058BF704756
:104A5000401C38BF5FEA420218BF7047002814BFED
:104A600020F0010041F100014FEA410313F5001F5E
:104A700038BF7047A1F1C04100F048BB012A43EBA9
:104A80000302ACF1200CDCF11F0E32BF4FF0000E20
:104A900023FA0CF310EB030041EB0451B4EB115F6C
:104AA000D0D0A1EB045101F5801149085FEA300034
:104AB00001EB04510ED350F1000038BF12FA0EFE84
:104AC00008D1BDE81040C9E7401C38BF5FEA420288
:104AD000CAD1C3E7BDE810404FEA410313F5001FF8
:104AE00038BF7047A1F1C04100F010BB9EEA445F9F
:104AF00008D011EA5E0FBDE8104004BF01F000418C
:104B000000207047BDE8104070B500F0B1FA00BF5A
:104B100064FBBE3E0000E0FF02494FF0000000F0E1
:104B20005CBE00BF0000F87F491058BFC1F1404192
:104B30005B1058BFC3F140438B42EFF300807047D6
:104B40002DE9C04130B4DFF8A0C23CEA111418BF0F
:104B50003CEA131400F0EC8081EA03051CEA11140E
:104B600044EAD57418BF1CEA131500F0C780A4EB03
:104B700005044FF0004545EAC12145EAC32341EA57
:104B8000505143EA525304F17F74994204F50034C2
:104B90004FEAC0204FEAC22208BF904200F09C803A
:104BA0004FEA13650FF24016765D4FEA134506FB98
:104BB00005F7C7F1807706FB07F74FEAD737A7FB62
:104BC00003687642C8F58038A7FB06CE38BFA8F147
:104BD000010807FB08E64FF0000EA6FB028CE6FB7F
:104BE00003CEDCF1000CCEF1004E38BFAEF1010E69
:104BF000A6FB0C584FF000074FF00005E6FB0E87B0
:104C0000A1FB08C6A0FB07CE16EB0E0645F100057A
:104C1000E1FB076515F1E04E7EBFA4F580345FEA45
:104C200046066D4116F1800745F100054FEA17274A
:104C30004FEA066647EA0567A6F1DE46B6F1805FF1
:104C40004FEA15251FD9384624F0010C05EBC47135
:104C5000BCF1FE6F01EB0C1102D8F0BCBDE8008185
:104C600024425CBF01F5801E9EEAC47F02D4F0BCE2
:104C7000BDE80081244238D4F0BCA1F1C041BDE8B8
:104C8000004100F043BA4FEAD22242EA43524FEACF
:104C9000D323A7FB02864FEAD02040EA415007FB0E
:104CA00003661EEA0E0F4FEAD12105FB026658BFCC
:104CB000A6EB0056B6EB00564FEA520E4EEAC37E04
:104CC00018EB0E0E56EB530EBDD518EB02085E41E5
:104CD0007F1C55F10005B6E74FF480154FF0000733
:104CE0004FF000064FF00008ADE7F0BC4FF00000B9
:104CF00001F1C04101F00041BDE8008111EA0C1F43
:104D00000CEA131500D00CE013EA0C1F00F025800C
:104D10004FF00000F0BC81EA030101F00041BDE862
:104D20000081F0BCBDE8004181EA030100F0EEB96A
:104D3000F0BCBDE8004170B500F09AF9097EFC3E78
:104D400000F007B881EA03014FF0000001F00041D4
:104D5000704781EA030100F0D9B9F0BCBDE8004119
:104D60004FF0000021497047FFFDFBF9F7F5F4F221
:104D7000F0EEEDEBE9E8E6E4E3E1E0DEDDDBDAD8F6
:104D8000D7D5D4D3D1D0CFCDCCCBCAC8C7C6C5C454
:104D9000C2C1C0BFBEBDBCBBBAB9B8B7B6B5B4B36B
:104DA000B2B1B0AFAEADACABAAA9A8A8A7A6A5A456
:104DB000A3A3A2A1A09F9F9E9D9C9C9B9A9999981A
:104DC0009797969595949393929191908F8F8E8EBD
:104DD0008D8C8C8B8B8A898988888787868585844A
:104DE00084838382828181800000FF070000F87F36
:104DF0004FEA41034FEA5353A3F58063D3F11E03F7
:104E0000C8BFD3F1210C0CDD4FF0004242EAC122B1
:104E100042EA505232FA03FC8CEAE17CACEBE170DE
:104E20007047102BC4BF0020704703F5787CBCF19D
:104E3000FF3F04D06FF0004282EA2100704770B556
:104E400000F016F94992248000207047F2E710F034
:104E5000004248BF4042B0FA80F310FA03F10AD092
:104E6000C3F11D0303F580634FEA415002EB035287
:104E700002EBD12170474FF000007047B0FA80F389
:104E800010FA03F10AD0C3F11D0303F580634FEA62
:104E900041504FEA035202EBD12170474FF000001E
:104EA0007047000051EA030C17D41CF5801F58BF4F
:104EB000BCF5801F00F10680994218BF704708BFFB
:104EC0009042704707D711F5801F58BF13F5801F18
:104ED00019D499427047894270471CF5801F08D544
:104EE000BCF5801FF7D58B4218BF704708BF8242C0
:104EF00070474FF4001C1CEB410F38BF1CEB430FF5
:104F000001D28B42704770B500F0B2F8922449008C
:104F10004FF000514FF08053FFF706BEDFF848C155
:104F200070B51CEA111E1EBF1CEA13159EEA0C0F79
:104F300095EA0C0F00F06F8081EA030423EA4C131A
:104F40004EEAD47E21EA4C1141F4801143F48013DF
:104F5000AE44A1FB024CA0FB0365AEF17F7E361987
:104F600055EB0C05A1FB034C4CF10003A0FB021C0C
:104F700016EB0C06654153F10003094218BF46F0D9
:104F8000010613F4007F0BD14FEA03314FEA0530DD
:104F9000340341EA155140EA16506FF003020AE06B
:104FA0004FEAC3214FEAC520F40241EA555140EAD5
:104FB00056506FF0020202EB2E4201EB025585EAD9
:104FC000CE710AD05FEA440C18BF24F0004450F1BF
:104FD000000041F1000120EAD47040F2FE7C6245FD
:104FE00000D270BDA84214BF4FF080444FF040443F
:104FF000002E08BF0024BEF1806FA8BFA1F1C04100
:10500000BDE8704080F282804FF0000001F1C041A5
:1050100001F0004170479EEA0C0F0CEA131518BF0F
:1050200095EA0C0F06D04FF0000081EA030E0EF057
:10503000004170BD00F01CF88900013E00F007B887
:1050400000F009B84FEA430C5FEA5C5C08D081EAE3
:10505000030100F05BB84FEA410C5FEA5C5CF6D1FB
:105060004FF00000014970470000FF070000F87F83
:105070000EF1020E2EF0030E5EF8046B364205D4DC
:10508000012A43EB030515F5001F12D8012841EB57
:10509000010C1CF5001F0CD80ED14FEAD17C15F580
:1050A000001F0CEB4C0C0CF1020C08BF4CEBD37C3A
:1050B00004E04FF0080C01E04FEAD37C0CEB4C0508
:1050C00026FA05F606F00706B6F1040C06D20EEB3A
:1050D000860CBDE870404CF0010C6047DFE80CF036
:1050E000090B02024FF000414FF00000A1F5002132
:1050F00070BD19461046012851EB010418BFD4F5C4
:10510000001484BF002001F0004170BD0808A0F524
:1051100000114FEA3101704753EA010C17D41CF516
:10512000801F58BFBCF5801F00F106808B4218BF5E
:10513000704708BF8242704707D713F5801F58BFDA
:1051400011F5801F19D48B4270479B4270471CF5A4
:10515000801F08D5BCF5801FF7D5994218BF70474E
:1051600008BF904270474FF4001C1CEB430F38BF40
:105170001CEB410F01D2994270470FB40CBC03BC29
:10518000FFF7C1BE91EA030F10B581F000413FF572
:1051900023AC83F0004300F009B8000010B591EA99
:1051A000030F48BF83F000433FF516AC841A71EB40
:1051B000030C07D212198CF0004C43EB0C03001BBC
:1051C00061EB0C01DFF8A4E14FEA1154A4EB135C8E
:1051D0001EEA430F18BF9EEA445F00F0B08023EA46
:1051E0006E03524221EA0451C3EB6E0338BF5B1ECB
:1051F000DCF1200E25D322FA0CFE10EB0E0043FA50
:105200000CFE41EB0E01CCF1200E03FA0EFE10EB6A
:105210000E0051F10001CCF1200E29D412FA0EF249
:1052200001EB0451BDE8104058BF7047401C1CBF43
:10523000B2F1004F704700280CBF491C20F001005C
:10524000704712EB020E43EB030218BF4FF0010E42
:105250004EEA4202ACF1200CDCF11E0E54D943FAA6
:105260000CFE10EB0E0051F1FF31CCF11E0ED5D526
:105270000EF1010E12FA0EFE404141EB010101EB6D
:10528000445C5FEA5C5C10D910EBDE7001EB04510A
:1052900038BFBEF1004FBDE8104018BF704700286E
:1052A0000CBF491C20F00100704730D24FEAD42CCB
:1052B00011F5001124F400641BD0B1FA81F20B3A0D
:1052C000A41AA41ED2F12003914030FA03F319432B
:1052D000904001EBCC71002C01EB0451BDE8104073
:1052E000A8BF704701F1C0414FF0000001F000413C
:1052F0007047B0FA80F310FA03F100D110BDE41A40
:10530000173C4805C90AE4E701EB045110BD4910F8
:1053100001EB0451BDE810404FEA300002E04FF0CD
:10532000000170474A0008BF0042F8D0B2F5001FE4
:1053300028BF704701F000414FF0000070479EEA1F
:10534000445F07D011EA5E0FBDE8104004BF0021A2
:1053500000207047BDE8104070B5FFF789FE00BF20
:1053600040DFF63E83F00041104670470000E0FF4A
:1053700043004FEAD30C4FEA3C0C43401FBF4007A9
:105380000CF1605113F0FE4F70471CF0006F03D119
:1053900000200CF0004170470CF0004343EA5070CD
:1053A00010B540EACC0000F01DF900BF00000092EB
:1053B0004FEA0001FFF7AABE4FF000414FF0000096
:1053C000A1F500217047000090EA010F48BF81F06D
:1053D000004100F19481421A3CBF801A89184FEABB
:1053E000D0524FF07F4C1CEA410FA2EBD15318BFB3
:1053F0009CEA026F00F03B804FF0004C4CEA00202A
:105400004CEA012121FA03FC10EB0C0C1ED202F134
:10541000FF325FEA1C2040EBC25038BF70471CF0DF
:105420007F0F4FEA400C18BFBCF17F4F38BF704769
:10543000C3F12003994008BF20F00100BCF17F4F69
:1054400038BF7047A0F1C04000F012B94FEA3C00ED
:10545000000A40EBC25028BF1CF0FF0F4FEA400C7F
:10546000E6D018BFBCF17F4F38BF7047EAE79CEA2F
:10547000026F05D010EA5C0F08BF00F000407047D3
:1054800010B500F0AFF800BF64FBBE3E401058BF3F
:10549000C0F14040491058BFC1F140418142EFF393
:1054A0000080704750EA010C00F113801CF5000FDA
:1054B00058BFBCF5000F01D48842704707D710F5DC
:1054C000000F58BF11F5000F15D48842704789426C
:1054D00070471CF5000F04D5BCF5000FF7D58142CD
:1054E00070474FF0807C1CEB400F38BF1CEB410F26
:1054F00001D28142704710B500F074F8922449003F
:105500004FF000504FF08051FFF7C0BFC10DD1F1F7
:105510009E0206DB4FEA002343F0004323FA02F029
:105520007047004207D54FEA4001B1F1FE4F02D269
:105530004FF00000704710B500F054F849922480F5
:10554000002070476FEA20007047000010F0004113
:1055500048BF4042B0FA80F310FA03F2C3F19D0352
:105560000BD051EAC35101EB1220530638BF7047EC
:1055700000F1010008BF20F00100704750EA010C63
:1055800000F113801CF5000F58BFBCF5000F01D4CB
:105590008842704707D710F5000F58BF11F5000F6C
:1055A00015D488427047894270471CF5000F04D516
:1055B000BCF5000FF7D5814270474FF0807C1CEBA3
:1055C000400F38BF1CEB410F01D28142704710B52C
:1055D00000F008F8922449004FF000504FF080513D
:1055E000FFF754BF0EF1020E2EF0030E5EF8044BCF
:1055F000244204D44FEA4102B2F17F4F11D84FEA5E
:105600004003B3F17F4F0CD80ED14FEAD07CB2F1FA
:105610007F4F0CEB4C0C0CF1020C08BF4CEBD17C17
:1056200004E04FF0080C01E04FEAD17C0CEB4C0396
:1056300024FA03F404F00704B4F1040C06D20EEBD0
:10564000840CBDE810404CF0010C6047DFE80CF022
:10565000070802024FF00040A0F5800010BD084688
:10566000420018BFD2F1807288BF00F0004010BD28
:10567000FF2141EAD050C005704751EA000C00F10B
:1056800013801CF5000F58BFBCF5000F01D48142F8
:10569000704707D711F5000F58BF10F5000F15D44C
:1056A00081427047894270471CF5000F04D5BCF554
:1056B000000FF7D5884270474FF0807C1CEB410FFC
:1056C00038BF1CEB400F01D28842704780EA0100CE
:1056D00081EA000180EA0100FFF779BF80F0004015
:1056E00090EA010F7FF577AE81F0004100F007B836
:1056F00090EA010F48BF81F000413FF56CAE421ABD
:1057000004D882F00042A0EB020011444FEAD052CC
:105710004FF07F4C1CEA410FA2EBD15318BF9CEA1B
:10572000026F4AD04FF0004C4CEA00204CEA0121B5
:1057300021FA03FCB0EB0C0C0FD412F0FE0F36D0A4
:105740005FEA4C001DD5001240EBC25038BF7047D5
:105750001CF03F0F18BF70470BE0A2F101025FEA97
:105760001C2040EBC25038BF70471CF07F0F18BFA1
:105770007047C3F12003994014BF401E20F0010080
:10578000704780084FEA122308BF7047B0FA80FCC8
:10579000A2EB0C02CCF1280C60FA0CF093EA122F69
:1057A00004BF00EBC25070474FEAC3707047130A42
:1057B0005FEADC1008BF7047F6E79CEA026F04D08E
:1057C00010EA5C0F08BF0020704710B5FFF70AFF12
:1057D00040DFF63E81F0004070470CF00F03092BCC
:1057E00008BF082000F059800A2B0BD0082B18BFE7
:1057F000704708BF1CF0400F0AD04FF000004FF078
:10580000000170471CF0400F18BF4FF00040704778
:105810001CF0100F08D020F0704300F07F4242EAE5
:10582000D3014FEA4370704700F0604021F07F429F
:1058300042EA000201F07F4040EA727070474FF088
:10584000FF0C4CF4E06C1CEA11531CBF9CEA030CE7
:105850009445C2BFDA4201EB02517047002B0DD0D4
:10586000BCF1000F0FD0002A01F00041A4BF41F0AD
:10587000E04141F07F614FF00000704701F00041CE
:105880004FF00000704750EA01334FF09B0C18BFF7
:105890004CF0806C7FF440A970471CF4801F11D03D
:1058A0001CF4E02F03D06FEACC31490070474FF071
:1058B0004050EFF3008222F0704242EA000282F38D
:1058C000008870474FF000007047000000000000A3
:1058D00000000000000000000000000038FCFC3860
:1058E00000000000000D0D000000000E1E00001E54
:1058F0000E00000000000000000020F8F820F8F87A
:105900002000020F0F020F0F0200387C444747CCE3
:105910009800060C0838380F070030300080C0604F
:1059200030000C060301000C0C0080D87CE4BCD8CD
:105930004000070F0808070F080000101E0E0000A7
:10594000000000000000000000000000F0F80C045F
:105950000000000003070C0800000000040CF8F031
:1059600000000000080C0703000080A0E0C0C0E0B9
:10597000A0800002030101030200008080E0E080BB
:105980008000000000030300000000000000000091
:1059900000000000101E0E000000808080808080CB
:1059A0008000000000000000000000000000000077
:1059B00000000000000C0C00000000000080C0602F
:1059C00030000C06030100000000F8F80CC40CF8CD
:1059D000F00003070C080C070300001018FCFC0083
:1059E00000000008080F0F080800080C84C4643C7D
:1059F00018000E0F0908080C0C00080C444444FC65
:105A0000B800040C0808080F0700C0E0B098FCFCC0
:105A10008000000000080F0F08007C7C444444C450
:105A20008400040C0808080F0700F0F84C4444C038
:105A30008000070F0808080F07000C0C0484C47CC2
:105A40003C0000000F0F00000000B8FC444444FC80
:105A5000B800070F0808080F0700387C444444FCCE
:105A6000F800000808080C070300000000303000B0
:105A700000000000000606000000000000303000BA
:105A800000000000080E060000000080C060301812
:105A9000080000000103060C080000202020202040
:105AA000200000010101010101000008183060C060
:105AB000800000080C0603010000181C04C4E43C2C
:105AC00018000000000D0D000000F0F008C8C8F834
:105AD000F000070F080B0B0B0100E0F0988C98F01A
