:020000040800F2
:100000002007002059130008DF010008E101000863
:10001000E5010008E9010008ED010008000000000A
:10002000000000000000000000000000F1010008D6
:10003000F301000800000000F5010008F7010008C6
:100040007313000873130008731300087313000878
:100050007313000873130008E708000873130008FF
:100060007313000873130008731300087313000858
:100070007313000873130008731300087313000848
:100080007313000873130008731300087313000838
:100090007313000873130008731300080D09000898
:1000A0007313000873130008731300087313000818
:1000B0007313000873130008E507000873130008A2
:1000C00073130008731300087313000873130008F8
:1000D0007313000873130008490A0008731300081B
:1000E0002509000873130008731300087313000830
:1000F00073130008731300087313000873130008C8
:1001000073130008731300084512000873130008E6
:1001100073130008731300087313000873130008A7
:100120007313000873130008731300087313000897
:1001300000F002F800F03AF80AA090E8000C8244BF
:100140008344AAF10107DA4501D100F02FF8AFF29C
:10015000090EBAE80F0013F0010F18BFFB1A43F0A5
:1001600001031847143F0000343F0000103A24BF39
:1001700078C878C1FAD8520724BF30C830C144BF0C
:1001800004680C607047000000230024002500264E
:10019000103A28BF78C1FBD8520728BF30C148BFEA
:1001A0000B6070471FB51FBD10B510BD03F0A0F95F
:1001B0001146FFF7F7FF00F008F803F0D2F903B497
:1001C000FFF7F2FF03BC00F007F901F05BF800F065
:1001D00096FA00F07DFC01E000F077FDFCE7704747
:1001E00000BFFEE700BFFEE700BFFEE700BFFEE77F
:1001F00070477047704770470CB500200190009021
:100200006C48006840F480306A49086000BF694863
:10021000006800F4003000900198401C01900098A4
:1002200018B90198B0F5A06FF1D16248006800F4E8
:10023000003010B10120009001E0002000900098F3
:10024000012843D15C48006840F010005A4908601A
:100250000846006820F0030008600846006840F087
:1002600002000860534840685249486008464068A8
:1002700048600846406840F480604860084640682E
:1002800020F47C1048600846406840F4E81048605C
:100290000846006840F08070086000BF454800686C
:1002A00000F000700028F9D04248406820F00300B8
:1002B000404948600846406840F00200486000BF7E
:1002C0003C48406800F00C000828F9D10CBD10B57E
:1002D000FFF792FF10BD10B53648006840F00100EE
:1002E000344908600846406834490840314948604C
:1002F00008460068324908402E49086008460068F0
:1003000020F4802008600846406820F4FE00486021
:100310004FF41F008860FFF7DAFF4FF000602949B3
:10032000086010BD10B5002100200022214B5B6841
:1003300003F00C0121B1042906D0082928D107E0D7
:10034000214B224C236027E01F4B204C236023E0ED
:10035000184B5B6803F47010164B5B6803F4803233
:10036000022303EB904022B9194B4343174C2360FF
:100370000DE0104B5B6803F4003323B1144B43438F
:10038000124C236003E0104B4343104C236003E006
:100390000D4B0E4C236000BF00BF064B5B68C3F3E0
:1003A00003130C4CE15C094B1B68CB40074C2360EA
:1003B00010BD000000100240002002400000FFF8C5
:1003C000FFFFF6FE08ED00E000127A0000000020BA
:1003D00000093D0004000020014600BF704700BF37
:1003E000D34A128802F04002002AF9D0C2B2D04BA0
:1003F0001B1D1A80704710B501F07CF94FF4803056
:1004000001F098F901F0D5F90446012C24D110200F
:1004100002F0D6FC022002F0BFFC002001F00FFA2F
:10042000002001F01EFAA00201F012FA4FF4E011D0
:10043000200401F0E7F9012001F0F0F900BF3920B4
:1004400001F09BF90028FAD0022001F0EAF900BF80
:1004500001F0F0F90828FBD110BD00B585B00121ED
:10046000052001F0B5FA0121880301F0B1FAB04886
:1004700001F012FB4FF40070ADF8100018208DF859
:10048000130003208DF8120004A9AA4800F0E4FF2D
:100490004FF48060ADF8100004208DF8130004A91B
:1004A000A44800F0D9FF4FF4E13000900020ADF8EF
:1004B0000400ADF80600ADF80800ADF80C000C2003
:1004C000ADF80A0069469A4801F029FB002240F283
:1004D0002771974801F0BBFB0121954801F0ABFB68
:1004E0004021934801F08FFC05B000BD00B585B0F8
:1004F0000121042001F06CFA0121480401F075FA91
:100500000420ADF8100003208DF8120018208DF89B
:10051000130004A9874800F09FFF0820ADF81000E1
:1005200004208DF8130004A9824800F095FF4FF4D1
:10053000165000900020ADF80400ADF80600ADF8AC
:100540000800ADF80C000C20ADF80A0069467A48A6
:1005500001F0E5FA012240F22551774801F077FBDE
:100560000121754801F067FB05B000BD30B589B0C9
:1005700005460C460121022001F037FA012108202E
:1005800001F026FA0320ADF820008DF82200182093
:100590008DF8230008A9694800F05EFFADF81850F7
:1005A000ADF814400020ADF81A00ADF8160005A90A
:1005B000634801F0B7FD6020ADF804000120ADF8FC
:1005C00006000020ADF80A00ADF80C0001A95C4857
:1005D00001F074FE01A95A4801F0BBFE0121584800
:1005E00002F008F90821564802F03EFA0821544862
:1005F00002F043FA0121524802F0F0F9012150487B
:1006000002F0ECF809B030BD0EB50121042001F074
:10061000ECF94720ADF800000020ADF8020042F2EE
:100620001070ADF804000020ADF806008DF8080049
:100630006946444801F076FD0121424802F094FBEE
:10064000012211463F4802F0E4F801213D4802F042
:10065000C5F80EBD0EB50121082001F0C6F94720EE
:10066000ADF800000020ADF8020042F21070ADF8C5
:1006700004000020ADF806008DF8080069463248F5
:1006800001F050FD0121304802F06EFB01221146BD
:100690002D4802F0BEF801212B4802F09FF80EBD54
:1006A00008B54FF4A06001F0FBFB26208DF8000098
:1006B00000208DF801008DF8020001208DF8030064
:1006C000684601F0F2FB32208DF8000001208DF821
:1006D00001008DF802008DF80300684601F0E5FB8B
:1006E0001E208DF8000002208DF801008DF8020018
:1006F00001208DF80300684601F0D7FB08BD10B556
:10070000FFF779FEFFF7CCFFFFF7A7FEFFF7EEFE3E
:1007100000F01CF800F01AF900F07CF8482144F6CB
:100720001F60FFF723FFFFF76FFFFFF793FF10BD79
:10073000003801400008014000440040000C014026
:100740000004004000080040000C004008B50121F2
:10075000242001F03DF94FF48070ADF80000102026
:100760008DF8030003208DF802006946244800F04C
:1007700073FE4FF48071224800F01BFF0420ADF897
:10078000000069461F4800F067FE04211D4800F084
:1007900010FF08BD10B51C48006810B101280AD12F
:1007A00004E00421174800F004FF05E00421154887
:1007B00000F001FF00E000BF00BF1448006810B166
:1007C00001280CD105E04FF480710D4800F0F1FED6
:1007D00006E04FF480710A4800F0EDFE00E000BF33
:1007E00000BF10BD10B50121094802F0C0FA28B1C0
:1007F000FFF7D0FF0121064802F0CAFA10BD000041
:1008000000080140001401409000002094000020E6
:10081000000800400EB50121084601F0D9F800F0AB
:1008200095F80521022000F02DFF202001900020E6
:100830008DF808000C208DF8090001208DF80A00C1
:1008400001A802F095FD0F21002000F01BFF4FF4DE
:100850000040019000208DF808000C208DF8090060
:1008600001208DF80A0001A802F082FD002108464F
:1008700000F008FF0120019000208DF808000820FA
:100880008DF8090001208DF80A0001A802F070FD22
:1008900006208DF8000000208DF8010001208DF861
:1008A00002008DF80300684601F0FFFA17208DF86A
:1008B000000000208DF8010001208DF802008DF865
:1008C0000300684601F0F1FA28208DF800000020AE
:1008D0008DF8010001208DF802008DF803006846B4
:1008E00001F0E3FA0EBD10B50A2000F008FD012169
:1008F000134800F044FE012804D112480068401C4F
:1009000010490860012002F0AAFD10BD10B50A20B0
:1009100000F0F5FC20210C4800F031FE202002F010
:100920009EFD10BD10B50A2000F0E9FC4FF4004117
:10093000034800F024FE4FF4004002F090FD10BD8B
:10094000000801408C0000200010014008B5012182
:10095000142001F03DF80121374800F04EFE4FF41D
:100960000040ADF8000048208DF803006946334888
:1009700000F072FD2020ADF8000048208DF8030043
:1009800069462F4800F068FD0120ADF800002820DE
:100990008DF803006946294800F05EFD08BD10B5DA
:1009A000044614B10120274908702648007868B32E
:1009B0002021234800F0E3FD58B14FF400411F48C7
:1009C00000F0DDFD28B101211C4800F0D8FD012810
:1009D0001CD10A2000F093FC00201A490870202145
:1009E000174800F0CCFD08B9012010BD4FF40041BC
:1009F000124800F0C4FD08B90220F6E701210F48B3
:100A000000F0BDFD012815D10320EEE720210C48A0
:100A100000F0B5FD01280DD1C103084800F0AFFD7D
:100A2000012807D10121054800F0A9FD10B90120D6
:100A3000044908700020D8E7000230000008014097
:100A4000001001401800002010B540F225511A484E
:100A500001F0E2F978B31849091D0988C8B21749AD
:100A6000097869B916490978FE2909D11549097823
:100A7000FF2905D10121114A11700021124A11707C
:100A80000E49097801290FD110490F4A127888546C
:100A90000D490978491C0C4A117011460978022940
:100AA00002D10021054A117005490978054A1170E3
:100AB0000349087000BF10BD004400402E00002014
:100AC00030000020310000202F0000202C000020EA
:100AD00008B50121082000F07BFF4FF47060ADF8ED
:100AE000000010208DF8030003208DF802006946F5
:100AF0009F4800F0B1FC4FF47040ADF80000282092
:100B00008DF8030003208DF802006946984800F034
:100B1000A3FC08BD10B596480C3000684FF2FF02E8
:100B2000104040F47061924800F04CFD904808304D
:100B3000006800F4704010B94FF0FF3010BD052080
:100B400000F0DDFB8A480830006800F4704010B9FE
:100B50004FF0FF30F2E786480C3000684FF2FF029A
:100B6000104040F48071824800F02CFD804808302D
:100B7000006800F47040B0F5805F09D0B0F5005F08
:100B800008D0B0F5804F07D0B0F5004F08D105E090
:100B9000002405E0012403E0022401E0032400BF57
:100BA00000BF00BF72480830006800F470400028A1
:100BB000F8D16F480C3000684FF2FF02104040F44B
:100BC00000716B4800F0FEFC69480830006800F4D2
:100BD0007040B0F5805F09D0B0F5005F08D0B0F587
:100BE000804F07D0B0F5004F08D105E0042405E0A0
:100BF000052403E0062401E0072400BF00BF00BF76
:100C00005B480830006800F470400028F8D158486C
:100C10000C3000684FF2FF02104040F480615448ED
:100C200000F0D0FC52480830006800F47040B0F585
:100C3000805F09D0B0F5005F08D0B0F5804F07D0D5
:100C4000B0F5004F08D105E0082405E0092403E0D1
:100C50000A2401E00B2400BF00BF00BF4448083055
:100C6000006800F470400028F8D141480C3000685A
:100C70004FF2FF02104040F400613D4800F0A2FC3A
:100C80003B480830006800F47040B0F5805F09D040
:100C9000B0F5005F08D0B0F5804F07D0B0F5004F39
:100CA00008D105E00C2405E00D2403E00E2401E04A
:100CB0000F2400BF00BF00BF2D480830006800F4BB
:100CC00070400028F8D1204638E710B5FFF722FF22
:100CD0000446102C49D2DFE804F0080C1014181C4C
:100CE0002024282C3034383C404422A002F0C2FB9F
:100CF0003CE021A002F0BEFB38E020A002F0BAFBED
:100D000034E01FA002F0B6FB30E01EA002F0B2FB00
:100D10002CE01DA002F0AEFB28E01CA002F0AAFB14
:100D200024E01BA002F0A6FB20E01AA002F0A2FB28
:100D30001CE019A002F09EFB18E018A002F09AFB3C
:100D400014E017A002F096FB10E016A002F092FB50
:100D50000CE015A002F08EFB08E014A002F08AFB64
:100D600004E013A002F086FB00E000BF00BF10BD4E
:100D7000000C0140310A0000320A0000330A000072
:100D8000410A0000340A0000350A0000360A00005B
:100D9000420A0000370A0000380A0000390A000041
:100DA000430A00002A0A0000300A0000230A00005B
:100DB000440A00002DE9F04F8BB082468B46FB4879
:100DC00000780990F94840780790099802F08EFF62
:100DD0000446514603F0DAF8F54908600846016810
:100DE000F448006802F0FCFEF2490860F24801682D
:100DF000EF48006803F0CAF8F0490860EC48006862
:100E0000ED490860EE49EB48006803F083F803D829
:100E1000EB48E849086008E0EA49E648006802F063
:100E200079FF02D8E748E3490860E448006802F027
:100E3000ABFE04460022134602F0BEFC8046894603
:100E4000DC48006802F0A0FE00221346CDE9000154
:100E500002F0B2FC04460D46D5480168DA4802F0BB
:100E60008DFF019002F090FE064622462B4602F0CE
:100E700083FB42464B46CDE9020102F07DFBCDE902
:100E8000040102F02DFCD14908600899084602F0DF
:100E900015FFCF49086008460168CE48006802F097
:100EA0009FFECC490860CC480168C948006803F03F
:100EB0006DF8CA490860C6480068C7490860C0495B
:100EC000C448006803F026F803D8BD48C14908604B
:100ED00008E0BC49BF48006802F01CFF02D8B948CE
:100EE000BC490860BD48006802F04EFE044600227E
:100EF000134602F061FCCDE90201B648006802F039
:100F000043FE06460022134602F056FC04460D46F8
:100F1000AF48006802F038FE06460022134602F091
:100F20004BFC804622462B4602F026FBCDE9000111
:100F3000DDE9022302F020FBCDE9040102F0D0FB41
:100F4000A7490860A148006800F20E6009680844DB
:100F5000A449086008460068B0F5E16F03DB4FF470
:100F6000E160086008E09F480068B0F5966F03DC18
:100F70004FF496609B49086040F20E609949086002
:100F80000846008881B2984801F0C4FE079802F034
:100F9000ADFE0446594602F0EEFF9449086008464B
:100FA00001689348006802F01BFE9149086091486F
:100FB00001688E48006802F0E9FF8F4908608B489D
:100FC00000688C4908607E498948006802F0A2FFE9
:100FD00003D87B488649086008E07A49844800685D
:100FE00002F098FE02D8774881490860824801687B
:100FF000002002F0C3FE044602F0C6FDCDE9020166
:101000007B48006802F0C0FD80460022134602F0D3
:10101000D3FB04460D4675480168002002F0AEFE81
:10102000804602F0B1FD064622462B4602F0A4FAA5
:10103000CDE90001DDE9022302F09EFACDE90401C9
:1010400002F04EFB6D4908600699084602F036FE34
:101050006B490860084601686A48006802F0C0FDF4
:1010600068490860684801686548006802F08EFFBA
:1010700066490860624800686349086050496148F1
:10108000006802F047FF03D84D485E49086008E059
:101090004C495C48006802F03DFE02D84948594975
:1010A00008605A48006802F06FFD044600221346AB
:1010B00002F082FBCDE902015248006802F064FDB3
:1010C00006460022134602F077FB04460D464C48C4
:1010D000006802F059FD06460022134602F06CFB40
:1010E000804622462B4602F047FACDE90001DDE9B1
:1010F000022302F041FACDE9040102F0F1FA444979
:1011000008603E48006800F2AA5009680844414956
:10111000086008460068B0F5E16F03DB4FF4E1605A
:10112000086008E03B480068B0F5966F03DC4FF4B8
:101130009660384908603748008881B22A4801F033
:10114000EBFD2A48006802F01FFD21F00041044633
:101150000022314B02F0F4FA1ED21548006802F06A
:1011600013FD21F00041044600222B4B02F0E8FA67
:1011700012D22A480068401C2849086008460068C6
:10118000642810D301202649086000202549086002
:1011900064202249086006E00020214908602149B6
:1011A00008601E4908600BB0BDE8F08F2C000020DD
:1011B0003400002038000020400000203C000020C7
:1011C00000409C4600409CC6000020417400002066
:1011D0004400002048000020500000204C00002067
:1011E000780000207C000020000400405400002013
:1011F00058000020600000205C00002080000020DB
:101200006400002068000020700000206C000020B6
:1012100084000020880000200000F03F980000209B
:10122000900000209400002010B51048104908607C
:10123000104811490860084601680D480068FFF72A
:10124000B9FD10BD10B501210C4801F090FD60B151
:101250000B480068012802D1FFF7E6FF00E000BF5D
:1012600000BF0121054801F093FD10BD0000F242CE
:10127000A00000200000EA42A4000020000C004072
:101280008C00002010B56FF0040000F058FE2E48CE
:1012900000682E49B0FBF1F02D490870084600782F
:1012A00000EB4001C1EBC0104FF6FF7101EAC00036
:1012B0002849088010BD0146254A12784A434FF05C
:1012C000E0235A6100229A611A46126942F0010233
:1012D0001A6100BF4FF0E022106900F001021AB15C
:1012E00000F48032002AF5D04FF0E022126922F09B
:1012F00001024FF0E0231A6100229A617047014613
:10130000144A12884A434FF0E0235A6100229A613E
:101310001A46126942F001021A6100BF4FF0E02242
:10132000106900F001021AB100F48032002AF5D0F1
:101330004FF0E022126922F001024FF0E0231A611F
:1013400000229A61704700000000002000127A001D
:10135000A8000020AA00002009488047094800474B
:10136000FEE7FEE7FEE7FEE7FEE7FEE7FEE7FEE755
:10137000FEE7FEE704480549054A064B70470000B2
:10138000D7020008310100082001002020070020BA
:10139000200300202003002010B50446CC488442DE
:1013A00008D10121042000F02DFB0021042000F0D1
:1013B00029FB46E0C748844208D10121082000F0FB
:1013C00021FB0021082000F01DFB3AE0C2488442C6
:1013D00008D10121102000F015FB0021102000F0A1
:1013E00011FB2EE0BD48844208D10121202000F0ED
:1013F00009FB0021202000F005FB22E0B8488442D0
:1014000008D10121402000F0FDFA0021402000F029
:10141000F9FA16E0B348844208D10121802000F097
:10142000F1FA0021802000F0EDFA0AE0AE48844293
:1014300007D10121801500F0E5FA0021A01500F088
:10144000E1FA10BD10B50121084600F0DBFA0021D9
:10145000012000F0D7FA10BD2DE9F0410246002529
:101460000026002000230024002791F803C00CF080
:101470000F0591F803C00CF0100CBCF1000F03D065
:1014800091F802C04CEA050591F800C0BCF1000FCC
:1014900031D0146800202BE04FF0010C0CFA00F35F
:1014A000B1F800C00CEA03069E4220D183004FF041
:1014B0000F0C0CFA03F7BC4305FA03FC4CEA0404D6
:1014C00091F803C0BCF1280F06D14FF0010C0CFAC3
:1014D00000FCC2F814C00AE091F803C0BCF1480F48
:1014E00005D14FF0010C0CFA00FCC2F810C0401CF2
:1014F0000828D1D31460B1F800C0BCF1FF0F34DD6F
:10150000546800202EE000F1080C4FF0010808FAA2
:101510000CF3B1F800C00CEA03069E4221D183000F
:101520004FF00F0C0CFA03F7BC4305FA03FC4CEA2E
:10153000040491F803C0BCF1280F05D100F1080C98
:1015400008FA0CF8C2F8148091F803C0BCF1480FF7
:1015500007D100F1080C4FF0010808FA0CF8C2F8A6
:101560001080401C0828CED35460BDE8F0814FF6AF
:10157000FF710180022181700421C1707047024611
:10158000002093680B400BB1012000E00020704761
:101590000146886880B2704702460020D3680B403D
:1015A0000BB1012000E0002070470146C86880B2FE
:1015B000704701617047416170470AB1016100E005
:1015C00041617047C16070474FF480320A438261C5
:1015D0008161826182698269704702460020434BC3
:1015E00018684FF68073184040EA021008433F4BDA
:1015F000186070473E49C8617047F0B50A4600233D
:1016000000240021002500F00046B6F1004F02D171
:10161000364EF16901E0354E7168C0F3034583B27F
:1016200000F44016B6F5401F08D121F070612F4E2E
:10163000766826F070662D4F7E6012E000F480160A
:10164000B6F5801F06D1032606FA05F4A14341F042
:10165000706106E0460D360103FA06F6B14341F02B
:10166000706122B1460D360103FA06F6314300F0EF
:101670000046B6F1004F02D11C4EF16101E01B4E55
:101680007160F0BD30B500228B071C0F0F2303FAE9
:1016900004F2164B08338C1053F824309343134C48
:1016A00008348D1044F8253023468C1053F824302C
:1016B0008C07240F00FA04F423430C4C08348D10DB
:1016C00044F8253030BD0A49DC310860704700001D
:1016D00000080140000C01400010014000140140CE
:1016E00000180140001C01400020014000000140A2
:1016F00000002042DF48006840F00100DD4908603A
:1017000008464068DC490840DA49486008460068F5
:10171000DA490840D74908600846006820F480206C
:1017200008600846406820F4FE0048604FF41F003F
:1017300088607047CF49096821F48031CD4A116033
:101740001146096821F480211160B0F5803F03D073
:10175000B0F5802F0ED106E0C649096841F480310A
:10176000C44A116007E0C349096841F4A021C14A95
:10177000116000E000BF00BF704710B501460022B5
:10178000002300204A11012A02D1BA4C236806E046
:10179000022A02D1B74C236A01E0B64C636A01F019
:1017A0001F02012494401C400CB1012000E00020E5
:1017B00010BD38B5002000900024002500BF312066
:1017C000FFF7DBFF05460098401C00900098B0F53D
:1017D000A06F01D0002DF2D03120FFF7CEFF08B16D
:1017E000012400E00024204638BD01460020A14A23
:1017F000106820F0F80040EAC10010607047A0496E
:1018000008607047024600209A4B586820F47C100C
:1018100042EA01031843974B58607047984908669D
:10182000704701460020934A506820F003000843A7
:10183000506070478F48406800F00C0070470146C8
:1018400000208C4A506820F0F00008435060704738
:1018500001460020874A506820F4E0600843506049
:10186000704701460020834A506820F4605040EAE7
:10187000C1005060704729B17E4A527A02437D4BC5
:101880005A7204E07B4A527A82437A4B5A7270470A
:101890007B49D8310860704701460020754A50687E
:1018A00020F440400843506070470021714A2032C4
:1018B0001170704A82F82010012802D004280AD141
:1018C00004E001216B4A2032117005E00521694ACC
:1018D0002032117000E000BF00BF70476949086006
:1018E00070476449096A0143624A11627047654959
:1018F00044390860704730B50021002200240023DD
:101900005C4D6D6805F00C0121B1042905D0082952
:1019100023D105E05C4D056022E05B4D05601FE0D2
:10192000544D6D6805F47012524D6D6805F48034A5
:10193000022505EB92421CB9544D554305600BE05E
:101940004C4D6D6805F400351DB1504D5543056093
:1019500002E04D4D5543056002E04B4D056000BF70
:1019600000BF444D6D6805F0F0010909484D6B5CFE
:101970000568DD4045603F4D6D6805F4E061090A8A
:10198000434D6B5C4568DD4085603A4D6D6805F4FC
:101990006051C90A3E4D6B5C4568DD40C560354D00
:1019A0006D6805F44041890B3A4D6B5CC568B5FB29
:1019B000F3F5056130BD29B12E4A526902432D4B22
:1019C0005A6104E02B4A526982432A4B5A6170479C
:1019D00029B1284A92690243264B9A6104E0254ABC
:1019E00092698243234B9A61704729B1214AD26997
:1019F0000243204BDA6104E01E4AD26982431D4B48
:101A0000DA61704729B11B4AD2680243194BDA6088
:101A100004E0184AD2688243164BDA60704729B155
:101A2000144A12690243134B1A6104E0114A126905
:101A30008243104B1A617047124940390860704761
:101A40000F49C86470470B49C87170470948406A1C
:101A500040F0807007494862704701460020054AFF
:101A600092680A400AB1012000E000207047014955
:101A700088727047001002400000FFF8FFFFF6FE7A
:101A8000000042428004424200127A0000093D00F8
:101A9000AC000020BC00002010B50446FB48844286
:101AA00009D101218803FFF7ADFF00214FF48040E9
:101AB000FFF7A8FF32E0F648844209D1012148042B
:101AC000FFF7ADFF00214FF40030FFF7A8FF25E03E
:101AD000F048844209D101218804FFF7A0FF0021CA
:101AE0004FF48020FFF79BFF18E0EB48844209D1B8
:101AF0000121C804FFF793FF00214FF40020FFF7F6
:101B00008EFF0BE0E548844208D101210805FFF76C
:101B100086FF00214FF48010FFF781FF10BD2DE9F3
:101B2000F04786B005460E460024A24600BFA146F7
:101B30000027B08900B100BF2F462C8A4CF6FF70F9
:101B40000440F08804432C82AC894EF6F310044024
:101B5000B08831890843718908430443AC81AC8A59
:101B60004FF6FF400440B0890443AC8201A8FFF760
:101B7000C2FEC648874202D1DDF810A001E0DDF8C0
:101B80000CA0A88900F4004040B10AEBCA0000EBA9
:101B90000A1031684900B0FBF1F807E00AEBCA000F
:101BA00000EB0A1031688900B0FBF1F86420B8FB43
:101BB000F0F004012009642101FB1089A88900F4D8
:101BC000004040B1322000EBC900B0FBF1F000F062
:101BD0000700044308E0322000EB09106421B0FB49
:101BE000F1F000F00F0004432C8106B0BDE8F0874F
:101BF0004FF41651016000218180C18001810C21C8
:101C0000418100218181704710B502460020108A71
:101C10004FF2FF0318400B884C8823438C882343E2
:101C2000CC8823431843108210BD002101804180DD
:101C30008180C180704721B1828942F40052828143
:101C400004E082894DF6FF731A4082817047F0B537
:101C50000346002400260025002040F66A17B942FA
:101C600000D100BF1846C1F3421401F01F0601273E
:101C700007FA06F5012C01D10C3004E0022C01D149
:101C8000103000E014301AB107682F43076002E0FB
:101C90000768AF430760F0BD1AB1838A0B438382A4
:101CA00002E0838A8B4383827047028A4FF6F07387
:101CB0001A400282028A0A430282704782894FF2E6
:101CC000FF731A40828182890A438281704721B161
:101CD000828942F00202828104E082894FF6FD731C
:101CE0001A4082817047028A4FF6DF731A400282DF
:101CF000028A0A430282704721B1028A42F480427A
:101D0000028204E0028A4BF6FF731A400282704797
:101D1000C1F308028280704701468888C0F308003A
:101D20007047818941F0010181817047028BD2B2F5
:101D30000283028B42EA012202837047028B02F483
:101D40007F420283028B0A430283704721B1828A59
:101D500042F02002828204E0828A4FF6DF731A404A
:101D60008282704721B1828A42F01002828204E0AE
:101D7000828A4FF6EF731A408282704721B1828ABD
:101D800042F00802828204E0828A4FF6F7731A401A
:101D90008282704721B1828942F40042828103E04D
:101DA0008289C2F30E028281704721B1828A42F495
:101DB0000062828204E0828A4FF2FF731A408282BC
:101DC0007047828A4FF6FB731A408282828A0A43E6
:101DD0008282704721B1828A42F00202828204E04C
:101DE000828A4FF6FD731A408282704702460020B5
:101DF000B1F5007F00D100BF13880B400BB101206B
:101E000000E00020704701F40072B2F5007F00D1BD
:101E100000BFCA430280704770B502460024002309
:101E20000025002040F66A16B14200D100BFC1F380
:101E3000421501F01F03012606FA03F3012D02D11A
:101E40009689334006E0022D02D1168A334001E024
:101E5000968A33400C12012606FA04F416883440A0
:101E600013B10CB1012000E0002070BD10B50022BC
:101E7000002340F66A14A14200D100BF0A120124D7
:101E80009440A3B2DC43048010BD00000038014040
:101E90000044004000480040004C0040005000401A
:101EA00031490143314A1160704770B50021002368
:101EB0000F22C47804B32D4C246804F4E064C4F504
:101EC000E064210AC1F10403CA40447804FA03F132
:101ED0008478144021430901254C0678A1550478E3
:101EE00004F01F050124AC4005786D11AD0005F12B
:101EF000E025C5F8004109E0047804F01F0501243D
:101F0000AC401C4D0678761145F8264070BD1A4A43
:101F10000A400243154B1B1F1A60704739B1134A20
:101F2000121D12680243114B1B1D1A6006E00F4A76
:101F3000121D126882430D4B1B1D1A607047042846
:101F400008D14FF0E021096941F004014FF0E0228F
:101F5000116107E04FF0E021096921F004014FF021
:101F6000E0221161704700000000FA050CED00E06E
:101F700000E400E080E100E080FFFF1F10B50446B0
:101F8000FE48844208D10121C014FFF73BFD002127
:101F9000E014FFF737FDC4E0B4F1804F08D1012110
:101FA0000846FFF73CFD00210120FFF738FDB8E0AF
:101FB000F348844208D101210220FFF730FD0021BF
:101FC0000220FFF72CFDACE0EE48844208D101214D
:101FD0000420FFF724FD00210420FFF720FDA0E0EE
:101FE000E948844208D101210820FFF718FD0021AB
:101FF0000820FFF714FD94E0E448844208D1012151
:102000001020FFF70CFD00211020FFF708FD88E0ED
:10201000DF48844208D101212020FFF700FD002184
:102020002020FFF7FCFC7CE0DA48844208D1012143
:102030004014FFF7E7FC00216014FFF7E3FC70E0B9
:10204000D548844209D10121C804FFF7DBFC0021F7
:102050004FF40020FFF7D6FC63E0D048844209D15A
:1020600001210805FFF7CEFC00214FF48010FFF797
:10207000C9FC56E0CA48844209D101214805FFF74E
:10208000C1FC00214FF40010FFF7BCFC49E0C5483B
:10209000844208D101214020FFF7C1FC00214020EB
:1020A000FFF7BDFC3DE0C048844208D101218020FB
:1020B000FFF7B5FC00218020FFF7B1FC31E0BB4801
:1020C000844208D101218015FFF7A9FC0021A01549
:1020D000FFF7A5FC25E0B648844209D10121080498
:1020E000FFF790FC00214FF48030FFF78BFC18E0E5
:1020F000B048844209D101214804FFF783FC002144
:102100004FF40030FFF77EFC0BE0AB48844208D16F
:1021100001218804FFF776FC00214FF48020FFF7AF
:1021200071FC10BD00220288944B98420ED0994B4E
:1021300098420BD0B0F1804F08D0914B984205D017
:10214000904B984202D0904B984204D14FF68F7337
:102150001A404B881A438D4B984207D08C4B9842BB
:1021600004D04FF6FF431A40CB881A4302808B8875
:1021700083850B880385814B98420BD0854B984211
:1021800008D08B4B984205D08A4B984202D08A4B9C
:10219000984201D10B7A038601238382704770B580
:1021A000002400220023058C4FF6FE76354005847E
:1021B000028C8388048B4FF68F752C40B51E2C4003
:1021C0000D882C43751E2A400D892A434D882A43C9
:1021D0006A4DA8420BD06F4DA84208D0744DA8425A
:1021E00005D0744DA84202D0734DA84213D14FF6CA
:1021F000F7752A404D892A434FF6FB752A408D8892
:102200002A434FF6FF652B404FF6FF552B408D8933
:102210002B43CD892B4383800483CD88858602841C
:1022200070BD70B5002400220023058C4FF6EF76B8
:1022300035400584028C8388048B48F6FF752C405A
:102240004FF6FF452C400D884FF6FF7606EA052530
:102250002C434FF6DF752A400D8906EA05152A43FF
:102260004D8806EA05152A43444DA84202D0494D3F
:10227000A8421DD14FF67F752A404D894FF6FF7653
:1022800006EA05152A434FF6BF752A408D8806EAEF
:1022900005152A434FF6FF352B404FF2FF752B40B3
:1022A0008D8906EA85052B43CD8906EA85052B43F2
:1022B00083800483CD880587028470BD70B50024B7
:1022C00000220023058C4FF6FF6635400584028C02
:1022D0008388848B4FF68F752C404FF6FC752C400D
:1022E0000D882C434FF6FF552A400D894FF6FF7697
:1022F00006EA05252A434D8806EA05252A431F4D8F
:10230000A84202D0234DA8421DD14FF2FF752A40AA
:102310004D894FF6FF7606EA05252A434FF6FF352D
:102320002A408D8806EA05252A434EF6FF752B4084
:102330004DF6FF752B408D8906EA05152B43CD8997
:1023400006EA05152B4383808483CD888587028424
:1023500070BD70B5002200230024058C4EF6FF7678
:1023600035400584038C8488828B48F6FF752A40AB
:102370004FF6FF452A400D8820E00000002C014068
:102380000004004000080040000C00400010004025
:102390000014004000340140004C01400050014056
:1023A0000054014000180040001C00400020004084
:1023B0000040014000440140004801404FF6FF76D4
:1023C00006EA05252A434DF6FF752B400D8906EADE
:1023D00005352B434D8806EA05352B43FA4DA842B7
:1023E00002D0FA4DA84208D14BF6FF752C408D89DA
:1023F0004FF6FF7606EA85152C4384808283CD88CC
:10240000A0F84050038470BD828B4FF2FF331A4016
:102410008283828B4FF6FF7303EA01231A43828380
:102420007047F0B50C461546002200210026078CA7
:102430004EF6FF7C07EA0C070784828B018C4FF66F
:10244000FF7707EA043640F6FF473A404FF6FF773A
:1024500007EA05273A434FF6FF7707EA03373A437F
:10246000D94FB8420ED0D94FB8420BD0B0F1804FFF
:1024700008D0D74FB84205D0D64FB84202D0D64F79
:10248000B84206D14DF6FF77394046F480573943BC
:1024900005E047F6FF57394044F4805739438283BB
:1024A0000184F0BD828B4FF6F3731A408283828BD6
:1024B0000A4382837047F0B50C461546002200217E
:1024C0000026078C4FF6FF6C07EA0C070784828B07
:1024D000018C4FF6FF7707EA04264FF60C773A4057
:1024E0004FF6FF7707EA03172F433A43B64FB84238
:1024F0000ED0B64FB8420BD0B0F1804F08D0B44FD9
:10250000B84205D0B34FB84202D0B34FB84206D15B
:102510004FF6FF57394046F48077394305E04FF2D4
:10252000FF57394044F48077394382830184F0BDFA
:10253000028B4FF2FF331A400283028B4FF6FF7378
:1025400003EA01231A4302837047F0B50C4615468F
:10255000002200210026078C4FF6EF7C07EA0C07CB
:102560000784028B018C4FF6FF7707EA041640F6CA
:10257000FF473A404FF6FF7707EA03373A434FF6F3
:10258000FF7707EA05273A438F4FB8420ED08F4FA7
:10259000B8420BD0B0F1804F08D08D4FB84205D073
:1025A0008C4FB84202D08C4FB84206D14FF6DF773D
:1025B000394046F01007394305E04FF65F77394060
:1025C00044F01007394302830184F0BD028B4FF6BB
:1025D000F3731A400283028B0A4302837047F0B5FB
:1025E0000C46154600220021068C4FF6FE773E4031
:1025F0000684028B018C4FF60C7632407E1C06EA74
:1026000003162E433243704EB0420ED06F4EB0428E
:102610000BD0B0F1804F08D06D4EB04205D06D4E5A
:10262000B04202D06C4EB04206D14FF6FD7631403A
:1026300044F00106314305E04FF6F576314044F0B1
:102640000106314302830184F0BD70B505460C4696
:102650005D4885420ED05D4885420BD0B5F1804F74
:1026600008D05B48854205D05A48854202D05A4876
:10267000854200D100E000BF208850B92389A2889C
:1026800061882846FFF7ABFFE1882846FFF79EFFE9
:1026900025E0208804280AD12389A2886188284659
:1026A000FFF753FFE1882846FFF742FF17E0208835
:1026B00008280AD12389A28861882846FFF7FBFEF3
:1026C000E1882846FFF7EEFE09E02389A2886188A9
:1026D0002846FFF7A6FEE1882846FFF795FE70BD65
:1026E0002DE9F04105460C4600260127608808B90F
:1026F000022600E00026A088012801D1022700E080
:1027000001272088A0B92389A28861882846FFF77D
:1027100066FFE1882846FFF759FF23893A4631468C
:102720002846FFF712FFE1882846FFF701FF13E074
:102730002389A28861882846FFF707FFE188284699
:10274000FFF7F6FE23893A4631462846FFF747FF52
:10275000E1882846FFF73AFFBDE8F0810A884B88F8
:102760001A438B881A43CB881A430B891A434B8927
:102770001A438B891A43A0F8442070474FF6FF7123
:10278000818000210180C180418001727047002159
:10279000018041808180C180018141818181C1812D
:1027A0007047002101804180012181800021C1808A
:1027B000018170470021018041808180C1800181B9
:1027C0004181818170470000002C014000340140AC
:1027D0000004004000080040000C004021B10288C5
:1027E00042F00102028004E002884FF6FE731A40B4
:1027F0000280704731B1B0F8442042F40042A0F8A2
:10280000442005E0B0F84420C2F30E02A0F84420B2
:1028100070471AB183890B43838102E083898B431C
:10282000838170478182704741EA0203A0F84830F3
:1028300070471AB183890B43838102E083898B43FC
:102840008381704701894FF6F8721140018170470A
:102850000A46002101894FF68F7319401143018107
:10286000704730B504460D4629462046FFF7F0FF75
:10287000208940F00700208130BD2DE9F041044659
:102880000D4616461F46602D06D13B4601223146B5
:102890002046FFF75AFE05E03B460122314620461E
:1028A000FFF79DFE29462046FFF7D2FF208940F022
:1028B00007002081BDE8F08130B50C460021018978
:1028C000C9B24FF6FF7505EA032515432543294391
:1028D000018130BD2DE9F04105460E461746984668
:1028E000002443463A4631462846FFF7E5FF2C8947
:1028F0004FF6F870044044F007044FF68F70044020
:1029000044F070042C81BDE8F081F0B504460D461A
:1029100016461F463B46324629462046FFF7CCFF67
:10292000208940F480402081F0BD0185828270477B
:102930000A46002101884FF68F7319401143018028
:102940007047F0B50C4615461E46002100220023B4
:102950000189028B038C4FF6F877394021434FF6FB
:10296000FC473A4040F201173A434FF6DD773B40CF
:102970004FF6FF7707EA06172F433B430181028397
:102980000384F0BD0A460021018B4FF68F73194076
:102990001143018370470A460021018B48F6FF73FB
:1029A00019404FF6FF7303EA02231943018370476E
:1029B0000A460021818B4FF68F73194011438183A2
:1029C00070470A460021818B48F6FF7319404FF685
:1029D000FF7303EA022319438183704721B1028800
:1029E00042F08002028004E002884FF67F731A40B2
:1029F0000280704721B1828842F00402828004E0A4
:102A000082884FF6FB731A408280704721B182881A
:102A100042F00802828004E082884FF6F7731A4081
:102A20008280704721B1828842F00102828004E0F6
:102A300082884FF6FE731A40828070470A46002152
:102A4000018B4FF6F77319401143018370470A4613
:102A50000021018B4FF2FF7319404FF6FF7303EA19
:102A600002231943018370470A460021818B4FF6E8
:102A7000F77319401143818370470A460021818B07
:102A80004FF2FF7319404FF6FF7303EA0223194315
:102A9000818370470A460021018B4FF6FB73194072
:102AA0001143018370470A460021018B4FF6FF3323
:102AB00019404FF6FF7303EA02231943018370475D
:102AC0000A460021818B4FF6FB7319401143818325
:102AD00070470A460021818B4FF6FF3319404FF6AD
:102AE000FF7303EA02231943818370470A460021DA
:102AF000018B4FF67F7319401143018370470A46DB
:102B00000021018BC1F30E014FF6FF7303EA02238C
:102B10001943018370470A460021818B4FF67F736A
:102B200019401143818370470A460021818BC1F30C
:102B30000E014FF6FF7303EA0223194381837047A6
:102B40000A460021018C4FF6FD73194011430184A0
:102B500070470A460021018C4FF6F7731940114364
:102B6000018470470A460021018C4FF6DF7319403B
:102B70004FF6FF7303EA02131943018470470A46B4
:102B80000021018C4FF67F7319404FF6FF7303EA63
:102B900002131943018470470A460021018C4FF645
:102BA000FF5319404FF6FF7303EA022319430184D0
:102BB00070470A460021018C4FF2FF7319404FF60F
:102BC000FF7303EA02231943018470470A46002178
:102BD000018C4DF6FF7319404FF6FF7303EA023381
:102BE00019430184704730B5002301248C40A3B2FF
:102BF000048C9C430484048C02FA01F5ADB22C438E
:102C0000048430BD30B5002304248C40A3B2048C6E
:102C10009C430484048C02FA01F5ADB22C43048475
:102C200030BD70B503460020002418461830012539
:102C30008D40ACB21D8CA5431D8409B1082909D172
:102C400000EB6100056825F0700505600568154317
:102C500005600EE00D1FC5F34E052844056825F4F8
:102C6000E045056005684FF6FF7606EA0226354323
:102C7000056070BD21B1028842F00202028004E0CA
:102C800002884FF6FD731A400280704721B1028816
:102C900042F00402028004E002884FF6FB731A40FF
:102CA0000280704721B1828842F08002828004E075
:102CB00082884FF67F731A408280704702884FF6F1
:102CC000F7731A40028002880A43028070478288A4
:102CD0004FF68F731A40828082880A438280704741
:102CE00002894FF6F8731A40028102890A43028171
:102CF000704702894FF67F731A40028102890A43A6
:102D00000281704781847047818570478186704752
:102D10000187704781877047A0F84010704702888C
:102D20004FF6FF431A40028002880A430280704730
:102D30000146888E70470146088F70470146888F8C
:102D400070470146B1F8400070470146888C7047D3
:102D50000146088D704702460020138A0B400BB1D4
:102D6000012000E000207047CA430282704730B55E
:102D70000246002000230024158A05EA01039589F4
:102D800005EA010413B10CB1012000E0002030BDC0
:102D9000CA4302827047000001460020FE4A1068C4
:102DA00000F03800084310607047FB49096821F0C3
:102DB0000801F94A11601146096801431160704722
:102DC000F549096821F01001F34A116011460968BC
:102DD000014311607047F148EF494860F04848608E
:102DE0007047EE48EC494860ED4848607047EA4853
:102DF000006940F08000E84908617047E6480069D2
:102E000040F08000E449086170470420E249C96845
:102E100001F0010109B101200EE0DF49C96801F0AC
:102E2000040109B1022007E0DB49C96801F0100183
:102E300009B1032000E00420704700B502460423D6
:102E4000FFF7E3FF034603E0FFF7DFFF0346521EF1
:102E5000012B01D1002AF7D102B90523184600BD84
:102E600030B5044604254FF43020FFF7E6FF054651
:102E7000042D17D1C848006940F00200C649086116
:102E800008464461006940F0400008614FF430207A
:102E9000FFF7D3FF0546C048006941F6FD710840C1
:102EA000BD490861284630BD10B504244FF43020D8
:102EB000FFF7C3FF0446042C16D1B748006940F061
:102EC0000400B54908610846006940F04000086107
:102ED0004FF43020FFF7B1FF0446AF48006941F6D8
:102EE000FB710840AC490861204610BD00B50246A0
:102EF0000423FFF78AFF034603E0FFF786FF03463C
:102F0000521E012B01D1002AF7D102B90523184620
:102F100000BD10B504244FF43020FFF7E7FF04464E
:102F2000042C16D19C48006940F004009A490861BD
:102F30000846006940F0400008614FF43020FFF778
:102F4000D5FF04469448006941F6FB710840924958
:102F50000861204610BD00208F49C96901F00201B7
:102F600009B1012000E00020704730B5A5250424F8
:102F7000FFF7F1FF00B100254FF43020FFF75DFFB0
:102F80000446042C3AD18548834988608448886087
:102F90000846006940F0200008610846006940F0DA
:102FA000400008614FF43020FFF747FF0446042C2F
:102FB0001BD17948006941F6DF7108407649086104
:102FC0000846006940F01000086176480580E0027C
:102FD000FFF733FF0446052C10D06F48006941F617
:102FE000EF7108406C49086108E0052C06D06A487A
:102FF000006941F6EF71084067490861204630BD1D
:1030000078B506460C46042500200090E802FFF73C
:1030100014FF0546042D24D15F48006940F00100EB
:103020005D4908613480E802FFF707FF0546042D7B
:1030300010D1B01C0090200C00990880E802FFF726
:10304000FCFE05465448006941F6FE7108405249AD
:10305000086106E05048006941F6FE7108404E499B
:103060000861284678BD70B504460D460426F00276
:10307000FFF7E3FE0646042E11D14748006940F0F1
:103080000100454908612580F002FFF7D6FE06469B
:103090004148006941F6FE7108403F4908613046E9
:1030A00070BD70B505460E460424E002FFF7C5FE6C
:1030B0000446042C17D1394837498860384888605D
:1030C0000846006940F0100008612E80E002FFF71A
:1030D000B4FE0446052C06D02F48006941F6EF7176
:1030E00008402D490861204670BD2DE9F043044693
:1030F0004FF6FF763746B046B1460425E443E6B2C4
:10310000C4F30727C4F307484FEA1469E802FFF73E
:1031100094FE0546042D49D120481F498860204867
:1031200088600846006940F010000861FF2E06D054
:103130001C4808300680E802FFF77FFE0546042D94
:1031400008D1FF2F06D017480A300780E802FFF7A2
:1031500074FE0546042D0AD1B8F1FF0F07D01148BF
:103160000C30A0F80080E802FFF767FE0546042D4A
:103170000AD1B9F1FF0F07D00A480E30A0F800902D
:10318000E802FFF75AFE0546052D0FD002480069F8
:1031900041F6EF71084007E0002002402301674537
:1031A000AB89EFCD00F8FF1F664908612846BDE8EE
:1031B000F08330B5054604244FF43020FFF73DFE80
:1031C0000446042C41D160485E4988605F488860AD
:1031D0000846006940F0200008610846006940F098
:1031E000400008614FF43020FFF727FE0446042C0E
:1031F00022D15448006941F6DF7108405149086105
:103200000846006940F0100008611DB100205049D7
:10321000088002E0A5204E4908804FF43020FFF7D7
:103220000CFE0446052C10D04648006941F6EF71AB
:1032300008404449086108E0052C06D0414800696F
:1032400041F6DF7108403F490861204630BDF0B5C6
:1032500005460E46174604243B483A4988603B48D9
:103260008860E002FFF7E9FD0446042C19D13548D7
:10327000006940F010003349086147F0F80030431E
:1032800028433349891C0880E002FFF7D6FD044635
:10329000052C06D02B48006941F6EF7108402949FA
:1032A00008612046F0BD2748C0698008704725485E
:1032B000006A704700202349096801F0200109B124
:1032C000012000E00020704729B11E4A1269024324
:1032D0001C4B1A6104E01B4A12698243194B1A61A4
:1032E000704701460020012908D1164AD26902F030
:1032F00001020AB1012008E0002006E0114AD2686C
:103300000A400AB1012000E0002070470D49C86062
:10331000704704200B49C96801F0010109B101207F
:103320000EE00849C96801F0040109B1022007E074
:103330000449C96801F0100109B1032000E004202C
:10334000704700000020024023016745AB89EFCDA4
:1033500000F8FF1F002044490860091D0860091D8E
:103360000860091D086041483F49143108607047F2
:1033700000213D498279002A3AD00A461268036842
:103380009A430B461A600A1D126803689A430B1D84
:103390001A60027911440A6803681A430A60324AC3
:1033A0000832126803689A432F4B08331A601A1DBB
:1033B000126803689A432C4B0C331A604279102A26
:1033C0000ED11A1F126803681A43274B08331A607C
:1033D0001A1D126803681A43234B0C331A600DE060
:1033E0002149427911440A6803681A430A6005E0DA
:1033F000027911440A6803689A430A607047002101
:10340000016001710C2141710021817170471649E1
:10341000103109680143144A1032116070470146A7
:103420000020114A143212680A400AB1012000E05B
:10343000002070470C491431086070470146002095
:103440000022094B1B6803EA0102074B14331B6877
:103450000B4013B10AB1012000E00020704702497F
:10346000143108607047000000040140FFFF0F00A6
:10347000704700000FB4044910B503AA029800F089
:1034800009F810BC5DF814FB140000207047704769
:1034900070477047074B70B50D467B4400F011F83C
:1034A0000446284600F020F810B14FF0FF3070BD00
:1034B000204670BD41CFFFFF01694A1C02610878B8
:1034C000704700B58FB0CDE9013100210591054964
:1034D0007944CDE903101146684600F02EF80FB08C
:1034E00000BD0000E5FFFFFF007B00F0800070479B
:1034F000754600F03DF8AE4605006946534620F09B
:103500000700854618B020B5FDF734FFBDE8204020
:103510004FF000064FF000074FF000084FF0000B8F
:1035200021F00701AC46ACE8C009ACE8C009ACE842
:10353000C009ACE8C0098D4670472DE9F041064648
:103540000024D6E90170F5688046304603E0414624
:10355000B847641C3046A8470028F8D12046BDE88B
:10356000F0810446AFF300802046FCF728FE0000FF
:1035700000487047C000002010B591EA030F48BF13
:1035800083F0004300F11E82841A71EB030C05D214
:10359000121943EB0C03001B61EB0C01DFF824E173
:1035A0004FEA1154A4EB135C1EEA430F18BF9EEAC6
:1035B000445F73D023EA0E03DCF1200E21EA0451AC
:1035C00043F4801332D322FA0CFE10EB0E0023FAE0
:1035D0000CFE41EB0E01CCF1200E03FA0EFE10EBB7
:1035E0000E0051F10001B1F5801FCCF1200E32D256
:1035F00001EB045112FA0EF2BDE8104058BF7047BB
:10360000401C38BF5FEA420218BF7047002814BF51
:1036100020F0010041F100014FEA410313F5001FC2
:1036200038BF7047A1F1C04100F0BEB9012A43EB99
:103630000302ACF1200CDCF11F0E32BF4FF0000E84
:1036400023FA0CF310EB030041EB0451B4EB115FD0
:10365000D0D0A1EB045101F5801149085FEA300098
:1036600001EB04510ED350F1000038BF12FA0EFEE8
:1036700008D1BDE81040C9E7401C38BF5FEA4202EC
:10368000CAD1C3E7BDE810404FEA410313F5001F5C
:1036900038BF7047A1F1C04100F086B99EEA445F8F
:1036A00008D011EA5E0FBDE8104004BF01F00041F0
:1036B00000207047BDE8104070B500F027F900BF4A
:1036C00064FBBE3E0000E0FF491058BFC1F140411D
:1036D0005B1058BFC3F140438B42EFF3008070474B
:1036E0004FEA41034FEA5353A3F58063D3F11E031E
:1036F000C8BFD3F1210C0CDD4FF0004242EAC122D9
:1037000042EA505232FA03FC8CEAE17CACEBE17005
:103710007047102BC4BF0020704703F5787CBCF1C4
:10372000FF3F04D06FF0004282EA2100704770B57D
:1037300000F0ECF84992248000207047F2E7000086
:1037400051EA030C17D41CF5801F58BFBCF5801F2D
:1037500000F10680994218BF704708BF9042704739
:1037600007D711F5801F58BF13F5801F19D4994250
:103770007047894270471CF5801F08D5BCF5801F33
:10378000F7D58B4218BF704708BF824270474FF48D
:10379000001C1CEB410F38BF1CEB430F01D28B42C6
:1037A000704770B500F0B2F8922449004FF0005114
:1037B0004FF08053FFF788BFDFF848C170B51CEAAF
:1037C000111E1EBF1CEA13159EEA0C0F95EA0C0F82
:1037D00000F06F8081EA030423EA4C134EEAD47EA2
:1037E00021EA4C1141F4801143F48013AE44A1FB53
:1037F000024CA0FB0365AEF17F7E361955EB0C053C
:10380000A1FB034C4CF10003A0FB021C16EB0C06C1
:10381000654153F10003094218BF46F0010613F455
:10382000007F0BD14FEA03314FEA0530340341EA00
:10383000155140EA16506FF003020AE04FEAC32127
:103840004FEAC520F40241EA555140EA56506FF064
:10385000020202EB2E4201EB025585EACE710AD03C
:103860005FEA440C18BF24F0004450F1000041F11D
:10387000000120EAD47040F2FE7C624500D270BDA7
:10388000A84214BF4FF080444FF04044002E08BFC0
:103890000024BEF1806FA8BFA1F1C041BDE8704017
:1038A00080F282804FF0000001F1C04101F0004140
:1038B00070479EEA0C0F0CEA131518BF95EA0C0F1F
:1038C00006D04FF0000081EA030E0EF0004170BDFB
:1038D00000F01CF88900013E00F007B800F009B8BC
:1038E0004FEA430C5FEA5C5C08D081EA030100F018
:1038F0005BB84FEA410C5FEA5C5CF6D14FF0000028
:10390000014970470000FF070000F87F0EF1020E2A
:103910002EF0030E5EF8046B364205D4012A43EB09
:10392000030515F5001F12D8012841EB010C1CF509
:10393000001F0CD80ED14FEAD17C15F5001F0CEBFF
:103940004C0C0CF1020C08BF4CEBD37C04E04FF0A4
:10395000080C01E04FEAD37C0CEB4C0526FA05F687
:1039600006F00706B6F1040C06D20EEB860CBDE895
:1039700070404CF0010C6047DFE80CF0090B0202CC
:103980004FF000414FF00000A1F5002170BD194635
:103990001046012851EB010418BFD4F5001484BF70
:1039A000002001F0004170BD0808A0F500114FEAA9
:1039B0003101704710B591EA030F48BF83F000430F
:1039C0003FF5E2AD841A71EB030C07D212198CF0AB
:1039D000004C43EB0C03001B61EB0C01DFF8A4E18E
:1039E0004FEA1154A4EB135C1EEA430F18BF9EEA82
:1039F000445F00F0B08023EA6E03524221EA045192
:103A0000C3EB6E0338BF5B1EDCF1200E25D322FA18
:103A10000CFE10EB0E0043FA0CFE41EB0E01CCF154
:103A2000200E03FA0EFE10EB0E0051F10001CCF156
:103A3000200E29D412FA0EF201EB0451BDE8104019
:103A400058BF7047401C1CBFB2F1004F70470028A0
:103A50000CBF491C20F00100704712EB020E43EB33
:103A6000030218BF4FF0010E4EEA4202ACF1200CE7
:103A7000DCF11E0E54D943FA0CFE10EB0E0051F18E
:103A8000FF31CCF11E0ED5D50EF1010E12FA0EFE4D
:103A9000404141EB010101EB445C5FEA5C5C10D901
:103AA00010EBDE7001EB045138BFBEF1004FBDE8F2
:103AB000104018BF704700280CBF491C20F00100BF
:103AC000704730D24FEAD42C11F5001124F4006471
:103AD0001BD0B1FA81F20B3AA41AA41ED2F1200332
:103AE000914030FA03F31943904001EBCC71002C64
:103AF00001EB0451BDE81040A8BF704701F1C0417F
:103B00004FF0000001F000417047B0FA80F310FA66
:103B100003F100D110BDE41A173C4805C90AE4E7D7
:103B200001EB045110BD491001EB0451BDE81040F8
:103B30004FEA300002E04FF0000170474A0008BF32
:103B40000042F8D0B2F5001F28BF704701F00041D5
:103B50004FF0000070479EEA445F07D011EA5E0F05
:103B6000BDE8104004BF002100207047BDE81040B0
:103B700070B5FFF7CBFE00BF40DFF63E83F000419B
:103B8000104670470000E0FF43004FEAD30C4FEAB5
:103B90003C0C43401FBF40070CF1605113F0FE4F37
:103BA00070471CF0006F03D100200CF000417047FB
:103BB0000CF0004343EA507010B540EACC0000F02E
:103BC0005EF900BF000000924FEA0001FFF7ECBE73
:103BD0004FF000414FF00000A1F5002170470000B8
:103BE00090EA010F48BF81F0004100F1D681421AEE
:103BF0003CBF801A89184FEAD0524FF07F4C1CEA24
:103C0000410FA2EBD15318BF9CEA026F00F03B803A
:103C10004FF0004C4CEA00204CEA012121FA03FC51
:103C200010EB0C0C1ED202F1FF325FEA1C2040EBBD
:103C3000C25038BF70471CF07F0F4FEA400C18BFCE
:103C4000BCF17F4F38BF7047C3F12003994008BFD4
:103C500020F00100BCF17F4F38BF7047A0F1C04099
:103C600000F053B94FEA3C00000A40EBC25028BFB5
:103C70001CF0FF0F4FEA400CE6D018BFBCF17F4F9D
:103C800038BF7047EAE79CEA026F05D010EA5C0F84
:103C900008BF00F00040704710B500F0F0F800BF1A
:103CA00064FBBE3E401058BFC0F14040491058BFB1
:103CB000C1F140418142EFF30080704710F00041B4
:103CC00048BF4042B0FA80F310FA03F2C3F19D03FB
:103CD0000BD051EAC35101EB1220530638BF704795
:103CE00000F1010008BF20F001007047B0FA80F336
:103CF00010FA03F2C3F19D030AD0D90501EB12209B
:103D0000530638BF704700F1010008BF20F00100E2
:103D10007047000050EA010C00F113801CF5000F01
:103D200058BFBCF5000F01D48842704707D710F583
:103D3000000F58BF11F5000F15D488427047894213
:103D400070471CF5000F04D5BCF5000FF7D5814274
:103D500070474FF0807C1CEB400F38BF1CEB410FCD
:103D600001D28142704710B500F089F892244900D1
:103D70004FF000504FF08051FFF794BF4FF47F0C8D
:103D80001CEAD0121EBF1CEAD11392EA0C0F93EA70
:103D90000C0F00F0478090EA010F48BF42F4807298
:103DA0004FF0004C4CEA00204CEA012102EB0302E8
:103DB000A0FB0113A2F50002002918BF43F0010384
:103DC0005B0028BF4FEA330342EB22425FEA132C29
:103DD0004CEBC2502EBFBCEB436FB2F57C0F70476B
:103DE0004FEA036CBCF1004F08BF20F00100B2F5B0
:103DF0007C0F38BF70470BD582F0FF0212F5803F71
:103E0000C8BF704700F1C040D8BF00F00040704705
:103E100000F5000C5FEA4C0C48BF7047B0F1C040A1
:103E200000F073B890EA010F0CEAD11348BF42F4D6
:103E30008072624538BF634504D280EA010000F019
:103E40000040704710B500F01AF800BF8900013E2D
:103E500000F007B800F009B85FEA410C5FEA1C6C9B
:103E600008D080EA010000F050B85FEA400C5FEA39
:103E70001C6CF6D14FF00040A0F5800070470EF1A9
:103E8000020E2EF0030E5EF8044B244204D44FEAD7
:103E90004102B2F17F4F11D84FEA4003B3F17F4F97
:103EA0000CD80ED14FEAD07CB2F17F4F0CEB4C0C0A
:103EB0000CF1020C08BF4CEBD17C04E04FF0080C75
:103EC00001E04FEAD17C0CEB4C0324FA03F404F03C
:103ED0000704B4F1040C06D20EEB840CBDE81040CC
:103EE0004CF0010C6047DFE80CF0070802024FF0CD
:103EF0000040A0F5800010BD0846420018BFD2F176
:103F0000807288BF00F0004010BDFF2141EAD05010
:103F1000C005704751EA000C00F113801CF5000F3A
:103F200058BFBCF5000F01D48142704707D711F587
:103F3000000F58BF10F5000F15D481427047894219
:103F400070471CF5000F04D5BCF5000FF7D588426B
:103F500070474FF0807C1CEB410F38BF1CEB400FCB
:103F600001D28842704780EA010081EA000180EABC
:103F70000100FFF7F8BE80F0004090EA010F7FF5E6
:103F800036AE81F0004100F008B8000090EA010F61
:103F900048BF81F000413FF52AAE421A04D882F0B2
:103FA0000042A0EB020011444FEAD0524FF07F4C88
:103FB0001CEA410FA2EBD15318BF9CEA026F4AD012
:103FC0004FF0004C4CEA00204CEA012121FA03FC9E
:103FD000B0EB0C0C0FD412F0FE0F36D05FEA4C00A1
:103FE0001DD5001240EBC25038BF70471CF03F0F88
:103FF00018BF70470BE0A2F101025FEA1C2040EB02
:10400000C25038BF70471CF07F0F18BF7047C3F114
:104010002003994014BF401E20F001007047800823
:104020004FEA122308BF7047B0FA80FCA2EB0C02E3
:10403000CCF1280C60FA0CF093EA122F04BF00EBCD
:10404000C25070474FEAC3707047130A5FEADC1032
:1040500008BF7047F6E79CEA026F04D010EA5C0FD5
:1040600008BF0020704710B5FFF709FF40DFF63E9C
:1040700081F00040704700009840000800000020D8
:10408000C00000006C01000858410008C00000207A
:10409000600600008801000800A24A040000000039
:1040A00000000000010203040607080900000000E8
:1040B00001000000000000000000000000000000FF
:1040C00000000000000000000000000000000000F0
:1040D00000000000000000000000000000000000E0
:1040E00000000000000000000000000000000000D0
:1040F00000000000000000000000000000000000C0
:1041000000000000000000000000000000000000AF
:10411000000000000000000000000000000000009F
:10412000000000000000000000000000000000008F
:10413000000000000000000000000000000000007F
:10414000000000000000000001020304010203045B
:08415000060708090204060835
:0400000508000131BD
:00000001FF
